:020000040800F2
:10000000F007002065010008012A000845230008C8
:1000100000000000000000000000000000000000E0
:10002000000000000000000000000000F32A0008AB
:100030000000000000000000DD2A0008F52A00088A
:100040009501000895010008950100089501000838
:100050009501000895010008950100089501000828
:1000600000000000950100089501000895010008B6
:1000700095010008950100080000000095010008A6
:100080000000000000000000000000000000000070
:100090009501000800000000000000009501000824
:1000A00000000000950100080000000000000000B2
:1000B00081340008950100080000000000000000E5
:1000C00000F002F800F03EF80CA030C80838241800
:1000D0002D18A246671EAB4654465D46AC4201D180
:1000E00000F030F87E460F3E0FCCB6460126334274
:1000F00000D0FB1AA246AB46334318471438000021
:1001000034380000103A02D378C878C1FAD85207C0
:1001100001D330C830C101D504680C6070470000BD
:100120000023002400250026103A01D378C1FBD813
:10013000520700D330C100D50B6070471FB51FBDFB
:1001400010B510BD00F0C1FA1146FFF7F7FF03F03C
:10015000E7F900F0D9FA03B4FFF7F2FF03BC00F0AF
:10016000DFFA00000F4880F308880F480168090E85
:100170000E4A914205D10E480E4901600E480F49C2
:1001800001600F4880470F480047FEE7FEE7FEE7A3
:10019000FEE7FEE7FEE700000B480C490C4A0D4B5A
:1001A00070470000F0070020040000001F0000005E
:1001B0003410024001000000000001400000000077
:1001C000912B0008C1000008F0010020F00700207A
:1001D000F0030020F0030020FEB5054610460C4653
:1001E000184373D0AE468C460020AD1A01469C41A0
:1001F00067D36646002701243D46B61A9D4102D3C7
:1002000013463A462124654676462F04360C3E4373
:100210002D0CB61A9D4104D3150C1B042B4312045C
:100220001034654676462F06360A3E432D0AB61A26
:100230009D4104D3150E1B022B4312020834654660
:1002400076462F0736093E432D09B61A9D4104D341
:10025000150F1B012B431201241D65467646AF077F
:10026000B6083E43AD08B61A9D4104D3950F9B00D6
:100270002B439200A41C65467646EF0776083E4362
:100280006D08B61A9D411AD392185B41641C16E0A2
:100290000018764665464941B71A9D410191009084
:1002A00009D36046B11A98418E4684460098019958
:1002B0000025401C6941DD0752082A435B08641E83
:1002C000E6D57246634603B0F0BDFFE70020014665
:1002D000C046C0462A462346F5E7000030B5441C18
:1002E00003E00178401C00290DD08107F9D10B4BA8
:1002F000DD0104C8D11A91432940FAD0001B0A0637
:1003000003D0C01E30BD001B30BD0A0401D0801ECA
:1003100030BD0902FCD0401E30BD000001010101CA
:1003200001E004C0091F0429FBD28B0701D502801C
:10033000801CC90700D00270704700290BD0C3078A
:1003400002D00270401C491E022904D3830702D543
:100350000280801C891EE3E70022EEE70022DFE72F
:10036000002203098B422CD3030A8B4211D30023B2
:100370009C464EE003460B433CD4002243088B428C
:1003800031D303098B421CD3030A8B4201D3944619
:100390003FE0C3098B4201D3CB01C01A524183090C
:1003A0008B4201D38B01C01A524143098B4201D3C6
:1003B0004B01C01A524103098B4201D30B01C01AF1
:1003C0005241C3088B4201D3CB00C01A524183086B
:1003D0008B4201D38B00C01A524143088B4201D398
:1003E0004B00C01A5241411A00D2014652411046F8
:1003F00070475DE0CA0F00D04942031000D340426D
:10040000534000229C4603098B422DD3030A8B42A2
:1004100012D3FC22890112BA030A8B420CD3890140
:1004200092118B4208D3890192118B4204D3890126
:100430003AD0921100E08909C3098B4201D3CB0164
:10044000C01A524183098B4201D38B01C01A524119
:1004500043098B4201D34B01C01A524103098B421D
:1004600001D30B01C01A5241C3088B4201D3CB0008
:10047000C01A524183088B4201D38B00C01A5241EB
:10048000D9D243088B4201D34B00C01A5241411AC2
:1004900000D20146634652415B10104601D34042F0
:1004A000002B00D54942704763465B1000D34042A1
:1004B00001B50020C046C04602BD70477047704776
:1004C000F0B5FF252D04C609C209FF2704462E40BA
:1004D0000137CB093E4348402A402B400746002ABB
:1004E0006BD0002B69D0AA4267D0AB4265D0002800
:1004F00000DA32460125ED0529432C43090220028A
:10050000090AD21A4B0C7F24E31A434C000A7C449C
:10051000E35C7D242404121914145B00A2188842A1
:1005200001D3521C00E0400049420C465C432411B8
:100530005C43DB016415E318040A5C43C502200D2B
:100540000C4644436419250A5D432303EC0C0D4615
:10055000654300030019EB184C42A34201D35B181A
:10056000401CD4052018002B07D05B00C91804D309
:10057000401C002901D1400840003F2189048A42E3
:1005800009D3002A08DC1106090F04D0032149070A
:100590004018C00FC007F0BD0122410012068918A3
:1005A0007F2252069142F6D205214907C84201D561
:1005B0009010F0BDFF20C005F0BD002F00DA3246DC
:1005C0001648AA4207D2AB4205D21902090E17D02B
:1005D000F80FC007F0BDFF2563002D06AB42F9D828
:1005E0004900A942F6D8AB4201D1A942F2D0A942B2
:1005F00001D1002101E061004908D0050843F0BDA8
:100600001102090EFBD0FF200243D005F0BD0A46BF
:100610000146104654E70000BB3300000000C07FD5
:1006200010B501469E240002CA15A307002A02D075
:100630001843002A04DBA21A002A0CDDD04010BDAA
:100640001206120E01D140004008A21A03D4D04075
:1006500040420028F3DDFF2248001206904201D9F3
:10066000002010BDC817C043584010BD1F22030C06
:1006700002D10F2200041CD0030E01D10002083A5F
:10068000030F01D10001121F830F01D18000921EC0
:10069000002801DB4000521ED205511802125118E9
:1006A0001922904004D3491C002801D1490849006F
:1006B00008467047C10FC90700D040420122920787
:1006C0001143D3E701218907D0E7754600F024F8EC
:1006D000AE46050069465346C008C000854618B0BE
:1006E00020B5FFF759FD60BC00274908B646002633
:1006F000C0C5C0C5C0C5C0C5C0C5C0C5C0C5C0C5D2
:10070000403D49008D46704710B50446C046C0467E
:100710002046FFF720FD10BD0048704790010020E3
:1007200001491820ABBEFEE726000200704700001A
:10073000F8B502F02FFA0446601C01D102F064FF04
:10074000A14EA24D012C17D11A206870E120400261
:10075000A86102F07FFF01F0E9FF311D012230683E
:1007600001F0D4FC0820285E00900623EB5E697837
:100770000120AA6900F00AFA022C5BD100210020B6
:1007800001E0491CC9B27218127A3D2AF9D1491CFC
:10079000C9B201E0491CC9B27218127A202AF9D0F4
:1007A000F28803E0491CC9B2401CC0B273181B7A1E
:1007B000303B092B01D88A42F4D8491EC9B2421EE7
:1007C000022A35D80022012803D17218127A303A51
:1007D00092B2022808D17218137AD2790A27303AD5
:1007E0007A43303A9A1892B203280DD17018C17921
:1007F000027A30390A2359438079511830386422FB
:1008000050433038081882B2501EFE280DD86A7046
:1008100002F020FF0820285E00900623EB5E697836
:100820000120AA6900F0B2F904E002F0EDFE01E057
:1008300002F0EAFE032C34D1002001E0401CC0B2DB
:100840003118097A3D29F9D1401CC0B201E0401CA1
:10085000C0B23118097A2029F9D03118097A303913
:1008600007291CD8F288824219D9C8B2574980009A
:100870002C310858A86102F0EDFE01F057FF01226B
:10088000311D306801F042FC0820285E00900623EC
:10089000EB5E69780120AA6900F078F901E002F0C6
:1008A000B3FE042C01D0201D53D10021002001E013
:1008B000491CC9B27218127A303A0A2AF8D2F28860
:1008C00003E0491CC9B2401CC0B273181B7A303B0C
:1008D000092B01D88A42F4D8491EC9B2421E022A05
:1008E00035D80022012803D17218127A303A92B218
:1008F000022808D17218137AD2790A27303A7A433B
:10090000303A9A1892B203280DD17018C179027A40
:1009100030390A23594380795118303864225043C2
:100920003038081882B2042C00D1EA80201D01D191
:100930005042E88002F08EFE0820285E00900623D8
:10094000EB5E69780120AA6900F020F901E002F06D
:100950005BFE052C01D0601D31D10020002101E09B
:10096000401CC0B23218127A303A0A2AF8D2F28801
:1009700003E0401CC0B2491CC9B233181B7A303B9B
:10098000092B01D88242F4D8401EC0B2002917D0EA
:100990003018007A3038C0B2052C00D12881641D8F
:1009A00001D14042288102F055FE0820285E0090C7
:1009B0000623EB5E69780120AA6900F0E7F8F8BD2C
:1009C00002F022FEF8BD00005C01002014000020AF
:1009D000F8B504460025E0880027154E002824D0ED
:1009E0007088002806D100F09FFAB0600120708066
:1009F000E088308000F098FAB168884200D2B76091
:100A000000F092FAB168401A09280FD970880128BD
:100A10000CD1E0883188884201D1012506E000F040
:100A200083FAB060E088308000E0778068B2F8BD7B
:100A30000800002010B5C2880023C3800371054957
:100A40008A80002102E044182372491C9142FADB9B
:100A500010BD00000800002072B6FEE710B508497E
:100A600000234B6107494A684C1522434A604A6893
:100A7000082422434A60C009C001036010BD000081
:100A800078010020002002400068704710B5002067
:100A9000204A9169CB05204904D5486902231843AF
:100AA0004861901593699B0505D54B690124234343
:100AB0004B616302184393695B0505D54B690824B4
:100AC00023434B61E301184393691B0505D54B692B
:100AD000042423434B616302184393699B0405D5A7
:100AE0004B69102423434B616302184393699B03B2
:100AF00004D54C6920231C434C6118439369DB03E4
:100B000005D54B69402423434B61A1020843906102
:100B100010BD0000002002407801002070B504469E
:100B200000F002FA0546184E0AE0601C08D0002CBE
:100B300004D000F0F9F9401BA04201D9032070BD98
:100B4000B069C007F1D1B069800701D50220B0615A
:100B5000B069C00511D4B06980050ED4B0694005F4
:100B60000BD4B069000508D4B069800405D4B0691D
:100B7000800302D4B069C00303D5FFF787FF0120CB
:100B800070BD002070BD000000200240FFB585B0A0
:100B900016461D460E9F00F0EFF800200290154CFF
:100BA0006169039108210491019001A902A800F054
:100BB0007DF8059A0220616900F0C0F86169069A23
:100BC000091D022000F0BAF861693246083102209E
:100BD00000F0B4F861692A460C31022000F0AEF84A
:100BE00061693A461031022000F0A8F800F098F848
:100BF00009B0F0BD1400002030B5014620314A791B
:100C00000023022A04D00422C2630B71012030BDEC
:100C1000026814680E25AC43146002681468640806
:100C200064001460446C1C22144001252A46006CA8
:100C3000A24042604D710B71184630BD70B5002462
:100C4000014620314A79022A03D00421C1630124DC
:100C500018E0026813680E25AB431360026813683E
:100C60005B085B001360436C1C22134001252A467D
:100C70009A40036C5A604D7100220A71816B002901
:100C800000D08847204670BD70B5044600F04CF98E
:100C90000546601C02D004480078241800F044F98E
:100CA000401BA042FAD370BD60000020F8B5054695
:100CB0000E46184F387C012807D00120387416489A
:100CC000FFF72CFF002802D020E00220F8BD002111
:100CD000C94331606C6813E02046FFF7BFFE0E4841
:100CE000FFF71CFF0D494A6808239A434A604A6887
:100CF0004B159A434A60002801D0346006E08034E6
:100D0000A9686A68C9018918A142E5D80021397427
:100D1000F8BD00007801002050C300000020024010
:100D20000548416802221143416041680122114394
:100D3000416000207047000000200240F8B50E46D8
:100D400017460B4C207C012808D00120207409484C
:100D5000FFF7E4FE0025002802D006E00220F8BDDF
:100D6000656137600348FFF7D9FE2574F8BD0000C0
:100D70007801002050C3000012484168C9070DD017
:100D8000EFF3108172B6104AC260104AC26081F35C
:100D900010884168C90701D0012070474168890760
:100DA0000DD5EFF3108172B6094A0261094A02615A
:100DB00081F310884068800701D50120704700202A
:100DC0007047000000200240EFCDAB89050403020C
:100DD000BFAE9D8C16151413F0B500228DE00127CF
:100DE00097403B40002B7DD00C79A407A40F012C29
:100DF00001D0022C10D1856854000326A640B543CB
:100E0000CE68A6402E4386604468BC430D79ED064B
:100E1000ED0F9540254345600C79E443A40708D0C5
:100E2000C56854000326A640B5438E68A6402E43ED
:100E3000C6600C79A407A40F022C0CD1D408A4001E
:100E400027183D6A5407E40E0F26A640B5430E69E5
:100E5000A6402E433E62056854000326A640B543D3
:100E60000E79B607B60FA6402E4306604C68A40361
:100E7000A40F41D0244C666B01252E436663950870
:100E8000224CAD002F19BD689407240F0F26A640F1
:100E9000B54305263607B04201D100260AE01C4EB4
:100EA000B04201D1012605E01A4EB04201D102261E
:100EB00000E00626A6402E43BE60174DAC689C435A
:100EC0004E68F60200D51C43AC60EC689C434E684B
:100ED000B60200D51C43EC606C689C434E68B603B8
:100EE00002D500E008E01C436C602C689C434E680F
:100EF000F60300D51C432C60521C0B681C46D440E2
:100F000000D06CE7F0BD000000100240000001407E
:100F1000000400500008005000040140002A01D0E5
:100F200081617047816270470148806870470000A6
:100F30006000002070B5024640325378202B01D06B
:100F4000022070BD1378012B19D0012414702423C2
:100F5000537003681D68A5431D6003681D68260360
:100F6000B5431D6003681D680D431D60006801687E
:100F700021430160202050700020107070BD0220BD
:100F800070BD70B5024640325378202B01D002204C
:100F900070BD1378012B18D00125157024235370D0
:100FA00003681C68AC431C6003681C680F2636028B
:100FB000B4430902214319600068016829430160B4
:100FC000202050700020107070BD022070BD000005
:100FD00070B50446002C06D02546403568780026BA
:100FE000002802D005E0012070BD2E70204600F0E0
:100FF0008FF9242068702068016849084900016061
:101000000F216068090688432168086120688268AA
:101010000121C9038A438260E068012809D02122A6
:10102000A0689202104322689060E068022805D010
:1010300008E0A068226808439060F6E70120226873
:10104000C0025060206842680F4B1A43426020681B
:10105000C2688A43C260616920690843A1690902C4
:1010600008432168C860216AE06908432168086074
:1010700020680168012211430160666420206870C5
:101080002663AE70002070BD00800002FFB581B005
:101090000446254640356878202802D0022005B055
:1010A000F0BD287801280FD001202870FFF73CFF01
:1010B000074601221923D1032046009701F0F0F9D9
:1010C000002803D00120EAE70220E8E72220687028
:1010D0001020A870002666640398606204986085FA
:1010E0006663618D3848FF2909D9FF2222850123D3
:1010F00000901B062046029901F0BCF94AE0618D80
:1011000021850090208D0123C2B25B062046029902
:1011100001F0B0F93EE03A4620460A9901F0F2F9B2
:10112000002801D00120BAE72068406A616A08708F
:10113000606A401C6062208D401E80B22085618DF7
:10114000491E6185618D002924D0002822D1009795
:101150000022802120460A9B01F0A2F9002801D03C
:1011600001209CE7608DFF2809D9FF2222850123F9
:101170001B0600962046029901F07CF90AE0608D7A
:1011800020850096208D0123C2B25B06204602997D
:1011900001F070F9608D0028BDD13A4620460A99C9
:1011A00001F004FA002801D0012078E7206820220D
:1011B000C26120684168054B194041606A70AE7099
:1011C0002E7000206BE700000024008000E800FE85
:1011D000FFB581B00446254640356878202802D006
:1011E000022005B0F0BD287801280FD0012028701A
:1011F000FFF79AFE074601221923D10320460097E4
:1012000001F04EF9002803D00120EAE70220E8E7C8
:10121000212068701020A870002666640398606220
:10122000049860856663618D3748FF2908D9FF22DD
:101230002285C30200902046029901F01BF94AE082
:10124000618D21850090208D0123C2B25B0620466E
:10125000029901F00FF93EE03A4620460A9901F062
:10126000D1F9002801D00120BBE7606A216800782D
:101270008862606A401C6062608D401E6085208DBF
:10128000401E80B22085618D002924D0002822D103
:1012900000970022802120460A9B01F001F90028D6
:1012A00001D001209DE7608DFF2809D9FF2222850A
:1012B00001231B0600962046029901F0DBF80AE0A4
:1012C000608D20850096208D0123C2B25B062046EA
:1012D000029901F0CFF8608D0028BDD13A46204632
:1012E0000A9901F063F9002801D0012079E720680C
:1012F0002022C26120684168044B194041606A7035
:10130000AE702E7000206CE70020008000E800FE28
:1013100010B586B00446142101A8FFF71FF8114943
:10132000206888421BD1104CE16A01200143E16230
:10133000E16A0140009103214902019112210291C9
:1013400000210391032104910590052001A90007C4
:10135000FFF742FDA06B012149050843A06306B0D9
:1013600010BD0000005400400010024070B504465B
:10137000002C0FD0216815480860216814480860C7
:101380002168606848602168A0688860FFF7CCFD2C
:1013900005460CE0012070BDFFF7C6FD401B2A2862
:1013A00005D92068C068400701D0032070BD2068BF
:1013B000C0684007F0D120680269E1688A4201D024
:1013C000016101E003490160002070BDCCCC000048
:1013D00055550000AAAA00000068024901600020DB
:1013E00070470000AAAA00000248816802788918A4
:1013F000816070476000002010B500240748016834
:10140000402211430160012000F00AF8002801D0B9
:10141000012401E000F028F8204610BD0020024021
:1014200070B504460E4D7D202978C000FEF798FF68
:1014300001460C480068FEF793FF00F087FC002887
:1014400001D0012070BD042C07D200222146501E7D
:1014500000F022F86C60002070BD012070BD00001B
:10146000600000206C0000200448416B0122114301
:101470004163816B02041143816370470010024095
:10148000002805DBC106C90E01208840014908601B
:101490007047000000E100E010B502F01FF810BD39
:1014A000F8B5044600262078564D80067ED555486E
:1014B0004038806BC00006D452484038826B01042B
:1014C0000A438263012650480168C90512D40168A5
:1014D000821511430160FFF727FD074606E0FFF77D
:1014E00023FDC01B642801D90320F8BD46480068CD
:1014F000C005F4D543484038016803221205114065
:10150000606802408A420AD08103890F032906D10C
:101510003C4940390968890301D50120F8BD2A6991
:10152000032109040A40002A21D0084090421ED01D
:10153000207880061BD5286988432A690121C904BF
:101540000A432A612A698A432A612861C0050ED5A7
:10155000FFF7EAFC074607E0FFF7E6FCC11B2B4854
:10156000814201D90320F8BD28698005F4D520788F
:10157000800614D560688103890F032908D1214BA7
:10158000403B196803221205914310400143196042
:101590002869032261681204114008432861012E62
:1015A00007D118484038826B010400E001E08A430B
:1015B00082632078800705D5E8680C218843A168FC
:1015C0000843E8602078400706D5E86803218902CF
:1015D0008843E1680843E8602078000706D5E8689A
:1015E00003210903884321690843E8602078000645
:1015F00006D5E86803218904884361690843E860E7
:101600000020F8BD40100240007000408813000028
:10161000F8B504460E46002C0FD068480068C00795
:10162000C00FB04218D2654F3868400840003043C0
:101630003860FFF779FC054609E00120F8BDFFF7A7
:1016400073FC411B5E48814201D90320F8BD386814
:10165000C007C00FB042F2D120785A4F800705D59D
:10166000F868F0218843A1680843F8602078C00733
:1016700060D06068022808D003280BD001280ED063
:101680003968890510D40120F8BD396889030BD465
:101690000120F8BD3968890106D40120F8BD3968F8
:1016A000490701D40120F8BDF96889088900014380
:1016B000F960FFF739FC0546606802280CD0032862
:1016C00018D0012824D031E0FFF72EFC411B3C4804
:1016D000814201D90320F8BDF8680007800F022875
:1016E000F2D127E0FFF720FC411B3548814201D9A8
:1016F0000320F8BDF8680007800F0328F2D119E035
:10170000FFF712FC411B2E48814201D90320F8BD8E
:10171000F8680007800F0128F2D10BE0FFF704FC06
:10172000411B2748814201D90320F8BDF868000712
:10173000800FF3D121480168C907C90FB14217D9F9
:10174000014608684008400030430860FFF7ECFBA2
:10175000054607E0FFF7E8FB411B1948814201D924
:101760000320F8BD15480068C007C00FB042F1D192
:101770002078400706D5F868072109028843E16808
:101780000843F8602078000707D5F8680721C902E8
:1017900088432169C9000843F86000F041F8F968FE
:1017A000094A0906090F515CC84008490860084801
:1017B0000068FFF735FE0028D3D1F8BD00200240B5
:1017C0008813000000100240AC3800086C000020B4
:1017D0006400002001480068704700006C00002091
:1017E00000B5FFF7F7FF0449C968044A4905490FE6
:1017F000515CC84000BD000000100240C538000820
:1018000000B5FFF7E7FF0449C968044A8904490F96
:10181000515CC84000BD000000100240C5380008FF
:1018200070B5214EF2680C21104608401F498B000C
:1018300004280CD04D00082810D00C2810D0706857
:101840000004410F491C0120C003884070BD30686E
:10185000C00601D5084670BD184670BD284670BD4B
:101860009002134C000F205C1202940F641CF2686B
:10187000D20307D5294601F00BFE22460023FEF7CE
:10188000ABFC70BD3268D20606D501F001FE2246DF
:101890000023FEF7A1FC70BD194601F0F9FD2246B8
:1018A0000023FEF799FC70BD0010024000093D00C6
:1018B000BC380008FEB50446002C0FD0F84DEE6889
:1018C0000C200640EF680120000407402078C00784
:1018D00053D0082E08D00C2E02D00DE00120FEBD02
:1018E00001200004874207D12868800345D560683D
:1018F000002842D10120FEBD012061680004814220
:1019000003D129680143296015E0052301221B0446
:101910009204994206D1296811432960296801433C
:10192000296008E029688143296029680140009105
:10193000286890432860606800280FD0FFF7F4FA09
:10194000019007E0FFF7F0FA0199401A642801D9E5
:101950000320FEBD28688003F4D50EE0FFF7E4FA0B
:10196000019007E0FFF7E0FA0199401A642801D9D5
:101970000320FEBD28688003F4D42078800762D558
:10198000E068810604D52A6820210A432A6088433A
:101990000921042E0DD00C2E01D1002F09D00028D2
:1019A0003FD02A688A4302432A60FFF7BDFA074600
:1019B0002BE02A68520701D500281DD06A681F2332
:1019C0001B029A4323691B021A436A602A688A43EE
:1019D00002432A60FFF724FF0146E8680006020F71
:1019E000B048805CC140B0480160B0480068FFF773
:1019F00017FD0028BDD126E00120FEBDFFF794FAB7
:101A0000C01B022801D90320FEBD28684007F5D578
:101A100068681F2109028843216909020843686038
:101A200011E02868400840002860FFF77DFA07466B
:101A300006E0FFF779FAC01B022801D90320FEBD9A
:101A400028684007F5D42078C00664D5002E0BD056
:101A5000A06900284CD02868FF2101310843286084
:101A6000FFF762FA074631E02868800502D5A069D1
:101A7000002822D06868072149038843216A084367
:101A800068606868217F0002000A090608436860F0
:101A9000206A410B491C0120C0038840E9680906FF
:101AA0000A0F8049895CC8407F4908607F48006808
:101AB000FFF7B6FC0028C2D12DE00120FEBDFFF7E4
:101AC00033FAC01B022801D90320FEBD2868800517
:101AD000F5D56868072149038843216A084368608F
:101AE0006868217F0002000A09060843686012E066
:101AF0002868FF21013188432860FFF715FA07465F
:101B000006E0FFF711FAC01B022801D90320FEBD31
:101B100028688005F5D42078654F000729D56069CD
:101B2000002813D03869012108433861FFF7FCF918
:101B3000019007E0FFF7F8F90199401A022801D94E
:101B40000320FEBD38698007F4D512E038694008EB
:101B500040003861FFF7E8F9019007E0FFF7E4F98A
:101B60000199401A022801D90320FEBD3869800777
:101B7000F4D42078400775D500200090A86BC000F1
:101B800006D4A86B012109070843A863012000902F
:101B900048480168C90514D4014608688A151043ED
:101BA0000860FFF7C1F9019007E0FFF7BDF901995F
:101BB000401A642801D90320FEBD3E480068C005D4
:101BC000F3D5FF20A2680130824203D13969014375
:101BD00039611BE001218902002A0AD005231B027A
:101BE0009A420DD13A690A433A6139690143396130
:101BF0000CE03A6982433A6138698843386105E00C
:101C00003A6982433A61386988433861A06800289C
:101C100010D0FFF789F9019008E0FFF785F90199E5
:101C2000411A2548814201D90320FEBD386980054B
:101C3000F3D50FE0FFF778F9019008E0FFF774F9AA
:101C40000199411A1C48814201D90320FEBD38691F
:101C50008005F3D40098012804D1A86B012109075D
:101C60008843A863606A00286CD00C2E51D00127ED
:101C70003F06022806D02868B8432860FFF754F9C9
:101C8000044642E02868B8432860FFF74DF906464D
:101C900014E0FFF749F9801B02280FD90320FEBD8D
:101CA00000100240AC3800086C00002064000020E6
:101CB0004010024000700040881300002868800136
:101CC000E7D4E16AA06AEA680843216BFD231B049C
:101CD0009A4311430843E860286838432860FFF7B7
:101CE00023F9044606E0FFF71FF9001B022801D97B
:101CF0000320D4E728688001F5D523E0FFF714F925
:101D0000001B022801D90320C9E728688001F5D407
:101D100018E0012814D0E86801210904A26A0140F2
:101D200091420BD10F218904E26A0140914205D111
:101D3000032189050840216B884203D00120AEE7CA
:101D40000120ACE70020AAE77047000010B5094960
:101D5000401E884201D9012010BD074C606103215B
:101D6000081F01F0BBFB0020A061072020610020BC
:101D700010BD0000FFFFFF0000E000E010B5FFF71E
:101D8000E3FF10BD7047704770470000F8B5044688
:101D90002268D06911689368A24D06462E40002E35
:101DA00009D1850607D58D0605D5A16E002901D07C
:101DB00020468847F8BD25468035002E7FD09A4FB3
:101DC000DE07F60F0F40374379D0C70706D0CF059F
:101DD00004D5012717626A683A436A60820708D50A
:101DE000DA0706D0276802223A626A6804273A4373
:101DF0006A60420708D5DA0706D0236804221A620F
:101E00006A6802231A436A60020709D520220A4041
:101E1000324305D0236808221A626B6813436B6053
:101E2000020509D54A0107D501222368D2021A62A8
:101E30006A6820231A436A606A68002ABAD080065A
:101E400006D5880604D5A16E002901D02046884712
:101E5000686821688968490602D42821084228D088
:101E6000204601F02BF82068816849061DD5EFF364
:101E70001081012282F3108883684022934383609B
:101E800081F31088606F00280BD068498163606F10
:101E9000FEF7D4FE00288DD0606F816B8847F8BDB7
:101EA0000DE02046FFF770FFF9E72046FFF76CFFD3
:101EB000F5E72046FFF768FF00206860EFE7266E31
:101EC000012E7DD1C6067BD5CE0679D510231362AF
:101ED0002068816826464906403600294CDA626F40
:101EE0001168496889B20029D9D0378B8F42D6D979
:101EF000718311680968890634D4EFF310810122D7
:101F000082F3108802681F01BA43026081F31088CF
:101F1000EFF31081012080F3108820688268520856
:101F20005200826081F31088EFF31081012080F36A
:101F30001088206882684027BA43826081F3108845
:101F40002020286000202066EFF31081012080F31C
:101F50001088206802689A43026081F31088606FDD
:101F6000FEF74AFE02206066308B718B401A81B208
:101F70002046FFF707FF92E7318B728B891A89B2EF
:101F8000728B002A8BD0002989D0EFF310820126B2
:101F900086F310880668FF272137BE43066082F368
:101FA0001088EFF31082012080F310882068866883
:101FB00076087600866082F310882020286000E092
:101FC00013E000202066A066EFF31082012080F36A
:101FD0001088206805689D43056082F31088022000
:101FE00060662046FFF7CEFE59E7C50208D55B02C2
:101FF00006D50120000510622046FFF7C4FE4EE71B
:10200000020607D50A0605D5E16E0029B3D02046A1
:10201000884744E74006AED54806ACD5204600F0D8
:102020007CFF3CE70F08000020010004A92E0008F7
:1020300010B50446002C03D0E06F002802D007E062
:10204000012010BD002178200155204600F028F81D
:102050002420E067206801684908490001602046A3
:1020600001F04CF8012819D0606A002802D02046FF
:1020700000F050FE206841680922D202914341607D
:10208000206881682A2291438160206801680122CA
:1020900011430160204600F0A3FE10BD012010BDD9
:1020A00010B586B00446142101A8FEF757F915496A
:1020B0002068884223D11448816B012252041143C5
:1020C0008163C16A01221143C162C06A104000905D
:1020D0000C20019002200290002003900320049025
:1020E00004200590052001A90007FEF775FE0022D7
:1020F00002211C20FFF7D0F91C20FFF7C1F906B020
:1021000010BD0000004400400010024070B5802364
:102110001B58202B01D0022070BD00290AD0002AB4
:1021200008D0012483682403A34209D10369002B4A
:1021300002D005E0012070BDCB0701D0012070BDA9
:10214000002303660A4C0368A3420ED05C68240295
:102150000BD5EFF31084012585F310881D68012647
:10216000B60635431D6084F3108801F0D3F870BDC6
:102170000048004010B509490068096888420CD140
:1021800006498831C8880B79421CCA8040180372FE
:102190000122091D0148FFF7B9FF10BDD40000203E
:1021A000FFB583B004460E461546E06F202802D0E6
:1021B000022007B0F0BD002E0AD0002D08D001206B
:1021C000A1680003814209D12069002802D005E0FE
:1021D0000120EEE7F00701D00120EAE7002184208A
:1021E00001512120E067FEF79FFE0290274640370D
:1021F0003D827D820120A1680003814202D12069D5
:10220000002802D03546002618E0002516E0069882
:102210000090002280212046029B01F0E9F800286E
:1022200003D02020E0670320C3E7002D17D02878D3
:1022300021686D1C8862788A401E7882788A00281E
:10224000E5D106980090002240212046029B01F033
:10225000CFF800280AD02020E0670320A9E73088C3
:10226000B61CC0052168C00D8862E4E72020E06745
:1022700000209EE770470000F7B584B00E460024AA
:102280000025039564200090002303AA8821049868
:10229000FEF79EFF274F002805D03878032842D24A
:1022A000401C387042E03220FEF7EEFC7D20C0007A
:1022B0000090042303AA88210498FEF7E7FE044651
:1022C000200033D16A46107B0102507B0143907B92
:1022D000D27B000210438904890C800802900846D2
:1022E000FEF7F0F97968FEF7EBF8134901F01EFAF2
:1022F000FEF796F9069908800298FEF7E3F97968E7
:10230000FEF7DEF80D4901F011FA0D4901F066FA09
:10231000094901F00BFAFEF783F93080387800287C
:1023200004D03D7002E0358006980580204607B055
:10233000F0BD0000000000200000C842000025435E
:1023400000002042FEE701688A69D243920701D467
:1023500000228A6200688169C943C90703D0816984
:102360000122114381617047F7B582B004461746D8
:102370000026206881690025CA0621464031019166
:10238000002A43DA1021C16131E00398401C2ED0AD
:10239000FEF7CAFDC11B0398814202D803980028AA
:1023A00025D120684168012292031140019A927858
:1023B0008369DB431B0415D401239B03994211D08D
:1023C000202A0FD0416819434160FEF7ADFD074652
:1023D00008E0FEF7A9FDC01B192803D920200543FA
:1023E000012604E020688069C0438006F1D420689B
:1023F0008069C043800601D5002EC6D0002E02D1D0
:1024000021682020C86104200543012621688869CD
:10241000C20504D5012215431202CA6101264105F5
:1024200005D508210D432268C901D1610126800527
:1024300005D50220054321680002C8610126002E4F
:1024400012D02046FFF77FFF20684168084A1140FC
:102450004160606C284360640199202048700199B4
:102460000020887001990870304605B0F0BD00006A
:1024700000E800FE10B5029C8905890D1204114385
:10248000194321434900490800684268630D034C21
:1024900023439A430A43426010BD0000FF63FF03D9
:1024A000F8B504460E4617461D461EE0681C1CD0B3
:1024B000FEF73AFD0699401AA84201D8002D14D122
:1024C00020688169304688430DD00020B8420CD185
:1024D000616C202001436164403460700020A07072
:1024E00020700120F8BD0120F0E7206881693046A6
:1024F000884304D00020B842D8D00020F8BD012085
:10250000F9E70000F7B504460E460027254640359A
:1025100043E031462046029AFFF726FF002801D00B
:102520000120FEBD20688069C043800620D4206859
:102530008169C943490704D4218D002901D00020B5
:10254000FEBD8169C943C90604D41021C1610420BC
:10255000606400E0676420682022C26120684168EE
:10256000114B194041606A70AF702F700120FEBDA1
:10257000FEF7DAFC0299401AB04201D8002E0CD1C5
:1025800020688069C043400707D5616C2020014363
:10259000616468702F700120FEBD20688069C043AF
:1025A0004007B6D40020FEBD00E800FE70B504462A
:1025B0000D4616461FE0324629462046FFF7D4FE58
:1025C000002801D0012070BDFEF7AEFC801BA842A0
:1025D00001D8002D0FD120688069C04380060AD53C
:1025E000616C202001436164403460700020A07061
:1025F0002070012070BD20688069C0438006DAD455
:10260000002070BD70B504460D46164621E03246E6
:1026100029462046FFF7A8FE002801D0012070BD02
:10262000681C16D0FEF780FC801BA84201D8002D44
:102630000FD120688069C04380070AD5616C2020D3
:1026400001436164403460700020A070207001205C
:1026500070BD20688069C0438007D8D4002070BD59
:1026600030B587B0142102A8FDF778FE0D48C16A85
:1026700001242143C162C06A2040019005252D0735
:10268000002210212846FEF749FC102102910394F4
:10269000022004900020059002A92846FEF79CFB2A
:1026A00007B030BD0010024010B513481149016059
:1026B00012494160002181600122C26001614161D3
:1026C0008161C1610162FEF783FC002801D0FEF741
:1026D000C3F900210848FEF72DFC002801D0FEF7C1
:1026E000BBF900210448FEF74CFC002801D0FEF79E
:1026F000B3F910BD00540040700000208266500005
:1027000010B509480749016006214160FF213931B0
:10271000C1608160FEF72AFE002801D0FEF79CF917
:1027200010BD000000300040C400002010B50C486F
:102730000A490160E1214902416000218160C160D4
:1027400001610C2242618161C16101624162FFF756
:102750006FFC002801D0FEF77FF910BD0044004057
:10276000D400002070B5054609480023094C0CE050
:10277000EA5C50400822C60702D04008604000E0F2
:102780004008521E002AF6D15B1C8B42F0DB70BD64
:10279000FFFF000001A00000F0B5059D069B044668
:1027A00000202668317021684A706A00216803257C
:1027B0008A7007E02F462668195C6D1CADB2F15592
:1027C000401C80B28242F5D829462068FFF7CAFF34
:1027D00001462268681C80B251550A0A2368411CD0
:1027E0001A54A1800120F0BDF0B5069F059E044655
:1027F00000202568297021684A702568190AA97087
:1028000021680425CB707100062A02D0102A17D146
:102810000EE0012E09D00020F0BD2E4623683A5C60
:102820006D1CADB29A55401C80B28142F5D807E0CC
:102830002268300A1071206846712068072581716E
:1028400029462068FFF78EFF01462268681C80B287
:102850005155090A2368421C1954A2800120F0BD79
:10286000F0B5A9B06448FEF7B3F801287ED1FDF7B2
:102870005FFF614D614F287A7978884277D109A846
:102880000790E988E81D085C0602A81D085C06435D
:102890002846891E0830FFF765FF6C7AB04267D181
:1028A000A87A29460602E87A0643087B4A7B00029A
:1028B00010434004050C032C09D0062C22D0803490
:1028C000E2B20223797807A800F009F979E0072E2F
:1028D00011D8002D0FD02A46314602A800F092F8F8
:1028E00002A869080190009133462246797807A82A
:1028F000FFF752FF65E083220323797807A800F0F1
:10290000EEF85EE000203C4909180A7B02A90A544F
:10291000401CC0B20228F6D3002E11D1002D0FD0DA
:102920006946087A497A00020843C1B279700820E2
:10293000385E00900623FB5E0120BA69FEF726F997
:10294000012E20D1002D1ED06946087A497A000256
:1029500008432A4980002C310858B861FFF7E6FE89
:102960002549012201C9FFF7D1FB02E041E03DE02A
:1029700020E00820385E00900623FB5E7978012075
:10298000BA69FEF703F9012E0CD8002D0AD002A86F
:1029900069080190009133462246797807A8FFF72D
:1029A00023FF0EE08034E2B20323797807A800F019
:1029B00096F806E08034E2B20123797807A800F0A7
:1029C0008EF805242407012210212046FEF7A6FADE
:1029D0006846028C08487D23DB0088380799FFF79A
:1029E000DFFB002210212046FEF798FA0248FEF78E
:1029F00021F829B0F0BD00005C0100201400002087
:102A0000FEE70000F0B50023334D0027002905D173
:102A1000002A03D907706B7843700223012914D868
:102A2000934212D20024AD69AC462B4DA6002C3542
:102A3000AD59654503D0641CE4B2082CF5D3C754E6
:102A40005B1CDBB2C4545B1CDBB202290BD8934283
:102A500009D2214C0A342578C5545B1CDBB264785A
:102A6000C4545B1CDBB2032908D8934206D2C75476
:102A70005B1CDBB20124C4545B1CDBB2042908D804
:102A8000934206D2C7545B1CDBB20224C4545B1CC5
:102A9000DBB205290BD8934209D20F4C0C342578B0
:102AA000C5545B1CDBB26478C4545B1CDBB20629E2
:102AB00008D8934206D2C7545B1CDBB20124C4542D
:102AC0005B1CDBB2072905D8934203D2C7545B1CB9
:102AD000D9B24754F0BD000014000020704710B573
:102AE0000468217001684A70026803219370818034
:102AF00010BD704710B5FEF777FCFFF73FF910BD2A
:102B000030B599B034210CA8FDF728FC142107A892
:102B1000FDF724FC182101A8FDF720FC1B480168E3
:102B20000322D2029143C214891801600A250C9530
:102B300001200F9010211091119002201590002477
:102B400016941794400518900CA8FEF7B3FE0028C1
:102B500001D0FDF781FF0F20079003200890099412
:102B60000A940B94012107A8FEF752FD002801D01A
:102B7000FDF772FF01950394059401A8FEF790FC00
:102B8000002801D0FDF768FF19B030BD007000408B
:102B90007047000030B500205D4B01E0401C80B262
:102BA0001918097A2029F9D019180A7A412A02D16C
:102BB000497A542901D0002030BD801C81B201E047
:102BC000491C89B25818007A2028F9D05818027A7E
:102BD0000020C0432B2AEFD1491C89B201E0491CD7
:102BE00089B25A18127A202AF9D05A18147A522C1B
:102BF0000BD1557A452D08D1957A532D05D1D57A2B
:102C0000452D02D1157B542D02D0492C02D004E071
:102C1000012030BD557A442D02D0422C0FD011E056
:102C2000891C89B201E0491C89B25A18127A202AFB
:102C3000F9D05918097A3D29EBD1022030BD557AD7
:102C4000522D02D0432C0FD014E0891C89B201E030
:102C5000491C89B25A18127A202AF9D05918097ACF
:102C60003D29EBD1032030BD557A4C2D02D1957A08
:102C7000542D02D0432C21D026E0C91C89B201E09A
:102C8000491C89B25A18127A202AF9D05A18127A95
:102C90003D2AE8D1491C89B201E0491C89B25A1881
:102CA000127A202AF9D05918097A2B2904D02D2913
:102CB000D9D10320C04330BD042030BD547A4C2C00
:102CC00002D1927A482A01D0002030BDC91C89B2B5
:102CD00001E0491C89B25A18127A202AF9D05A18F0
:102CE000127A3D2AF1D1491C89B201E0491C89B20E
:102CF0005A18127A202AF9D05918097A2B2904D0A7
:102D00002D29E2D10420C04330BD052030BD000094
:102D10005C01002010B5818CC90707D001684A68A2
:102D200001235B049A43836A1A434A60818C8907B2
:102D300007D501684A6801231B049A43C36A1A43F2
:102D40004A60818C490707D501684A6801239B04C2
:102D50009A43036B1A434A60818C090707D50168BF
:102D60004A680123DB039A43436B1A434A60818C10
:102D7000C90607D501688A6801231B039A43836B40
:102D80001A438A60818C890607D501688A68012305
:102D90005B039A43C36B1A438A60818C490612D540
:102DA00001684B6801221205046C934323434B6076
:102DB000016C914207D101684A6803235B059A437D
:102DC000436C1A434A60818C090607D501684A683A
:102DD0000123DB04806C9A4302434A6010BD00006B
:102DE000FEB504462646002780367760FEF79CF83D
:102DF00001902068006825460007603500281BDA2E
:102E0000284800900121002249052046019B00F03E
:102E1000EFFA002810D0EFF31081012080F3108822
:102E20002068026880239A43026081F31088202082
:102E3000E0672F760320FEBD20680068400728D594
:102E4000184800900121002289052046019B00F0CE
:102E5000CFFA00281DD0EFF31081012080F31088F5
:102E600020680268FF2321339A43026081F31088AF
:102E7000EFF31081012080F31088206882685208E7
:102E80005200826081F31088202030602F7603206A
:102E9000FEBD2020E0673060276667662F76002041
:102EA000FEBD0000FFFFFF0110B5806A0022014651
:102EB00040314A834A82FEF767FF10BD10B5EFF339
:102EC0001082012181F3108801680B68FF242134EE
:102ED000A3430B6082F31088EFF31082012181F38A
:102EE000108801688B685B085B008B6082F3108838
:102EF000016E01290AD1EFF3108281F31088016875
:102F00000B681024A3430B6082F3108820228021D9
:102F10000A5000210166816610BD10B5EFF31082E2
:102F2000012181F3108801680B684024A3430B60E2
:102F300082F310882021C1670021C166FFF79AF94A
:102F400010BD000070B5014640318B8B02468032C7
:102F5000156814460268222D04D0906908210843A0
:102F6000906170BD526A456D1A402A80426D921C74
:102F700042654A8B521E4A834A8B002AF1D1EFF3F5
:102F80001083012282F3108802681568FF2621361B
:102F9000B543156083F31088EFF31083012282F3A9
:102FA0001088026895686D086D00956083F310883D
:102FB00020222260002484664466184B02689A42EC
:102FC0000ED053681B020BD5EFF31083012585F358
:102FD000108815680126B606B543156083F310887E
:102FE000026E012A02D0FFF7C5F870BD0466EFF348
:102FF0001083012282F31088026815681024A5430B
:10300000156083F310880268D369DB43DB0600D4C4
:103010001462098BFEF7B6FE70BD00000048004048
:1030200070B5014640318B8B0246803215681446DC
:103030000268222D04D0906908210843906170BD78
:10304000526A1A40436D1A70426D521C42654A8B97
:10305000521E4A834A8B002AF1D1EFF310830122DA
:1030600082F3108802681568FF262136B543156083
:1030700083F31088EFF31083012282F31088026833
:1030800095686D086D00956083F31088202222609A
:10309000002484664466184B02689A420ED0536836
:1030A0001B020BD5EFF31083012585F310881568FB
:1030B0000126B606B543156083F31088026E012A17
:1030C00002D0FFF757F870BD0466EFF310830122BA
:1030D00082F31088026815681024A543156083F3F5
:1030E00010880268D369DB43DB0600D41462098BC5
:1030F000FEF748FE70BD000000480040F8B50446E9
:1031000000257D4B20682269A168E6691143626948
:10311000324311430268794E32400A43026020680C
:103120004168032212039143E26811434160A069A0
:103130002168994201D0226A10438A680B26360220
:10314000B24302438A606E4922686E488A4213D1B4
:10315000C0680C21084007D0042809D0082805D0F1
:103160000C2807D0102721E000271FE002271DE0D0
:1031700004271BE0082719E09A4216D1C0680321F2
:10318000890208400BD001218902401A0BD0401A55
:1031900007D0884201D1082708E0102706E0002761
:1031A00004E0022702E0042700E0102755495648B2
:1031B000403986009A4236D1002F13D0022F14D006
:1031C000042F17D0082F18D000200125002808D080
:1031D000626851005118814202D8110381420FD216
:1031E000012583E0FEF7FCFAF0E70968C906EDD493
:1031F0003046EBE7FEF714FBE8E70120C003E5E704
:10320000010E06025008002330185941FCF7E4FF74
:10321000032109023D4A411A914202D82168C8603F
:1032200064E0012562E00122E369D203934231D1D7
:103230003B0000F045F90906090C16111616161484
:103240001600FEF7CDFA0EE0FEF7DAFA0BE0096899
:10325000C90608D4304606E0FEF7E2FA03E010465D
:1032600001E000200125002840D0616840004A08A4
:103270008018FDF775F80146254A1039914207D8A4
:10328000511C01400007420F0A432068C2602DE034
:1032900001252BE03B0000F013F90906090C16117B
:1032A000161616141600FEF79BFA0EE0FEF7A8FAA3
:1032B0000BE00968C90608D4304606E0FEF7B0FA0C
:1032C00003E0104601E00020012500280ED06168CF
:1032D0004A081018FDF744F801460D4A103991428A
:1032E00003D8216880B2C86000E001250020A066F4
:1032F000E0662846F8BD000000480040F369FFEF93
:10330000004400404010024000093D00FFFC0F0057
:10331000EFFF000070B54165014640310A834A83E2
:1033200000238366012482682403FF25A24207D17B
:103330000269002A01D08D8319E02A4A8A8316E0A7
:103340007F26002A09D001252D07AA420ED1026945
:10335000002A09D03F228A8309E00269002A01D0AD
:103360008E8304E08D8302E08E8300E08B83014630
:1033700080314B6022220A60EFF31082012181F339
:10338000108801688B6801252B438B6082F31088BD
:103390008168A14202D10169002912D012498166D7
:1033A0000169002910D0EFF31081012282F3108807
:1033B00000680268FF2321331A43026081F31088FA
:1033C0000EE00A498166EBE7EFF31081012282F3F8
:1033D00010880068026820231A43026081F3108875
:1033E000002070BDFF01000021300008452F0008BB
:1033F000FFB581B00A9D04462646803627466037D1
:1034000030E0681C2ED0FDF78FFD0499401AA842C9
:1034100015D8002D13D020680168490722D5C1694D
:10342000C94309070DD42068082505622046FFF727
:1034300045FD756000203876012005B0F0BD032001
:10344000FBE7C069C04300050CD401202168C0021D
:1034500008622046FFF732FD202070600020387699
:103460000320EAE72068C1690298884305D000205C
:1034700003998842C5D00020DFE70120F8E700006B
:1034800010B50248FEF782FC10BD0000D4000020F9
:10349000F8B5040C8BB2264682B25E430D0C104682
:1034A000370C5843360480190021794116466E4383
:1034B000370C36048019794126466E438919F8BDC8
:1034C00030B47446641E2578641CAB4200D21D469D
:1034D000635D5B00E31830BC184700008307FF22E0
:1034E000DB0E9A408907090E9940002808DB830803
:1034F00009489B001818036893430B430360704707
:103500000007000F0838830804489B001818C36997
:1035100093430B43C361704700E400E000ED00E01B
:103520003748054688352C462860FDF765FFFFF7CC
:10353000E7FAFFF795F8FFF7B7F8FFF7F7F8FFF7A7
:10354000DFF80122211D2068FEF7E0FD2D4C6069A7
:10355000FDF79AFAC0B2207000281AD06069001DE9
:10356000FDF792FA607060690830FDF78DFAA0618E
:1035700060690C30FDF788FAE08060691030FDF773
:1035800083FA2081FFF7D2F8291D01222868FEF76F
:10359000BDFD0025FF26F5362BE02561FDF7C4FCB7
:1035A0002169401AB0421ED9164A1548121D911EB3
:1035B0006438FEF761FE012802D1FF206080A08000
:1035C0006088E18840186080A18822898918A180DC
:1035D0000C4A03120A3213705070901C057041702F
:1035E000FDF7A2FC2061FFF73BF905481038FDF715
:1035F000F3FEFDF799FC21698842CFD2CDE70000A8
:10360000D40000201400002070B5052424070122F6
:1036100010212046FDF782FC0B48FCF75FFE7D255C
:1036200082B2ED002B4608490848FEF7B9FD2B464B
:10363000022207A10548FEF7B3FD00221021204613
:10364000FDF76CFC70BD000030000020D4000020AD
:103650000D0A000070B50524240701221021204620
:10366000FDF75CFC0B48FCF739FE7D2582B2ED00CE
:103670002B4608490848FEF793FD2B46022207A176
:103680000548FEF78DFD002210212046FDF746FC7F
:1036900070BD000036000020D40000200D0A00009C
:1036A00070B501250400ED074C4020D4441A01D226
:1036B000001B0919C60D4B00F2B2FF2A29D01B0EC0
:1036C0002CD000020C02D31A2C43DC4028430519ED
:1036D00010D2280A02D3401C6D0611D0761EF605C2
:1036E0008019FF2A00DA70BDC00DC00570BD6940A9
:1036F00000F07AF801200543C541521C761CE8E72A
:1037000064089C40C90161408900E7D10124A043BD
:10371000E4E71B0E440200D0034870BD002AFCD130
:10372000C00FC00770BD00BF0000C07F70B5420071
:1037300064414B005C41120E39D01B0E38D0FF2A79
:103740003CD0FF2B3AD040024902400A490A060009
:1037500045184E43000A090AD2184843ED017F3A42
:103760000104731A4019190C4318990F04D0012150
:103770005B0849075B1A521CD80904D3401CF503A7
:1037800001D19D0607D0FF2A08D2D50506D0E4074F
:103790002043401970BD0125A843F4E7002A01DC4D
:1037A000E00770BD2402FF202043C00570BD1B0E42
:1037B000FF2A03D0FF2B01D0E00770BDFF26450094
:1037C0003606B54206D84D00B54203D8D218FF2AB6
:1037D00000D0E7E7004870BD0000C07F70B501254C
:1037E0000400ED074C4022D4441A02D26C40001B66
:1037F0000919C60D4B00F2B2FF2A4BD01B0E50D058
:1038000000020C02D31A2C43DC40A843051B05D54B
:10381000AD0019D36D08761E521E37D0F605280A62
:1038200001D2801970BD70416D0603D070BD694032
:10383000FFF73CFF9C4009026140490001D0401E57
:1038400070BD0124A04370BD6D081DD001202B0C5C
:1038500001D12D0410302B0E01D12D0208302B0F79
:1038600001D12D01001DAB0F01D1AD00801CEB0F6C
:1038700001D16D00401C6D00361A121A680AF50558
:103880004019012A02DB70BD002070BDC036300A2D
:10389000C00770BD1B0E440201D1FF2B00D10248AE
:1038A00070BD002AF0D070BD0000C07F0000000095
:1038B00000000000010203040607080903040608CB
:1038C0000C101820300000000001020304818283E4
:1038D0008485868788898B8C8D8E8F91929395961F
:1038E00097999A9C9D9FA0A2A3A5A7A8AAACAEB0A9
:1038F000B2B3B5B7B9BCBEC0C2C5C7C9CCCED1D4AE
:10390000D7D9DCDFE2E6E9ECF0F3F7FAFE000000DD
:103910003039000800000020700000000401000899
:10392000A039000870000020800700002001000876
:103930000000000000FC7F460000000000000000C6
:1039400000000000001AFF00FF000000000000005F
:103950000000000000000000003C000800C2010060
:103960004552524F520053554343455353000000B4
:10397000B004000060090000C012000080250000B3
:10398000004B00000096000000E1000000C20100B2
:103990000100000004000000000000000000200002
:04000005080000C12E
:00000001FF
