:020000040800F2
:100000000008002065010008D1290008B523000878
:1000100000000000000000000000000000000000E0
:10002000000000000000000000000000BB2A0008E3
:100030000000000000000000912A0008B92B000811
:100040009501000895010008950100089501000838
:100050009501000895010008950100089501000828
:1000600000000000950100089501000895010008B6
:1000700095010008950100080000000095010008A6
:100080000000000000000000000000000000000070
:100090009501000800000000000000009501000824
:1000A00000000000950100080000000000000000B2
:1000B000493400089501000800000000000000001D
:1000C00000F002F800F03EF80CA030C80838241800
:1000D0002D18A246671EAB4654465D46AC4201D180
:1000E00000F030F87E460F3E0FCCB6460126334274
:1000F00000D0FB1AA246AB46334318470438000031
:1001000024380000103A02D378C878C1FAD85207D0
:1001100001D330C830C101D504680C6070470000BD
:100120000023002400250026103A01D378C1FBD813
:10013000520700D330C100D50B6070471FB51FBDFB
:1001400010B510BD00F0C1FA1146FFF7F7FF03F03C
:10015000EDF900F0D9FA03B4FFF7F2FF03BC00F0A9
:10016000DFFA00000F4880F308880F480168090E85
:100170000E4A914205D10E480E4901600E480F49C2
:1001800001600F4880470F480047FEE7FEE7FEE7A3
:10019000FEE7FEE7FEE700000B480C490C4A0D4B5A
:1001A0007047000000080020040000001F0000004D
:1001B0003410024001000000000001400000000077
:1001C000552C0008C1000008000200200008002093
:1001D0000004002000040020FEB5054610460C4631
:1001E000184373D0AE468C460020AD1A01469C41A0
:1001F00067D36646002701243D46B61A9D4102D3C7
:1002000013463A462124654676462F04360C3E4373
:100210002D0CB61A9D4104D3150C1B042B4312045C
:100220001034654676462F06360A3E432D0AB61A26
:100230009D4104D3150E1B022B4312020834654660
:1002400076462F0736093E432D09B61A9D4104D341
:10025000150F1B012B431201241D65467646AF077F
:10026000B6083E43AD08B61A9D4104D3950F9B00D6
:100270002B439200A41C65467646EF0776083E4362
:100280006D08B61A9D411AD392185B41641C16E0A2
:100290000018764665464941B71A9D410191009084
:1002A00009D36046B11A98418E4684460098019958
:1002B0000025401C6941DD0752082A435B08641E83
:1002C000E6D57246634603B0F0BDFFE70020014665
:1002D000C046C0462A462346F5E7000030B5441C18
:1002E00003E00178401C00290DD08107F9D10B4BA8
:1002F000DD0104C8D11A91432940FAD0001B0A0637
:1003000003D0C01E30BD001B30BD0A0401D0801ECA
:1003100030BD0902FCD0401E30BD000001010101CA
:1003200001E004C0091F0429FBD28B0701D502801C
:10033000801CC90700D00270704700290BD0C3078A
:1003400002D00270401C491E022904D3830702D543
:100350000280801C891EE3E70022EEE70022DFE72F
:10036000002203098B422CD3030A8B4211D30023B2
:100370009C464EE003460B433CD4002243088B428C
:1003800031D303098B421CD3030A8B4201D3944619
:100390003FE0C3098B4201D3CB01C01A524183090C
:1003A0008B4201D38B01C01A524143098B4201D3C6
:1003B0004B01C01A524103098B4201D30B01C01AF1
:1003C0005241C3088B4201D3CB00C01A524183086B
:1003D0008B4201D38B00C01A524143088B4201D398
:1003E0004B00C01A5241411A00D2014652411046F8
:1003F00070475DE0CA0F00D04942031000D340426D
:10040000534000229C4603098B422DD3030A8B42A2
:1004100012D3FC22890112BA030A8B420CD3890140
:1004200092118B4208D3890192118B4204D3890126
:100430003AD0921100E08909C3098B4201D3CB0164
:10044000C01A524183098B4201D38B01C01A524119
:1004500043098B4201D34B01C01A524103098B421D
:1004600001D30B01C01A5241C3088B4201D3CB0008
:10047000C01A524183088B4201D38B00C01A5241EB
:10048000D9D243088B4201D34B00C01A5241411AC2
:1004900000D20146634652415B10104601D34042F0
:1004A000002B00D54942704763465B1000D34042A1
:1004B00001B50020C046C04602BD70477047704776
:1004C000F0B5FF252D04C609C209FF2704462E40BA
:1004D0000137CB093E4348402A402B400746002ABB
:1004E0006BD0002B69D0AA4267D0AB4265D0002800
:1004F00000DA32460125ED0529432C43090220028A
:10050000090AD21A4B0C7F24E31A434C000A7C449C
:10051000E35C7D242404121914145B00A2188842A1
:1005200001D3521C00E0400049420C465C432411B8
:100530005C43DB016415E318040A5C43C502200D2B
:100540000C4644436419250A5D432303EC0C0D4615
:10055000654300030019EB184C42A34201D35B181A
:10056000401CD4052018002B07D05B00C91804D309
:10057000401C002901D1400840003F2189048A42E3
:1005800009D3002A08DC1106090F04D0032149070A
:100590004018C00FC007F0BD0122410012068918A3
:1005A0007F2252069142F6D205214907C84201D561
:1005B0009010F0BDFF20C005F0BD002F00DA3246DC
:1005C0001648AA4207D2AB4205D21902090E17D02B
:1005D000F80FC007F0BDFF2563002D06AB42F9D828
:1005E0004900A942F6D8AB4201D1A942F2D0A942B2
:1005F00001D1002101E061004908D0050843F0BDA8
:100600001102090EFBD0FF200243D005F0BD0A46BF
:100610000146104654E70000AB3300000000C07FE5
:1006200010B501469E240002CA15A307002A02D075
:100630001843002A04DBA21A002A0CDDD04010BDAA
:100640001206120E01D140004008A21A03D4D04075
:1006500040420028F3DDFF2248001206904201D9F3
:10066000002010BDC817C043584010BD1F22030C06
:1006700002D10F2200041CD0030E01D10002083A5F
:10068000030F01D10001121F830F01D18000921EC0
:10069000002801DB4000521ED205511802125118E9
:1006A0001922904004D3491C002801D1490849006F
:1006B00008467047C10FC90700D040420122920787
:1006C0001143D3E701218907D0E7754600F024F8EC
:1006D000AE46050069465346C008C000854618B0BE
:1006E00020B5FFF759FD60BC00274908B646002633
:1006F000C0C5C0C5C0C5C0C5C0C5C0C5C0C5C0C5D2
:10070000403D49008D46704710B50446C046C0467E
:100710002046FFF720FD10BD004870479C010020D7
:1007200001491820ABBEFEE726000200704700001A
:10073000FFB589B001206946129E087008710872E1
:100740001F460873002B02DA784280B200E0B8B28C
:100750000590002E02DA704280B200E0B0B2049040
:1007600068460A9900F00EFB01A80B9900F00AFBFD
:1007700002A8059900F006FB03A8049900F002FB0B
:100780004F4849210170462141703D2181706946E1
:100790000978C91CCDB2691ECCB20DE00A210A98B5
:1007A000FFF7DEFD464A303111550A90069869463A
:1007B000401E641E0870E4B2684600780690002867
:1007C000ECD13F492C204855684600792818401C38
:1007D000C4B2601EC5B207900DE00A210B98FFF766
:1007E000BFFD374A303151550B9006986946401E7F
:1007F0006D1E0871EDB26846007906900028ECD1B4
:100800002C202F49002F085501DA2D2002E0002F5F
:1008100003DD2B200A19507001E00798C4B2684626
:10082000007A2018801CC4B2601EC5B206900CE08D
:100830000A210598FFF794FD214A303151557F1E5A
:10084000059068466D1E0772EDB26846077A002F64
:10085000EED12C201A4D002E285501DA2D2002E071
:10086000002E03DD2B202919487001E00698C4B240
:100870006846007B2018801CC4B2601EC6B20BE024
:100880000A210498FFF76CFD3031A9557F1E0490B2
:100890006846761E0773F6B26846077B002FEFD1D5
:1008A0002020152C03D22855641CE4B2F9E70998DE
:1008B00002F02EF9099802F055F90DB0F0BD0000D4
:1008C00080000020FFB581B01F461646044602F0A6
:1008D000C2F90546401C02D0012D04D021E020467B
:1008E00002F0ECF81DE002981A210170E1204002AC
:1008F0003060204602F036F92046316802F0ACFD47
:100900000122211D206801F03FFC0A980021415E70
:100910000091029800230178FB5E3268A52000F068
:10092000FDF9A81C02D0022D0DD05BE00A99002031
:10093000085E0090029800230178FB5E3268204632
:10094000FFF7F6FE68E00620002106E0401C491C87
:10095000E288C0B2C9B2824204D02218127A303A78
:10096000092AF3D9401EC2B2481E022837D80020F7
:10097000012904D0022906D0032923D00DE0A018B4
:10098000007A303808E0A018017AC0790A22504372
:1009900021221201801A20E080B2411EFE291ED8B9
:1009A00002990870204602F0DDF80A980021415EA5
:1009B0000091029800230178FB5E3268A52000F0C8
:1009C000ADF90FE0A018C179027A0A2359435118F2
:1009D000807964225043684A80180818DCE7204672
:1009E00002F06CF8032D15D10620002106E0401C12
:1009F000491CE288C0B2C9B2824204D02218127ADD
:100A0000303A072AF3D9401EC0B2012907D0204648
:100A100002F054F8042D23D0281D21D072E02018B4
:100A2000007A564930380006800D0858306020465C
:100A300002F098F82046316802F00EFD0122211DD7
:100A4000206801F0A1FB0A980021415E0091029804
:100A500000230178FB5E3268A52000F05FF9D9E73A
:100A60000820002106E0401C491CE288C0B2C9B23F
:100A7000824204D02218127A303A092AF3D9401E51
:100A8000C2B2481E02283AD80020012904D0022907
:100A900006D0032911D00DE0A018007A303808E004
:100AA000A018017AC0790A22504321221201801A2B
:100AB0000EE080B2042D0DD00DE0A018C179027AAD
:100AC0000A23594351188079642250432A4A8018D6
:100AD0000818EEE73880291D01D1404238802046B1
:100AE00002F040F80A980021415E0091029800232C
:100AF0000178FB5E3268A52000F010F902E0204684
:100B000001F0DCFF052D01D0681D15D10820002162
:100B100006E0401C491CE288C0B2C9B2824204D03F
:100B20002218127A303A092AF3D9401EC0B201299C
:100B300004D0204601F0C2FF05B0F0BD2018007AB5
:100B40003038C0B2052D01D10A9908806D1D02D13F
:100B500041420A980180204602F004F80A980021D8
:100B6000415E0091029800230178FB5E3268A52067
:100B700000F0D4F8E0E7000030EBFFFF2000002099
:100B800070B50446C0880025124E00281ED070881B
:100B9000002806D100F09AFA7060E08830800120C9
:100BA000708000F093FA7168401A092810D9708893
:100BB00001280DD1E0883188884201D1012507E064
:100BC00000F084FA7060E088308001E000207080DE
:100BD000284670BD080000200022C2800271114624
:100BE0004318491C1A721429FADB704710B50849DA
:100BF00000234B6107494A684C1522434A604A6802
:100C0000082422434A60C009C001036010BD0000EF
:100C100084010020002002400068704710B5214A7E
:100C200000209169CB05204904D548690223184367
:100C30004861901593699B0505D54B6901242343B1
:100C40004B616302184393695B0505D54B69082422
:100C500023434B61E301184393691B0505D54B6999
:100C6000042423434B616302184393699B0405D515
:100C70004B69102423434B616302184393699B0320
:100C800004D54C6920231C434C6118439369DB0352
:100C900005D54B69402423434B61A1020843906171
:100CA00010BD0000002002408401002070B5044601
:100CB00000F00CFA0546184E0AE0601C08D0002C23
:100CC00004D000F003FA401BA04201D9032070BDFC
:100CD000B069C007F1D1B069800701D50220B061C9
:100CE000B069C00511D4B06980050ED4B069400563
:100CF0000BD4B069000508D4B069800405D4B0698C
:100D0000800302D4B069C00303D5FFF787FF012039
:100D100070BD002070BD000000200240FFB585B00E
:100D20000D4606460E9F00F0FDF800200821144CE9
:100D3000009002910390019403A9684600F08CF89A
:100D400032462146022000F0CFF82A46211D02201B
:100D500000F0CAF80A4902200831079A00F0C4F8E6
:100D6000074902200C31089A00F0BEF804493A46BF
:100D70001031022000F0B8F800F0A8F809B0F0BD7A
:100D8000003C000810B50A46044607E020780A2116
:100D9000401C20701046FFF7E3FA02460A2AF5D2FB
:100DA00010BD30B5014620314A790023022A04D013
:100DB0000422C2630B71012030BD026814680E2545
:100DC000AC43146002681468640864001460446CE6
:100DD0001C22144001252A46006CA24042604D713D
:100DE0000B71184630BD70B50024014620314A7998
:100DF000022A03D00421C163012418E002681368A9
:100E00000E25AB431360026813685B085B00136038
:100E1000436C1C22134001252A469A40036C5A60F9
:100E20004D7100220A71816B002900D0884720464D
:100E300070BD000070B5044600F048F90546601C1E
:100E400002D004480078241800F040F9401BA0426A
:100E5000FAD370BD70000020F8B5194F0546387CF4
:100E60000E46012807D0012038741648FFF71EFFF0
:100E7000002802D020E00220F8BD0021C9433160E3
:100E80006C6813E02046FFF7B1FE0E48FFF70EFF37
:100E90000D494A6808239A434A604A684B159A43A9
:100EA0004A60002801D0346006E08034A9686A688E
:100EB000C9018918A142E5D800213974F8BD0000A4
:100EC0008401002050C30000002002400548416812
:100ED0000222114341604168012211434160002018
:100EE0007047000000200240F8B50C4C1646207CEC
:100EF0000F46012808D0012020740948FFF7D6FECC
:100F00000025002802D006E00220F8BD65613E60A1
:100F10000348FFF7CBFE2574F8BD000084010020D4
:100F200050C3000011484168C9070BD0EFF310818E
:100F300072B60F4AC2600F4AC26081F310884168DE
:100F4000C9070ED1416889070DD5EFF3108172B63C
:100F5000094A0261094A026181F3108840688007EA
:100F600001D501207047002070470000002002409A
:100F7000EFCDAB8905040302BFAE9D8C161514138B
:100F8000F0B500228CE0012797403B407ED00C79E1
:100F9000A407A40F012C01D0022C10D185685400A5
:100FA0000326A640B543CE68A6402E43866044681B
:100FB0000D79BC43ED06ED0F9540254345600C7956
:100FC000E443A40708D0C56854000326A640B543EF
:100FD0008E68A6402E43C6600C79A407A40F022C8D
:100FE0000CD1D408A40027183D6A5407E40E0F263C
:100FF000A640B5430E69A6402E433E6205685400E4
:101000000326A640B5430E79B607B60FA6402E4379
:1010100006604C68A403A40F41D0244C666B0125E4
:101020002E4366639508224CAD002F19BD689407C6
:10103000240F0F26A640B54305263607B04201D13E
:1010400000260AE01B4EB04201D1012605E01A4EEF
:10105000B04201D1022600E00626A6402E43BE6023
:10106000164DAC684E689C43F60200D51C43AC603C
:10107000EC684E689C43B60200D51C43EC606C687B
:101080004E689C43B60300D51C4300E007E06C604B
:101090002C684E689C43F60300D51C432C60521C00
:1010A0000B681C46D44000D06DE7F0BD0010024034
:1010B00000000140000400500008005000040140FE
:1010C000002A01D0816170478162704701488068C1
:1010D000704700007000002070B50246403253781F
:1010E000202B1CD11378012B19D001241470242338
:1010F000537003681D68A5431D6003681D682603BF
:10110000B5431D6003681D680D431D6000680168DC
:1011100021430160202050700020107070BD02201B
:1011200070BD70B5024640325378202B1BD1137826
:10113000012B18D0012515702423537003681C68F7
:10114000AC431C6003681C680F263602B4430902D6
:101150002143196000680168294301602020507014
:101160000020107070BD022070BD000070B504003A
:1011700006D02546403568780026002802D005E0D4
:10118000012070BD2E70204600F05AF924206870AE
:10119000206801684908490001600F21606809065C
:1011A000884321680861206882680121C9038A4355
:1011B0008260E0680128A06808D0212292021043D2
:1011C00022689060E068022802D005E00843F7E753
:1011D00001202268C0025060206842680F4B1A4309
:1011E00042602068C2688A43C2606169206908431E
:1011F000A169090208432168C860216AE0690843BF
:10120000216808602068016801221143016066645A
:10121000202068702663AE70002070BD0080000240
:10122000FFB5054604464035687881B0202878D15E
:101230002878012875D001202870FFF747FF07465E
:10124000012200901923D103204601F05FF9002804
:101250003CD1222068701020A87000266664039894
:101260006062049860856663618D2F48FF2903D909
:10127000FF22228500903BE0618D218500903DE0BA
:101280002046029901F02CF916E001F071F90028CE
:101290001CD12068406A616A0870606A401C606204
:1012A000208D401E80B22085618D491E6185618D33
:1012B000002901D000280CD0608D0A9900283A46F8
:1012C0002046E2D101F0A4F900281CD0012005B08D
:1012D000F0BD00970022802120460A9B01F016F9FC
:1012E0000028F3D1608DFF2805D9FF2222850096C2
:1012F00001231B06C4E7608D20850096208D012305
:10130000C2B25B06BCE720682022C2612068416847
:10131000064B194041606A70AE702E700020D6E70F
:10132000FFE70220D3E700000024008000E800FE71
:10133000FFB5054604464035687881B0202878D14D
:101340002878012875D001202870FFF7BFFE0746D6
:10135000012200901923D103204601F0D7F800287C
:101360003CD1212068701020A87000266664039884
:101370006062049860856663618D2F48FF2903D9F8
:10138000FF22228500903BE0618D218500903DE0A9
:101390002046029901F0A4F816E001F064F9002853
:1013A0001CD1606A216800788862606A401C6062B3
:1013B000608D401E6085208D401E80B22085618D2D
:1013C000002901D000280CD0608D0A9900283A46E7
:1013D0002046E2D101F01CF900281CD0012005B004
:1013E000F0BD00970022802120460A9B01F08EF874
:1013F0000028F3D1608DFF2805D9FF2222850096B1
:1014000001231B06C4E7608D20850096208D0123F3
:10141000C2B25B06BCE720682022C2612068416836
:10142000064B194041606A70AE702E700020D6E7FE
:10143000FFE70220D3E700000020008000E800FE64
:1014400010B586B0044614216846FEF787FF11499F
:10145000206888421BD1104CE16A01200143E162FF
:10146000E16A049001400591032149020091122193
:101470000191002102910321039105206946000793
:10148000FFF77EFDA06B012149050843A06306B06C
:1014900010BD0000005400400010024070B5040070
:1014A0000FD021681548086021681548086003CCF2
:1014B00041602068083C21688860FFF707FE054608
:1014C0000CE0012070BDFFF701FE401B2A2805D962
:1014D0002068C068400701D0032070BD2068C06844
:1014E0004007F0D120680269E1688A4201D00161B9
:1014F00001E004490160002070BD0000CCCC000078
:1015000055550000AAAA00000068024901600020A9
:1015100070470000AAAA0000024881680278891872
:10152000816070477000002010B5084800240168F1
:10153000402211430160204600F00AF8002801D043
:10154000012401E000F026F8204610BD00200240F2
:1015500070B504460D4D7D202978C000FEF700FFD0
:1015600001460B480068FEF7FBFE00F02BFC00284C
:1015700009D1042C07D200222146401E00F022F897
:1015800000206C6070BD012070BD00007000002064
:101590007C0000200448416B012211434163816BB0
:1015A000020411438163704700100240002805DBEC
:1015B000C106C90E0120884001490860704700003B
:1015C00000E100E010B501F08FFF10BDF8B5044652
:1015D00000780026544D80067CD553484038806BF7
:1015E000C00006D450484038826B01040A4382632D
:1015F00001264E480168C90510D4016882151143BF
:101600000160FFF763FD074604E0FFF75FFDC01BC5
:1016100064283AD845480068C005F6D542484038A5
:101620000168032212056068114002408A420AD014
:101630008103890F032906D13B4940390968890391
:1016400001D50120F8BD2A69032109040A4021D0EF
:10165000084090421ED02078800633D528692A6938
:1016600088430121C9040A432A612A698A432A61FD
:101670002861C0050ED5FFF729FD074607E0FFF7F3
:1016800025FDC11B2A48814201D90320F8BD2869E4
:101690008005F4D52078800614D560688103890F11
:1016A000032908D1204B403B1968032212059143BE
:1016B0001040014319602869032261681204114037
:1016C00008432861002E05D017484038826B01047A
:1016D0008A4382632078800705D5E8680C21884317
:1016E000A1680843E8602078400706D5E868032130
:1016F00089028843E1680843E8602078000706D53E
:10170000E86803210903884321690843E8602078D9
:10171000000606D5E8680321890488436169084307
:10172000E8600020F8BD000040100240007000405A
:1017300088130000F8B50E46040038D05E480068F3
:10174000C007C00FB04214D25B4F38684008400059
:1017500030433860FFF7BAFC054605E0FFF7B6FCFA
:10176000411B564881427AD83868C007C00FB04242
:10177000F4D12078524F800705D5F868F0218843CE
:10178000A1680843F8602078C00752D0606802283A
:1017900006D0032807D0396801280AD0890504E05B
:1017A0003968890301E039688901002903DB0120D8
:1017B000F8BD4907F9E7F968890889000143F9602C
:1017C000FFF784FC0546606802280AD0032814D07D
:1017D00001281ED029E0FFF779FC411B37488142E0
:1017E0003DD8F8680007800F0228F4D121E0FFF708
:1017F0006DFC411B3148814231D8F8680007800FE9
:101800000328F4D115E0FFF761FC411B2B4881420E
:1018100025D8F8680007800F0128F4D109E0FFF708
:1018200055FC411B2548814219D8F8680007800FF4
:10183000F5D121480168C907C90FB14217D901681C
:101840004908490031430160FFF740FC054608E0C4
:1018500005E0FFF73BFC411B1848814201D90320FA
:10186000F8BD15480068C007C00FB042F1D120781C
:10187000400706D5F868072109028843E168084354
:10188000F8602078000707D5F8680721C902884367
:101890002169C9000843F86000F03AF8F968094A7C
:1018A0000906090F515CC8400749086007480068ED
:1018B000FFF74EFEF8BD0000002002408813000034
:1018C000001002409C3800087C00002074000020BA
:1018D000044805490068C968044A4905490F515C34
:1018E000C84070477C00002000100240B538000856
:1018F000044805490068C968044A8904490F515CD5
:10190000C84070477C00002000100240B538000835
:1019100070B51B4EF2680C211046084019498B0027
:1019200004280CD04D00082810D00C2810D0706866
:101930000004410F0120C003491C884070BD30687D
:10194000C00601D5084670BD184670BD284670BD5A
:1019500090020D4C000F205C1202940FF268641C80
:10196000D20301D5294603E03268D20600D41946D5
:1019700001F094FD22460023FEF72EFC70BD00000E
:101980000010024000093D00AC380008FEB504001C
:101990007ED0FE4DEE680C20EF680640012000046A
:1019A00007402078C00747D0082E05D00C2E0AD15A
:1019B00001200004874206D1286880033CD5606876
:1019C0000028E5D038E0012061680004814203D19D
:1019D00029680143296011E0052301221B049204B8
:1019E0009942296802D111432960F1E781432960B6
:1019F00029680140009128689043286060680028A9
:101A00000DD0FFF763FB009005E0FFF75FFB009947
:101A1000401A64287ED828688003F6D50CE0FFF7CA
:101A200055FB009005E0FFF751FB0099401A642830
:101A3000F0D828688003F6D4207880075ED5E06867
:101A4000810604D52A6820210A432A608843092197
:101A5000042E0DD00C2E01D1002F09D000283DD02E
:101A60002A688A4302432A60FFF730FB074629E0D1
:101A70002A68520701D500288AD06A681F231B02F2
:101A80009A4323691B021A436A602A688A4300E06A
:101A900092E102432A60FFF73BFF0146E868000637
:101AA000020FBB48805CC140BA480160BA48006878
:101AB000FFF74EFD002873D120E0FFF707FBC01BA6
:101AC0000228A7D828684007F7D568681F210902AF
:101AD000884321690902084368600FE028684008CC
:101AE00040002860FFF7F2FA074604E0FFF7EEFA3D
:101AF000C01B02288ED828684007F7D42078C0067B
:101B00005DD5002E0CD0A06900282868A34948D0D4
:101B1000084300E0C3E02860FFF7D8FA07462DE04D
:101B20002868800502D5A0690028A5D0686807212B
:101B300049038843216A084368606868217F00027E
:101B4000000A090608436860206A410B0120C003AF
:101B5000491C8840E96809060A0F8D49895CC8401C
:101B60008C4908608C480068FFF7F2FC002817D108
:101B700025E0FFF7ABFAC01B0228A2D82868800531
:101B8000F7D56868072149038843216A08436860DC
:101B90006868217F0002000A0906084368600EE0B9
:101BA000DFE088432860FFF791FA074604E0FFF77B
:101BB0008DFAC01B022872D828688005F7D42078D7
:101BC000774F000724D560690028386910D00121BB
:101BD00008433861FFF77AFA009005E0FFF776FADC
:101BE0000099401A02285AD838698007F6D50FE0C4
:101BF000400840003861FFF769FA009005E0FFF700
:101C000065FA0099401A022849D838698007F6D445
:101C10002078400766D500200190A86BC00006D44C
:101C2000A86B012109070843A863012001905D48C2
:101C30000168C90512D4014608688A151043086076
:101C4000FFF744FA009005E0FFF740FA0099401AC8
:101C5000642824D853480068C005F5D54F48A268C9
:101C6000824203D139690143396111E001218902BE
:101C7000002A07D005231B029A4203D13A690A437E
:101C80003A61EFE73A6982433A61386988433861DB
:101C9000A068002810D0FFF719FA009008E05FE074
:101CA000FFF714FA01460098091A3F48814257D8B5
:101CB00038698005F4D50DE0FFF708FA009006E0DA
:101CC000FFF704FA0099411A3748814248D8386929
:101CD0008005F5D40198002804D0A86B01210907DC
:101CE0008843A863606A002868D00C2E3ED0012784
:101CF0003F060228286805D0B8432860FFF7E6F9B8
:101D000004462FE0B8432860FFF7E0F9064604E0F8
:101D1000FFF7DCF9801B022822D828688001F7D45D
:101D2000E16AA06AEA680843216BFD231B049A4319
:101D300011430843E860286838432860FFF7C6F974
:101D4000044604E0FFF7C2F9001B022808D82868FF
:101D50008001F7D532E0FFF7B9F9001B022801D95D
:101D60000320FEBD28688001F5D427E00128F8D0C3
:101D7000E86801210904A26A014091421CD10F21A7
:101D80008904E26A0140914216D10FE0001002403E
:101D90009C3800087C000020740000200001000036
:101DA00040100240007000408813000003218905A4
:101DB0000840216B884201D00120FEBD0020FEBDFD
:101DC00070470000094910B5401E884201D9012022
:101DD00010BD074C60610321081F01F085FB002046
:101DE000A06107202061002010BD0000FFFFFF0060
:101DF00000E000E010B5FFF7E3FF10BD704770474B
:101E000070470000F8B502680446D069116893680D
:101E1000A44D06462E4025468035002E71D0A24F97
:101E2000DE07F60F0F4037437ED0C70706D0CF0539
:101E300004D5012717626A683A436A60820708D5A9
:101E4000DA0706D0276802223A626A6804273A4312
:101E50006A60420708D5DA0706D0236804221A62AE
:101E60006A6802231A436A60020709D520220A40E1
:101E7000324305D0236808221A626B6813436B60F3
:101E8000020509D54A0107D501222368D2021A6248
:101E90006A6820231A436A606A68002A39D080067B
:101EA00006D5880604D5A16E002901D020468847B2
:101EB000686821688968490602D4282108422DD023
:101EC000204601F019F820688168490622D5EFF311
:101ED0001081012282F31088826840239A43826035
:101EE00081F31088606F002814D070498163606F9F
:101EF000FEF779FF00280CD0606F816B08E000E0EE
:101F000012E0860610D58E060ED5A16EAFE02046F3
:101F10008847F8BD2046FFF773FFF8BD2046FFF75E
:101F20006FFF00206860F8BD266E012E7ED1C606C8
:101F30007CD5CE067AD510231362206881682646A8
:101F400049064036002949DA626F11684968090478
:101F5000090CE8D0378B8F42E5D971831168096885
:101F6000890634D4EFF31081012282F310880268CD
:101F70001F01BA43026081F31088EFF31081012042
:101F800080F310882068826852085200826081F3D2
:101F90001088EFF31081012080F310882068826898
:101FA0004027BA43826081F31088202028600020F7
:101FB0002066EFF31081012080F31088206802680A
:101FC0009A43026081F31088606FFEF7EAFE0220F8
:101FD0006066308B718B401A81B234E0318B728B2A
:101FE000891A728B89B2002A9DD000299BD0EFF309
:101FF0001082012686F310880668FF272137BE432A
:10200000066082F31088EFF31082012080F31088BD
:102010002068866876087600866082F31088202023
:10202000286000202066EFF3108200E00FE0A06639
:10203000012080F31088206805689D43056082F3C5
:102040001088022060662046FFF7D8FEF8BDC50262
:1020500008D55B0206D50120000510622046FFF777
:10206000CEFEF8BD030606D50B0604D5E16E0029A9
:1020700000D04CE7F8BD4006FCD54806FAD520460E
:10208000EFF31081012383F3108813684024A343E6
:10209000136081F310882021C1670021C16600F020
:1020A00025F9F8BD0F08000020010004E52E000806
:1020B00010B5040003D0E06F002802D007E0012033
:1020C00010BD002178200155204600F027F824207B
:1020D000E06720680168490849000160204601F076
:1020E00017F80128ECD0606A002802D0204600F0E2
:1020F00032FE206841680922D20291434160206883
:1021000081682A229143816020680168012211437D
:102110000160204600F084FE10BD000010B586B0BE
:10212000044614216846FEF719F9154920688842CB
:1021300023D11448816B0122520411438163C16A87
:1021400001221143C162C06A6946104005900C200B
:1021500000900220019000200290032003900420B0
:10216000049005200007FEF70BFF002202211C202F
:10217000FFF728FA1C20FFF719FA06B010BD00007F
:10218000004400400010024070B580231B58202BF3
:1021900001D0022070BD00290BD0002A09D00124F3
:1021A00083682403A34206D10369002B03D1CB0724
:1021B00001D0012070BD002303660B4C0368A342CD
:1021C0000ED05C6824020BD5EFF31084012585F353
:1021D00010881D680126B60635431D6084F31088FB
:1021E00001F088F870BD00000048004010B50D49AE
:1021F00000680968884214D10B49C88814280BD29A
:102200000A460B7908328354C888401C80B2C880C3
:10221000142801D10020C88001220248091DFFF7BF
:10222000B3FF10BDFC00002054000020FFB50446A1
:10223000C06F83B015460E46202802D0022007B09A
:10224000F0BD002E0BD0002D09D00120A1680003A5
:10225000814206D12069002803D1F00701D0012076
:10226000EDE70021842001512120E067FEF72EFFD9
:102270002746403701903D827D820120A1680003FE
:10228000814202D12069002802D03546002611E0A3
:1022900000250FE000228021204601F08FF8002861
:1022A00015D1002D17D02168287888626D1C788A96
:1022B000401E7882788A019B002806980090E9D118
:1022C00000224021204601F079F800280AD0202081
:1022D000E0670320B3E730882168C005C00D88623D
:1022E000B61CE4E72020E0670020A8E77047000064
:1022F000F7B582B000246420164600902546234698
:1023000001AA882101940298FFF712F8254F0028AE
:1023100005D0387803283ED2401C38703EE0322089
:10232000FEF788FD7D20C0000090042301AA8821CB
:102330000298FEF775FF040030D16846808841BAE4
:102340006846C088890440BA8008890C0090084615
:10235000FEF7B8F97968FEF7B3F8134901F0DEF932
:10236000FEF75EF930800098FEF7ACF97968FEF769
:10237000A7F80E4901F0D2F90D4901F027FA0A49F0
:1023800001F0CCF9FEF74CF9039908803878002861
:1023900004D03D7002E0039805803580204605B0EA
:1023A000F0BD0000000000200000C84200002543EE
:1023B00000002042FEE701688A69D243920701D4F7
:1023C00000228A6200688169C943C90703D0816914
:1023D0000122114381617047F7B50446006882B05D
:1023E000816900262746C9064037354600920029F4
:1023F00044DA1021C16131E00398401C2ED0FEF771
:1024000065FE0099411A0398814201D8002825D120
:1024100020684168012292031140BA788369DB4346
:102420001B0416D401239B03994212D0202A10D0FA
:10243000416819434160FEF749FE009009E0FEF74C
:1024400045FE0099401A192803D92020054301268A
:1024500004E020688069C0438006F0D42068806969
:10246000C043800602D5002EC6D004E0002E02D163
:1024700021682020C861042005430126216888695D
:10248000C20504D5012215431202CA610126410585
:1024900005D508210D432268C901D16101268005B7
:1024A00006D50220054321680002C861012601E02B
:1024B000002E0FD02046FFF77EFF20684168074AB4
:1024C00011404160606C28436064202078700020D7
:1024D000B8703870304605B0F0BD000000E800FE6E
:1024E00010B58905890D12041143029C1943006837
:1024F0002143490042684908630D034C23439A4332
:102500000A43426010BD0000FF63FF03F8B51D469B
:1025100017460E4604461EE0681C1CD0FEF7D6FD8A
:102520000699401AA84201D8002D14D1206881696B
:10253000304688430DD00020B8420CD1616C202079
:1025400001436164403460700020A070207001205D
:10255000F8BD0120F0E7206881693046884304D047
:102560000020B842D8D00020F8BD0120F9E70000D3
:10257000F7B5002705460E46044640353EE0314695
:102580002046029AFFF728FF002801D00120FEBD57
:1025900020688069C04380061CD420688169C943D3
:1025A000490702D4218D00292DD18169C943C9066B
:1025B00004D41021C1610420606400E067642068D5
:1025C0002022C26120684168104B194041606A7046
:1025D000AF7011E0FEF77AFD0299401AB04201D8BF
:1025E000002E0BD120688069C043400706D5616C7E
:1025F00020200143616468702F70C7E720688069FC
:10260000C0434007BBD40020FEBD000000E800FE30
:1026100070B516460D4604461EE032462946204651
:10262000FFF7DAFE002801D0012070BDFEF74EFD55
:10263000801BA84201D8002D0ED120688069C043BC
:10264000800609D5616C20200143616440346070CC
:102650000020A0702070E7E720688069C0438006F2
:10266000DBD4002070BD70B516460D46044620E050
:10267000324629462046FFF7AFFE002801D0012050
:1026800070BD681C15D0FEF721FD801BA84201D843
:10269000002D0ED120688069C043800709D5616C88
:1026A000202001436164403460700020A0702070DD
:1026B000E5E720688069C0438007D9D4002070BD59
:1026C00010B5134811490160124941600021816031
:1026D0000161416181610122C161C2600162FEF755
:1026E00045FD002801D072B6FEE700210848FEF73C
:1026F000F3FC002801D072B6FEE700210448FEF783
:1027000010FD002801D072B6FEE710BD0054004055
:10271000980000208266500010B50C480A490160FC
:10272000E1214902416000218160C1600161816154
:10273000C1610C22016242614162FFF7B9FC0028CD
:1027400001D072B6FEE710BD00440040FC0000203E
:1027500070B5054609480023094C0BE0EA5C50407F
:102760000822C60702D04008604000E04008521E20
:10277000F7D15B1C8B42F1DB70BD0000FFFF000056
:1027800001A0000070B504462668049D059B3170C9
:10279000216800204A70690022680325917006E0D4
:1027A00026681A5C72556D1C401CADB280B2814225
:1027B000F6D829462068FFF7CBFF216848556D1CE5
:1027C0002268A9B2000A5054491CA180012070BDA2
:1027D000F0B504462568069F059E297021680020F3
:1027E0004A702568190AA97021680425CB70710008
:1027F000062A02D0102A16D10DE0012E08D00020A2
:10280000F0BD23683A5C5A556D1C401CADB280B2D5
:102810008142F6D807E02268300A10712068072547
:1028200046712068817129462068FFF791FF216871
:1028300048556D1C2268A9B2000A5054491CA18059
:102840000120F0BDFFB50C460546007A097893B02B
:10285000884275D120210AA8FDF780FD0AA80390BF
:10286000E988A81D08184278007816020643284611
:102870000830891EFFF76CFF6F7AB0427ED16889FD
:10288000142146BAA88940BA4004000C129005A849
:10289000FDF764FD032F06D0062F35D08037FAB23E
:1028A0002178022329E016988322FF2829D01C983A
:1028B000FF2826D0072E2CD80820801B400612990E
:1028C000000E002979D0814277D815981C9A0068AB
:1028D00016996B4607C32178324605A8129B00F073
:1028E00079F8129905A8490801900091217833469A
:1028F0003A4603A8FFF746FF49E003A800F0C9F8ED
:1029000045E021780423F8E78622002E02D0012E2C
:1029100017D052E0A88940BAC1B2481EFE284CD850
:1029200021701E98009015981D9B0268A520FEF747
:10293000F5F905A90120019100902178334622E0A4
:1029400039E0A88940BA411E062936D81F498000BF
:10295000095815980160284600F07EFD0122291DC6
:102960002868FFF711FC1E980090159821780268DE
:10297000A5201D9BFEF7D2F905A800E020E0012369
:102980000093019021783A4603A8FFF721FF052420
:102990002407012210212046FEF792FB6846028A96
:1029A0007D230399DB002868FFF740FC00221021FB
:1029B0002046FEF785FB17B0F0BD217803239CE786
:1029C0008037FAB22178012397E700002000002029
:1029D000FEE70000F0B500242546002A50D0012A69
:1029E00010D89C420ED20021284E8F00F759059E28
:1029F000B74203D0491CC9B20829F5D30555641C58
:102A00000155641C022A08D89C4206D20699091274
:102A10000155641C06990155641C032A06D89C4282
:102A200004D205550121641C0155641C042A08D8F0
:102A30009C4206D20555641CE1B202244454491C50
:102A4000CCB2052A08D89C4206D20555641CE1B2D6
:102A5000079C4454491CCCB2062A08D89C4206D292
:102A60000555641CE1B201244454491CCCB2072A28
:102A700005D89C4203D20555641CE1B24554F0BD13
:102A8000002BAED9057041700224AAE72000002077
:102A9000704710B504460068017020680321427039
:102AA000206883702068FFF753FE2168C870216892
:102AB000000A08710520A08010BD704770B505257B
:102AC00004462D07012210212846FEF7F9FA7D263B
:102AD000F600334602220CA12068FFF7A7FB0B4843
:102AE000FDF7FCFB82B2334608492068FFF79EFBE6
:102AF0003346022204A12068FFF798FB0022102130
:102B00002846FEF7DDFA70BD0D0A00001000002017
:102B100070B5052504462D07012210212846FEF731
:102B2000CFFA7D26F600334602220CA12068FFF77B
:102B30007DFB0B48FDF7D2FB82B233460849206883
:102B4000FFF774FB3346022204A12068FFF76EFBF7
:102B5000002210212846FEF7B3FA70BD0D0A0000CE
:102B60008000002070B5052504462D0701221021A4
:102B70002846FEF7A5FA7D26F600334602220CA170
:102B80002068FFF753FB0B48FDF7A8FB82B23346E2
:102B900008492068FFF74AFB3346022204A1206857
:102BA000FFF744FB002210212846FEF789FA70BD8A
:102BB0000D0A00001600002010B5FEF7ADFCFFF76F
:102BC00019F910BD30B599B034216846FDF7C6FB40
:102BD00014210DA8FDF7C2FB182112A8FDF7BEFBBA
:102BE0001B4801680322D2029143C2148918016074
:102BF0000A250120009505901021039004910220E0
:102C00000990002440050C900A940B946846FEF746
:102C1000BDFE002801D072B6FEE70F200D90032004
:102C20000E900F941094012111940DA8FEF782FDCF
:102C3000002801D072B6FEE7149412A812951694DB
:102C4000FEF7C4FC002801D072B6FEE719B030BD13
:102C500000700040704730B5017A41295CD1417A5B
:102C6000542959D1817A0022D2432B296CD1C37ABD
:102C70000321522B06D0492B1FD0422B3CD0432B93
:102C800042D049E0037B452B46D1437B532B43D1B4
:102C9000837B452B40D1C37B542B3DD1C388082B6C
:102CA00009D005E04418647B202C4DD8491CC9B2DA
:102CB0004C1DA342F6D8012030BD037B442B02D02B
:102CC000462B05D028E0407B3D283DD1022030BD79
:102CD000437B3F2B20D1C3880125ED43062B09D030
:102CE00005E04418E47A202C2ED8491CC9B2CC1C2B
:102CF000A342F6D8284630BD017B52290CD1407B37
:102D00003D2821D1032030BD017B4C2904D1417BDA
:102D1000542903D048290FD0002030BD817B3D29A4
:102D200012D1C07B2B2802D02D2802D00CE0042029
:102D300030BD0320C04330BD817B3D2904D1C07B21
:102D40002B2803D02D2803D0104630BD052030BDE0
:102D50000420C04330BD10B5818CC90707D001687D
:102D60004A6801235B049A43836A1A434A60818C50
:102D7000890707D501684A6801231B049A43C36A7F
:102D80001A434A60818C490707D501684A680123C4
:102D90009B049A43036B1A434A60818C090707D549
:102DA00001684A680123DB039A43436B1A434A6074
:102DB000818CC90607D501688A6801231B039A43E1
:102DC000836B1A438A60818C890607D501688A68FB
:102DD00001235B039A43C36B1A438A60818C4906C3
:102DE00012D501684B6801221205046C93432343FA
:102DF0004B60016C914207D101684A6803235B056F
:102E00009A43436C1A434A60818C090607D50168CE
:102E10004A680123DB04806C9A4302434A6010BD78
:102E2000FEB506460027803604467760FEF74EF969
:102E3000019020680068254600076035002819DAEF
:102E4000274800900121002249052046019B00F0FF
:102E5000B5FA00280ED0EFF31081012080F310881E
:102E60002068026880239A43026081F31088202042
:102E7000E06729E020680068400728D518480090DE
:102E80000121002289052046019B00F097FA0028C5
:102E90001DD0EFF31081012080F3108820680268B4
:102EA000FF2321339A43026081F31088EFF31081EE
:102EB000012080F3108820688268520852008260E6
:102EC00081F31088202030602F760320FEBD202063
:102ED000E0673060276667662F760020FEBD000041
:102EE000FFFFFF0110B5806A0022014640314A838E
:102EF0004A82FEF785FF10BD10B5EFF31082012165
:102F000081F3108801680B68FF242134A3430B6010
:102F100082F31088EFF31082012181F31088016899
:102F20008B685B085B008B6082F31088016E01295F
:102F30000AD1EFF3108281F3108801680B68102426
:102F4000A3430B6082F31088202280210A500021C5
:102F50000166816610BD000070B501464031024631
:102F600080328B8B156814460268222D04D090693C
:102F700008210843906170BD526A456D1A402A804D
:102F8000426D921C42654A8B521E4A834A8B002A2C
:102F9000F1D1EFF31083012282F3108802681568E3
:102FA000FF262136B543156083F31088EFF31083B5
:102FB000012282F31088026895686D086D009560A3
:102FC00083F3108820222260002484664466184B14
:102FD00002689A420ED053681B020BD5EFF31083A0
:102FE000012585F3108815680126B606B5431560DE
:102FF00083F31088026E012A02D0FFF7F7F870BD44
:103000000466EFF31083012282F3108802681568CA
:103010001024A543156083F310880268D369DB434D
:10302000DB0600D41462098BFEF7E8FE70BD0000D9
:103030000048004070B501464031024680328B8B1B
:10304000156814460268222D04D0906908210843AF
:10305000906170BD526A1A40436D1A70426D521CE5
:1030600042654A8B521E4A834A8B002AF1D1EFF304
:103070001083012282F3108802681568FF2621362A
:10308000B543156083F31088EFF31083012282F3B8
:103090001088026895686D086D00956083F310884C
:1030A00020222260002484664466184B02689A42FB
:1030B0000ED053681B020BD5EFF31083012585F367
:1030C000108815680126B606B543156083F310888D
:1030D000026E012A02D0FFF789F870BD0466EFF393
:1030E0001083012282F31088026815681024A5431A
:1030F000156083F310880268D369DB43DB0600D4D4
:103100001462098BFEF77AFE70BD00000048004093
:10311000F8B504462269A168E66911436269002591
:103120000068324311436C4B02686C4E32400A43D4
:10313000026020684168032212039143E268114350
:1031400041602168A069994201D0226A10438A68CF
:103150000B263602B24302438A6061492268614805
:103160008A420AD1C0680C21084027D0042829D0FF
:10317000082825D00C2811D10EE09A420ED1C06843
:1031800003218902084019D001218902401A19D06F
:10319000401A15D0884201D1082700E01027514974
:1031A0005148403986009A4236D1002F0CD0022F68
:1031B0000DD0042F10D0082F6FD12AE00027EEE7A2
:1031C0000227ECE70427EAE7FEF782FB06E009683E
:1031D000C90605D4304603E0FEF79AFB002871D0FB
:1031E00062685100511881426BD81103814268D343
:1031F000010E06025008002330185941FCF7ECFF7D
:1032000003210902394A411A91425AD82168C860FB
:1032100058E00120C003E3E70122E369D2039342AF
:103220002CD13B0000F052F90906090C4D114D4D0F
:103230004D284D00FEF74CFB09E0FEF759FB06E078
:103240000968C90605D4304603E0FEF761FB002893
:1032500038D0616840004A088018FDF781F80146BF
:10326000234A103991422CD8511C01400007420FCB
:1032700020680A43C26025E01046EAE73B0000F000
:1032800025F90906090D2012202020262000FEF72E
:103290001FFB0AE0FEF72CFB07E012E00968C906F5
:1032A00005D4304603E0FEF733FB00280AD06168FE
:1032B0004A081018FDF754F802460D49103A8A42A0
:1032C00007D901250020A066E0662846F8BD104613
:1032D000EDE780B29AE7000000480040F369FFEF95
:1032E000004400404010024000093D00FFFC0F0078
:1032F000EFFF000070B54165014640310A834A8303
:1033000000238366012482682403FF25A24204D19E
:103310000269002A13D1264A0AE07F26002A09D032
:1033200001252D07AA420CD10269002A05D03F22AF
:103330008A8307E00269002A01D08E8302E08D8330
:1033400000E08B83014680314B6022220A60EFF35C
:103350001082012181F3108801688B6801252B43BD
:103360008B6082F310888168A14202D10169002933
:103370000ED010498166016900290BD0EFF310814E
:10338000012282F3108800680268FF23213309E0DC
:1033900009498166EFF31081012282F310880068E9
:1033A000026820231A43026081F31088002070BD58
:1033B000FF01000035300008592F0008FFB507460F
:1033C00081B080370646044660360A9D2EE0681CB0
:1033D0002CD0FDF77BFE0499401AA84214D8002D8A
:1033E00012D020680168490720D5C169C94309077F
:1033F0000CD4082505622046FFF77EFD7D60002085
:103400003076012005B0F0BD0320FBE7C069C04362
:1034100000050BD401202168C00208622046FFF796
:103420006BFD2020786000203076EDE72068C169D0
:103430000298884305D0002003998842C7D0002015
:10344000E0E70120F8E7000010B50248FEF7DAFCDB
:1034500010BD0000FC00002010B503680E4A1A6081
:10346000026851600268002191600268D1600268C0
:10347000116103680C225A61026891610268D1618E
:1034800002681162026851620068FEF711FE0028AE
:1034900000D0FEE710BD000000440040F8B5040C69
:1034A0008BB2264682B25E430D0C1046370C584351
:1034B000360480190021794116466E43370C3604D4
:1034C0008019794126466E438919F8BD30B4744697
:1034D000641E2578641CAB4200D21D46635D5B0010
:1034E000E31830BC184700008307FF22DB0E9A4028
:1034F0008907090E9940002808DB830809489B00CA
:103500001818036893430B43036070470007000FCC
:103510000838830804489B001818C36993430B4379
:10352000C361704700E400E000ED00E086B0FDF705
:10353000FBFFFFF747FB14216846FCF70FFF4F48DE
:10354000C16A01252943C162C06A052428402407B5
:103550000590002210212046FDF7B2FD10200090BA
:103560000220029000200390019569462046FDF755
:1035700007FDFFF7A5F8FFF7CFF842484049016083
:1035800006214160FF213931C1608160FDF786FF6E
:10359000002801D072B6FEE73B48FDF73DFBC0B204
:1035A0003A4CA528207013D13748001DFDF734FB95
:1035B000607035480830FDF72FFB206132480C3031
:1035C000FDF72AFB208130481030FDF725FB608194
:1035D0002E4821691430FFF73FFF2C490122143196
:1035E00001C9FEF7D1FDFF26F536FDF76FFDE16855
:1035F000401AB04217D9254A2248921D911E5438CC
:10360000FEF776FE012802D1FF20A080E080A0888E
:1036100021894018A080E08861894018E080A57069
:10362000FDF754FDE060A078012823D1174814303D
:10363000FDF7A6FA01281DD114480A30831E821D09
:103640000090D91F0A30FDF73DF906200A22082113
:10365000205EA25E615E6B4607C30C4A04231032F3
:103660001146E35E0F39101DFFF7ECF807481430E0
:10367000FDF7B2FA0348FDF747FFB6E70010024036
:1036800000300040EC000020003C0008400000201A
:1036900070B501250400ED074C4020D4441A01D236
:1036A000001B0919C60D4B00F2B2FF2A29D01B0ED0
:1036B0002CD000020C02D31A2C43DC4028430519FD
:1036C00010D2280A02D3401C6D0611D0761EF605D2
:1036D0008019FF2A00DA70BDC00DC00570BD6940B9
:1036E00000F07AF801200543C541521C761CE8E73A
:1036F00064089C40C90161408900E7D10124A043CE
:10370000E4E71B0E440200D0034870BD002AFCD140
:10371000C00FC00770BD00BF0000C07F70B5420081
:1037200064414B005C41120E39D01B0E38D0FF2A89
:103730003CD0FF2B3AD040024902400A490A060019
:1037400045184E43000A090AD2184843ED017F3A52
:103750000104731A4019190C4318990F04D0012160
:103760005B0849075B1A521CD80904D3401CF503B7
:1037700001D19D0607D0FF2A08D2D50506D0E4075F
:103780002043401970BD0125A843F4E7002A01DC5D
:10379000E00770BD2402FF202043C00570BD1B0E52
:1037A000FF2A03D0FF2B01D0E00770BDFF264500A4
:1037B0003606B54206D84D00B54203D8D218FF2AC6
:1037C00000D0E7E7004870BD0000C07F70B501255C
:1037D0000400ED074C4022D4441A02D26C40001B76
:1037E0000919C60D4B00F2B2FF2A4BD01B0E50D068
:1037F00000020C02D31A2C43DC40A843051B05D55C
:10380000AD0019D36D08761E521E37D0F605280A72
:1038100001D2801970BD70416D0603D070BD694042
:10382000FFF73CFF9C4009026140490001D0401E67
:1038300070BD0124A04370BD6D081DD001202B0C6C
:1038400001D12D0410302B0E01D12D0208302B0F89
:1038500001D12D01001DAB0F01D1AD00801CEB0F7C
:1038600001D16D00401C6D00361A121A680AF50568
:103870004019012A02DB70BD002070BDC036300A3D
:10388000C00770BD1B0E440201D1FF2B00D10248BE
:1038900070BD002AF0D070BD0000C07F00000000A5
:1038A00000000000010203040607080903040608DB
:1038B0000C101820300000000001020304818283F4
:1038C0008485868788898B8C8D8E8F91929395962F
:1038D00097999A9C9D9FA0A2A3A5A7A8AAACAEB0B9
:1038E000B2B3B5B7B9BCBEC0C2C5C7C9CCCED1D4BE
:1038F000D7D9DCDFE2E6E9ECF0F3F7FAFE000000EE
:1039000020390008000000208000000004010008A9
:10391000A039000880000020800700002001000876
:103920000000000000FC7F460000000000000000D6
:103930004552524F520053554343455353000000E4
:10394000B004000060090000C012000080250000E3
:10395000004B00000096000000E1000000C20100E2
:10396000001A00000000000000000000000000003D
:1039700000C20100FC000020000000000000000068
:103980000000000000000000000000000000000037
:103990000100000004000000000000000000200002
:04000005080000C12E
:00000001FF
