:020000040800F2
:100000009007002075010008672C000839280008B7
:1000100000000000000000000000000000000000E0
:100020000000000000000000000000007B2C000821
:100030000000000000000000692C00087D2C000872
:10004000A5010008A5010008A5010008A5010008F8
:10005000A5010008A5010008A5010008A5010008E8
:1000600000000000A5010008A5010008A501000886
:10007000A5010008A501000800000000A501000876
:100080000000000000000000000000000000000070
:10009000A50100080000000000000000A501000804
:1000A00000000000A50100080000000000000000A2
:1000B000ED330008A501000800000000000000006A
:1000C00000F002F800F046F80CA030C808382418F8
:1000D0002D18A246671EAB4654465D46AC4201D180
:1000E00000F038F87E460F3E0FCCB646012633426C
:1000F00000D0FB1AA246AB46334318470036000037
:1001000020360000103A02D378C878C1FAD85207D6
:1001100001D330C830C101D504680C6070470000BD
:100120000023002400250026103A01D378C1FBD813
:10013000520700D330C100D50B60704710B5642959
:1001400002D100F01DF910BD002010BD1FB51FBD6C
:1001500010B510BD01F01BF81146FFF7F7FF03F0D3
:1001600095F901F033F803B4FFF7F2FF03BC01F097
:1001700039F800000F4880F308880F480168090E1D
:100180000E4A914205D10E480E4901600E480F49B2
:1001900001600F4880470F480047FEE7FEE7FEE793
:1001A000FEE7FEE7FEE700000B480C490C4A0D4B4A
:1001B0007047000090070020040000001F000000AE
:1001C0003410024001000000000001400000000067
:1001D000092D0008C10000089001002090070020B0
:1001E0009003002090030020FEB5054610460C4603
:1001F000184373D0AE468C460020AD1A01469C4190
:1002000067D36646002701243D46B61A9D4102D3B6
:1002100013463A462124654676462F04360C3E4363
:100220002D0CB61A9D4104D3150C1B042B4312044C
:100230001034654676462F06360A3E432D0AB61A16
:100240009D4104D3150E1B022B4312020834654650
:1002500076462F0736093E432D09B61A9D4104D331
:10026000150F1B012B431201241D65467646AF076F
:10027000B6083E43AD08B61A9D4104D3950F9B00C6
:100280002B439200A41C65467646EF0776083E4352
:100290006D08B61A9D411AD392185B41641C16E092
:1002A0000018764665464941B71A9D410191009074
:1002B00009D36046B11A98418E4684460098019948
:1002C0000025401C6941DD0752082A435B08641E73
:1002D000E6D57246634603B0F0BDFFE70020014655
:1002E000C046C0462A462346F5E700000FB41CB5B9
:1002F000074B06AA7B4469460090059800F01BFF57
:100300000020694600F02AFF1CBC08BC04B0184756
:10031000650E0000F8B50E46044600202062204617
:10032000E1688847002829D0252802D06268A168A2
:1003300020E0E16820460027884705001ED02846B7
:100340004138192802D80127FF02203532462046BD
:1003500027602946FFF7F2FE002808D0012804D0C4
:10036000F61DF608F6000836D9E7361DD7E76268AD
:100370002846A1689047206A401CCFE7206AF8BD54
:10038000F7B5002575291068009914A611D0C0464C
:10039000C046002802DA404211A608E00099096828
:1003A0008A0701D50FA602E0490704D50EA601254C
:1003B00001E0C046C046009F0024243704E000F05E
:1003C000D2FE30313955641C0028F8D12B46324614
:1003D0002146009800F052FEFEBD00000000000023
:1003E0002D0000002B0000002000000030B5441C50
:1003F00003E00178401C00290DD08107F9D10B4B97
:10040000DD0104C8D11A91432940FAD0001B0A0625
:1004100003D0C01E30BD001B30BD0A0401D0801EB9
:1004200030BD0902FCD0401E30BD000001010101B9
:1004300001E004C0091F0429FBD28B0701D502800B
:10044000801CC90700D00270704700290BD0C30779
:1004500002D00270401C491E022904D3830702D532
:100460000280801C891EE3E70022EEE70022DFE71E
:10047000002203098B422CD3030A8B4211D30023A1
:100480009C464EE003460B433CD4002243088B427B
:1004900031D303098B421CD3030A8B4201D3944608
:1004A0003FE0C3098B4201D3CB01C01A52418309FB
:1004B0008B4201D38B01C01A524143098B4201D3B5
:1004C0004B01C01A524103098B4201D30B01C01AE0
:1004D0005241C3088B4201D3CB00C01A524183085A
:1004E0008B4201D38B00C01A524143088B4201D387
:1004F0004B00C01A5241411A00D2014652411046E7
:1005000070475DE0CA0F00D04942031000D340425B
:10051000534000229C4603098B422DD3030A8B4291
:1005200012D3FC22890112BA030A8B420CD389012F
:1005300092118B4208D3890192118B4204D3890115
:100540003AD0921100E08909C3098B4201D3CB0153
:10055000C01A524183098B4201D38B01C01A524108
:1005600043098B4201D34B01C01A524103098B420C
:1005700001D30B01C01A5241C3088B4201D3CB00F7
:10058000C01A524183088B4201D38B00C01A5241DA
:10059000D9D243088B4201D34B00C01A5241411AB1
:1005A00000D20146634652415B10104601D34042DF
:1005B000002B00D54942704763465B1000D3404290
:1005C00001B50020C046C04602BD70477047704765
:1005D000F0B50C46871A9C410D46861A9D4103D200
:1005E000C01BA141D21963410D0D1F0DC94EEC1B5B
:1005F000AE435CD07F057F0D0026002F51D02D0526
:10060000AC46A943DD020123ED0A1B051D4320234F
:100610001B1B24D41746E740381871412F46E7408A
:10062000CC199D402818314661410C0D27D16144F9
:100630009A4013D50023401C594152000ED1400866
:10064000400001224B005205D34207D3052040074A
:10065000C14201D5B04900E0B0493046F0BD6B0061
:10066000002A00D001229A181F23203C1B1B01D511
:10067000002302E0E540281871410C0DD7D0012479
:1006800024050919C407CD0740084908E40F284389
:100690006144002CD5D00024401C61419A40D0D147
:1006A000CDE76A05520DD9D1C90FC907D5E79C4DD1
:1006B0004E00002801D0012400E0002434195F001E
:1006C000002A01D0012600E00026BE19954FAC4259
:1006D0000CD8AE420AD8B44206D001256D05EC42D2
:1006E000BCD010461946F0BD9942FCD000203946D6
:1006F000F0BDF0B51FB40C460F46811A9F41254648
:10070000861A9D4106D20125ED076F40401ABC4173
:1007100052187B41210D1E0D8D1BAC467D4D8D4326
:100720007ED075056D0D7CD00D05AE46AC431B0328
:100730001B0B794D52429D41202366469B1B14D3CF
:100740001746F740381800260090744160462F463F
:100750000741E41900989D402818664116D4714657
:1007600071189A4025D5012320E093182A466A4142
:100770005200002B00D0521C1E23203E9B1B002B3E
:1007800061DD3541EE1728186641E8D5001876413D
:100790005B1C9A4000D3401C4B05F3181524E34022
:1007A00010D3002B52D071467118D30FC01802D34A
:1007B000491C05B0F0BD0123DB079A42F9D140087E
:1007C0004000F6E701225205B21801D1002853D0AB
:1007D0000123CC0ADB029943891E002A08D1020CAE
:1007E00003D0020C0004103902E002460020203938
:1007F0000023550B05D112020823550B01D15201DC
:100800000D23550C01D112011B1DD50C01D19200F5
:100810009B1C150D01D152005B1C2025EE1A01E036
:100820002CE022E00546F54015439840CA1AE1073E
:1008300069181305C918002ABBDA032040070818F5
:10084000C10FC9070FE071466118B2E7F107400810
:100850000843711071444A000CD001235B059A4291
:10086000A7D2C90FC9070020A3E74905490D26D122
:10087000002001E00028F4D100219AE7284D66000D
:10088000002801D0012100E0002171185F00002A3A
:1008900001D0012600E00026BE19224FA94210D83F
:1008A000AE420ED8B14208D001256D05E94206D00E
:1008B0001946A802414010467BE79C4201D02146E0
:1008C00077E70020394674E710B50C465C4005D543
:1008D0000124E4076340FFF70CFF10BDFFF778FE2B
:1008E00010BD30B40C465C4004D50124E4076340DD
:1008F00030BC6DE630BCFCE670B50124E407614015
:100900000D465D4002D4FFF763FE70BD6340FFF704
:10091000F0FE70BDFF0700000000F0FF0000F07F58
:100920000000E0FF0000F87FF0B5F94D0C091E094A
:100930002C402E402F468BB0A7437DD0B543FCD032
:10094000002E7AD0002CFCD00D465D40ED0F2543E3
:10095000AC1BFF25AD0464190894C502440DC902FF
:100960002143500DDC0204430120C007014304432E
:10097000D2020191200C110C00958C4601042346F3
:100980008B430A9161460904E24D8A430991010AA9
:100990007D4449198039097805464D4301266D1873
:1009A000F605751B6943C90C640B891C4C4364181C
:1009B000B5012C1B250C2E04B4434C434D43210C94
:1009C000691889090591009DE90701D00121C9072E
:1009D00004912C4601996708CD072F434C08059DCB
:1009E000E10B4D432D0C29466646754302950D4695
:1009F00045432E46029D7D1BB44100950D465D4347
:100A000001942C0C2F040D465543AE462D0C3D434E
:100A1000029503947546049C2D04641B049406D22D
:100A2000029C039D641C002675410395029401AC51
:100A300070CC009F7D1B01E03EE162E1B4410904FE
:100A40000095079101940599A4086143090C0C468F
:100A50004443650BE7040C4666467443A646640BA4
:100A60003C43039502947446049DE4042C1B0494B7
:100A700006D2029C039D641C0026754103950294D6
:100A800001AC70CC009F7D1BB44101940C465C43CB
:100A90000095650FE7000C465443A646640F3C439F
:100AA000039502947446049DE4002C1B049406D222
:100AB000029C039D641C002675410395029401ACC1
:100AC00070CC009F7D1BB441AE09AF06049DC900E8
:100AD000AD092F43049DA406AD060495079D34433C
:100AE00069180791059DE10B4D432D0C294666467B
:100AF000754302950D4645432E46029D7D1BB4412C
:100B000000950D465D4301942C0C2F040D46554372
:100B1000AE462D0C3D43029503947546049C2D046E
:100B2000641B049406D2029C039D641C002675413C
:100B30000395029401AC70CC009F7D1BB4410194DD
:100B40008C050694079C890A611800950791019C01
:100B50000599A4086143090C0D464543680BEF0451
:100B60000D46644665436C0B3C43049FED047D1BBE
:100B7000AC4602D20025641C6841009E019D371BD3
:100B800085410846584301950C46460FC50054431D
:100B9000600F28436546E4002C1B02D20025401C50
:100BA0006E41019D3F1AB5412846BD098006284384
:100BB0008446A009BF064E020699A406761807438C
:100BC000079D002068410A99079019430020099B5E
:100BD00000906046FF1913434041E20F64003A431E
:100BE000A4460446D71A8C41A04203D901200090A4
:100BF00020463A46C70F941840416246D20F22431E
:100C0000644664000494009CBE466400D71AA4465F
:100C1000044602978C417746002F01D1A04204D9A7
:100C20006046401C8446029A2046C40FA64694188B
:100C30004041049A0546D20F224364466400D31A09
:100C40008D417146002901D1A84202D928461A4691
:100C5000641C10430122002800D0164361020020CA
:100C6000079B891904465C410223002C02DB4918CA
:100C700013466441089DCE0A2D145D194B05670586
:100C8000E10A2C050D1908993E43C9076940002B5C
:100C900008D0934006D30022761C5141002B01D18D
:100CA000760876001C4A002D43DB154241D0AA434A
:100CB0003FD030460BB0F0BD06180D464D41174CE5
:100CC0007642AC411AD395181C465C41134A6D42DA
:100CD000A24113D3012252054C00D4420AD15C0038
:100CE000D4420BD04B4002D592021143E2E74900B7
:100CF0004908DFE75940C90FC90718E00020084933
:100D0000D8E7054801420DD10342F7D0F2E70000D1
:100D10000000FF07E52C00000000F07F0000E0FF6E
:100D20000000F87F114859400143C01241400020A3
:100D3000C0E70123089A9B069A4205DC032252076A
:100D40008918C90FC907B5E7052252078918074A4C
:100D50001143D2125140ADE770B515461C4602460C
:100D60000B4628462146FFF7DFFD70BDFFFFFF7FE2
:100D700030B50346CA02400D1043164D164C0A15F5
:100D800002D02043002A06DBAA1A002A12DDD04036
:100D9000FF2A0BDC30BD5205520D01D14000400846
:100DA000AA1A07D4D0404042FF2A01DD002030BDFE
:100DB0000028FCDD4A00002B01D0012000E00020CB
:100DC000101801225205D042F0D8C817C043604025
:100DD00030BD00001E040000000000801F22030C34
:100DE00002D10F22000402D0030E03D004E0002041
:100DF000014670470002083A030F01D10001121F9B
:100E0000830F01D18000921E002801DB4000521E9A
:100E1000120551184205C012411810467047C10F03
:100E2000C90700D04042012292071143D6E70121B1
:100E30008907D3E7F0B58B4C0F09254689B0BD4330
:100E40007BD01D092646AE43FAD00E465E402740B1
:100E5000F60F3E43254071D024012142FBD0FF24F0
:100E6000AD19A4042D1B039501252D05DB02DB0A1A
:100E7000C9022B43C90A29431E010901040F130F9C
:100E8000050121431701880B820391432D098C46EC
:100E9000A90B1E438A039543B30B9A0396433F095C
:100EA000BA0B9403A74302962E467E430497B64698
:100EB0004E19D7190C460196544305977E43371BAC
:100EC0007646BF1B3601B646BE0B361900967646EF
:100ED000BC043719009C01D3641C00946400002FEB
:100EE00001D001263443029E049F754366467E432B
:100EF0000496760034196E0034190094029C019E09
:100F00001C196643751BAE46069465464519059C3B
:100F100005956C43594375460891691A0191049EE1
:100F200001465143A41B0491611A009C0791E106FC
:100F300005D061090122114302E072E06EE061090F
:100F4000089D00272C0A2D066918049D7C412A0A59
:100F50002D066918019D6241AC0DAD026D1854411A
:100F6000079A910D920255196141029A64465843BD
:100F70005443069B059A5A43121A131B9A0E9B015F
:100F80005B187A41010B0005C3185141220A200663
:100F900044195A419A4200D2491C01204002814220
:100FA00003D315230226F64302E014230326F64357
:100FB0002020C51AA9401746AF40DA400A43204610
:100FC0000399D8400914731819055118039A384326
:100FD000D2075140AC4009D00122944006D30022F0
:100FE000401C5141002C01D1400840001E4A934250
:100FF00012D3012203989206904207DB0520400796
:1010000009181A480143C012414004E00320400778
:101010000818C10FC907002009B0F0BD0020F10772
:10102000FAE705180C464C4111486D42A04115D312
:1010300094181A465A410E48644290410ED301203A
:101040004A004005824209D35A00824206D35940E1
:10105000C90F084AC90700201143DDE700200649EF
:10106000DAE700000000FF07FE070000FFFFFF7F38
:101070000000E0FF0000F07F0000F87FFFB50446AD
:101080000D4681B0243000902168880604D51022D6
:10109000E0699143216000E00120A84201DD471B87
:1010A00000E000270498A1697A191018081AA061B5
:1010B0002078C00602D42046C046C046002608E07C
:1010C00003986268A168805D9047206A401C761C86
:1010D000206204988642F3DB2078C0060AD52046B9
:1010E000C046C04606E06268A16830209047206A8A
:1010F000401C206238467F1E0028F4DC07E0009880
:101100006268A168405D9047206A401C20622846C2
:101110006D1E0028F3DC2046C046C046207800063D
:1011200002D5022005B0F0BD0120FBE701694A1C91
:1011300002610878704700B58FB0029100210591D7
:101140000549019379440391114604906846FFF7DD
:10115000E1F80FB000BD0000E5FFFFFF0A68107066
:10116000521C0A60704701468008081A02091018CC
:10117000020A1018020C1018C0088200121852003F
:10118000891A01E0401C0A390A29FBD270477546CA
:1011900000F024F8AE46050069465346C008C0007A
:1011A000854618B020B5FEF7FFFF60BC0027490850
:1011B000B6460026C0C5C0C5C0C5C0C5C0C5C0C5EF
:1011C000C0C5C0C5403D49008D46704710B50446B6
:1011D000C046C0462046FEF7C6FF10BD0048704717
:1011E0003001002001491820ABBEFEE726000200B6
:1011F00070470000F8B505460026C088154C3746F4
:10120000002824D06088002806D100F061F9A06091
:1012100001206080E888208000F05AF9A1688842A7
:1012200000D2A76000F054F9A168401A01280FD934
:10123000608801280CD1E8882188884201D10126E4
:1012400006E000F045F9A060E888208000E06780B3
:101250003046F8BD0400002010B5C2880021C180CE
:10126000054B01719A800B4602E0C41821725B1C89
:101270009342FADB10BD00000400002030B50146A7
:1012800020314A790023022A04D00422C2630B7160
:10129000012030BD026814680E25AC43146002685A
:1012A0001468640864001460446C1C221440012219
:1012B0001546006CA54045604A7118460B7130BD5B
:1012C00070B50024014620314A79022A03D0042156
:1012D000C163012418E0026813680E25AB43136054
:1012E000026813685B085B001360436C1C221340A8
:1012F000012215469D40036C5D604A7100220A710F
:10130000816B002900D08847204670BD70B5044627
:1013100000F0DEF80546601C02D00448007824186E
:1013200000F0D6F8401BA042FAD370BD2000002088
:10133000F8B5002303240125B3E032462E469E4033
:10134000B446324079D00E79B607B60F012E01D0DF
:10135000022E17D186682746B6465E00B740009633
:101360007646BE43B646CF68009EB74076463743C2
:10137000876046686746BE430F79FF06FF0F9F40B0
:10138000374347600E79F643B6070ED0C668274646
:10139000B4465E00B646B7406646BE43B4468F6864
:1013A0007646B74066463743C7600E79B607B60F34
:1013B000022E14D1DE08B60036180096366A5F0792
:1013C000B446FE0E0F27B646B7406646BE43B44647
:1013D0000F697646B74066463743009E3762066817
:1013E0002746B4465E00B646B7406646BE430F7910
:1013F000B446BF07BF0F7646B7406646374307601F
:101400004E68B603B60F4BD0294F7E6B2E437E63DA
:101410009F08284EBF00BE190096B6680F27B44635
:101420009E07360FB646B7406646BE4305273F07C0
:10143000B446B84202D100270BE031E01E4FB8425B
:1014400001D1012705E01D4FB84201D1022700E07C
:1014500006277646B74066463743009EB760184E6B
:10146000B6684F689643FF0200D51643144FBE601E
:10147000FE684F689643BF0200D51643104FFE60CA
:101480007E684F689643BF0300D516430C4F7E60BD
:101490003E684F689643FF0300D51643084A16601E
:1014A0005B1C0A681646DA4000D046E7F8BD00002B
:1014B00000100240000001400004005000080050ED
:1014C00000040140002A01D08161704781627047A9
:1014D00001488068704700002000002070B5024677
:1014E00040325378202B1CD11378012B19D00123C3
:1014F000137024245470046825689D432560046893
:1015000025681E03B5432560046825680D432560E2
:10151000006801681943016020205070002010709D
:1015200070BD022070BD70B5024640325378202B4A
:101530001BD11378012B18D001241470242353706D
:1015400003681D68A5431D6005682B680F263602D9
:10155000B34309021943296000680168214301600F
:10156000202050700020107070BD022070BD00005F
:1015700070B5040006D0254640356878002600285E
:1015800002D005E0012070BD2E70204600F0EAF97F
:1015900024206870206801684908490001600F2113
:1015A0006068090688432168086121688A6801200B
:1015B000C00382438A60E1680129A16808D0212222
:1015C0009202114322689160E168022902D005E08D
:1015D0000143F7E701212268C902516021684A6886
:1015E0000F4B1A434A602168CA688243CA60616926
:1015F00020690843A169090208432168C860216A7B
:10160000E0690843216808602068016801221143ED
:1016100001606664202068702663AE70002070BD93
:1016200000800002FFB50446002083B02546403507
:1016300001906A78202A7FD122689269D2431204ED
:101640007AD52A78012A77D001222A7024226A705A
:1016500060648F05BF0DE06801280AD0374801217A
:1016600038188902884321684860FFF731FF064631
:101670000CE03348F3E70698401C07D0FFF728FF3B
:10168000811B0698814219D8002817D021688869E3
:1016900089698006C00FC906C90F0843EBD02068CE
:1016A0008069069BC043C006009617D50022202102
:1016B000204601F071F9002830D107E02020687041
:1016C000616C014361640020287027E021682020BC
:1016D000C86168700020287007B0F0BD002220218A
:1016E000204601F059F9002818D121681020C8615E
:1016F00021682020C86101990598814214D1206891
:10170000416801229203114341600096002220218A
:101710002046069B01F040F9002802D00120DBE7BB
:101720000AE021682020C8610198401C0146019010
:10173000059881428FD3C1E70220CDE7002800023F
:1017400000200002FFB5054604464035687881B0A8
:10175000202878D12878012875D001202870FFF73B
:10176000B7FE0746012200901923D103204601F05D
:1017700013F900283CD1222068701020A8700026A0
:10178000666403986062049860856663618D2F4883
:10179000FF2903D9FF22228500903BE0618D21853E
:1017A00000903DE02046029901F0E0F816E001F0DB
:1017B00025F900281CD12068406A616A0870606AB7
:1017C000401C6062208D401E81B22185608D401ECC
:1017D0006085608D002801D000290CD0608D0A99A9
:1017E00000283A462046E2D101F056F900281CD0E4
:1017F000012005B0F0BD00970022802120460A9B01
:1018000001F0CAF80028F3D1608DFF2805D9FF2226
:101810002285009601231B06C4E7608D2085009673
:10182000208D0123C2B25B06BCE721682020C8617D
:1018300021684A68064B1A404A606870AE702E7084
:101840000020D6E7FFE70220D3E700000024008055
:1018500000E800FEFFB5054604464035687881B0D3
:10186000202878D12878012875D001202870FFF72A
:101870002FFE0746012200901923D103204601F0D4
:101880008BF800283CD1212068701020A870002619
:10189000666403986062049860856663618D2F4872
:1018A000FF2903D9FF22228500903BE0618D21852D
:1018B00000903DE02046029901F058F816E001F052
:1018C00016F900281CD1606A216800788862606A75
:1018D000401C6062608D401E6085208D401E80B27D
:1018E0002085618D002901D000280CD0608D0A99D7
:1018F00000283A462046E2D101F0CEF800281CD05C
:10190000012005B0F0BD00970022802120460A9BEF
:1019100001F042F80028F3D1608DFF2805D9FF229D
:101920002285009601231B06C4E7608D2085009662
:10193000208D0123C2B25B06BCE721682020C8616C
:1019400021684A68064B1A404A606870AE702E7073
:101950000020D6E7FFE70220D3E700000020008048
:1019600000E800FE10B586B0044614216846FEF774
:101970007DFD1149206888421BD1104CE16A01208D
:101980000143E162E16A04900140059103214902AB
:101990000091122101910021029103210391052060
:1019A00069460007FFF7C4FCA06B01214905084305
:1019B000A06306B010BD00000054004000100240BB
:1019C00002488168027889188160704720000020F1
:1019D00010B508480024016840221143016003202B
:1019E00000F00AF8002801D0012401E000F026F8F8
:1019F000204610BD0020024070B504460D4D7D20EC
:101A00002978C000FEF734FD01460B480068FEF758
:101A10002FFD00F01FFC002809D1042C07D2002262
:101A20002146401E00F022F800206C6070BD0120AD
:101A300070BD0000200000202C0000200448416BF5
:101A4000012211434163816B02041143816370479A
:101A500000100240002805DBC106C90E01208840A5
:101A6000014908607047000000E100E010B501F096
:101A7000EBFC10BDF8B5044600780027504D8006F9
:101A800074D54F4E403EB06BC00004D4B06BA90576
:101A90000843B06301274B480168C90511D40168A8
:101AA000821511430160FFF713FD009005E0FFF779
:101AB0000FFD0099401A642837D842480068C005D5
:101AC000F5D532680321090560680A40014091425A
:101AD00008D08103890F032904D13168890301D516
:101AE0000120F8BD2A69032109040A4022D00840D8
:101AF00090421FD02078800631D528692A69884312
:101B00000121C9040A432A612A698A432A6128619A
:101B1000C0050FD5FFF7DCFC009008E0FFF7D8FC0C
:101B20000099411A2848814201D90320F8BD28694B
:101B30008005F3D52078800611D561688803800F71
:101B4000032805D132680005824301400A43326010
:101B50002869032261681204114008432861002F9C
:101B600004D0B16B012000078143B1632078800766
:101B700005D5E8680C218843A1680843E86020780F
:101B8000400706D5E868032189028843E1680843D5
:101B9000E8602078000706D5E86803210903884338
:101BA00021690843E8602078000606D5E86803212B
:101BB0008904884361690843E8600020F8BD00009B
:101BC000401002400070004088130000F8B50E4637
:101BD000050038D05E480068C007C00FB04214D27C
:101BE0005B4C20684008400030432060FFF770FCE9
:101BF000074605E0FFF76CFCC11B564881427AD8C6
:101C00002068C007C00FB042F4D12878524C80073A
:101C100005D5E068F0218843A9680843E06028788A
:101C2000C00752D06868022806D0032807D0216870
:101C300001280AD0890504E02168890301E02168B0
:101C40008901002903DB0120F8BD4907F9E7E168B4
:101C5000890889000143E160FFF73AFC074668689C
:101C600002280AD0032814D001281ED029E0FFF74B
:101C70002FFCC11B374881423DD8E0680007800F28
:101C80000228F4D121E0FFF723FCC11B3148814237
:101C900031D8E0680007800F0328F4D115E0FFF782
:101CA00017FCC11B2B48814225D8E0680007800F34
:101CB0000128F4D109E0FFF70BFCC11B2548814244
:101CC00019D8E0680007800FF5D121480168C907DD
:101CD000C90FB14217D90168490849003143016071
:101CE000FFF7F6FB074608E005E0FFF7F1FBC11B35
:101CF0001848814201D90320F8BD15480068C00783
:101D0000C00FB042F1D12878400706D5E06807211E
:101D100009028843E9680843E0602878000707D58E
:101D2000E0680721C90288432969C9000843E060C7
:101D300000F03AF8E168094A0906090F515CC84009
:101D40000749086007480068FFF756FEF8BD000025
:101D5000002002408813000000100240583600089E
:101D60002C00002024000020044805490068C968B0
:101D7000044A4905490F515CC84070472C000020B7
:101D80000010024071360008044805490068C9681F
:101D9000044A8904490F515CC84070472C00002058
:101DA000001002407136000870B51A4AD3681A490B
:101DB0000C2018408D0004280CD04E00082810D0AC
:101DC0000C2810D050680004410F0120C003491CAA
:101DD000884070BD1068C00601D5084670BD284611
:101DE00070BD304670BD98020C4C000F205C1B0289
:101DF0009C0FD368641CDB0301D5314603E01268F5
:101E0000D20600D4294601F0F9FA22460023FEF753
:101E1000EBF970BD0010024000093D006836000873
:101E2000FEB505007ED0F74CE7680C20E668074059
:101E30000120000406402878C00747D0082F05D0AD
:101E40000C2F0AD101200004864206D120688003AD
:101E50003CD568680028E5D038E0012069680004B6
:101E6000814203D121680143216011E00523012251
:101E70001B0492049942216802D111432160F1E7C9
:101E800081432160216801400091206890432060D7
:101E9000686800280DD0FFF71BFB009005E0FFF7F6
:101EA00017FB0099401A64287ED820688003F6D575
:101EB0000CE0FFF70DFB009005E0FFF709FB009930
:101EC000401A6428F0D820688003F6D42878800768
:101ED0005DD5E868810604D5226820210A43226086
:101EE00088430923042F0DD00C2F01D1002E09D0D7
:101EF00000283CD02168994301432160FFF7E8FAAC
:101F0000064628E02168490701D500288AD0616883
:101F10001F22120291432A69120211436160216853
:101F2000994300E091E101432160FFF73DFFE16843
:101F300009060A0FB449895CC840B4490860B4482E
:101F40000068FFF759FD002874D120E0FFF7C0FAC0
:101F5000801B0228A8D820684007F7D560681F2199
:101F60000902884329690902084360600FE020687C
:101F7000400840002060FFF7ABFA064604E0FFF798
:101F8000A7FA801B02288FD820684007F7D428784A
:101F9000C00661D5002F0DD0A86900284BD020685D
:101FA000FF210131084300E0C6E02060FFF790FA0E
:101FB00006462DE02068800502D5A8690028A5D036
:101FC0006068072149038843296A084360606068A4
:101FD000297F0002000A090608436060286A410B55
:101FE0000120C003491C8840E16809060A0F8649A0
:101FF000895CC8408549086085480068FFF7FCFC9B
:10200000002817D128E0FFF763FA801B0228A1D827
:1020100020688005F7D56068072149038843296A4D
:10202000084360606068297F0002000A09060843CF
:10203000606011E0E1E02168FF2001308143216010
:10204000FFF746FA064604E0FFF742FA801B022833
:1020500072D820688005F7D428786E4E000724D502
:1020600068690028306910D0012108433061FFF70A
:102070002FFA009005E0FFF72BFA0099401A02288A
:102080005AD830698007F6D50FE04008400030612B
:10209000FFF71EFA009005E0FFF71AFA0099401AC0
:1020A000022849D830698007F6D42878400765D5DA
:1020B00000200290A06BC00006D4A06B012109078C
:1020C0000843A0630120029053480168C90511D458
:1020D0000168821511430160FFF7FAF9009005E0ED
:1020E000FFF7F6F90099401A642825D84A48006895
:1020F000C005F5D5FF20AA680130824203D13169BD
:102100000143316111E001218902002A07D0052332
:102110001B029A4203D132690A433261EFE7326906
:1021200082433261306988433061A86800280FD04B
:10213000FFF7CEF9009007E05EE0FFF7C9F90099DC
:10214000411A3648814257D830698005F5D50DE0EF
:10215000FFF7BEF9009006E0FFF7BAF90099411ABF
:102160002E48814248D830698005F5D4029800286D
:1021700004D0A06B012109078843A063686A002886
:1021800065D00C2F4CD0012636060228206805D0D9
:10219000B0432060FFF79CF905462FE0B043206074
:1021A000FFF796F9074604E0FFF792F9C01B0228F3
:1021B00022D820688001F7D4E96AA86AE268084357
:1021C000296BFD231B049A4311430843E0602068F8
:1021D00030432060FFF77CF9054604E0FFF778F90B
:1021E000401B022808D820688001F7D52FE0FFF7B0
:1021F0006FF9401B022801D90320FEBD2068800131
:10220000F5D424E000100240583600082C000020CD
:10221000240000204010024000700040881300009D
:102220000128EAD0E06801210904AA6A014091422C
:102230000BD10F218904EA6A0140914205D10321A3
:1022400089050840296B884201D00120FEBD00208D
:10225000FEBD0000094910B5401E884201D9012089
:1022600010BD074C60610321081F01F0EDF800204C
:10227000A06107202061002010BD0000FFFFFF00CB
:1022800000E000E07047704770470000F8B5026852
:102290000446D06911689368A44D06462E40254631
:1022A0008035002E71D0A24FDE07F60F0F40374366
:1022B0007ED0C70706D0CF0504D5012717626A680C
:1022C0003A436A60820708D5DA0706D027680222F7
:1022D0003A626A6804273A436A60420708D5DA0717
:1022E00006D0236804221A626A6802231A436A60CD
:1022F000020709D520220A40324305D0236808226C
:102300001A626B6813436B60020509D54A0107D551
:1023100001222368D2021A626A6820231A436A6083
:102320006A68002A39D0800606D5880604D5A16ED1
:10233000002901D0204688476868216889684906D5
:1023400002D4282108422DD0204600F0AFFD21689C
:102350008868400622D5EFF31080012282F31088AE
:102360008A6840239A438A6080F31088606F00284F
:1023700014D070498163606FFEF7A2FF00280CD073
:10238000606F816B08E000E012E0860610D58E06D3
:102390000ED5A16EAFE020468847F8BD2046FFF776
:1023A00073FFF8BD2046FFF76FFF00206860F8BD9F
:1023B000266E012E7DD1C6067BD5CE0679D510239B
:1023C000136222689068264640064036002849DAA3
:1023D000616F086840680004000CE8D0378B8742C2
:1023E000E5D9708308680068800634D4EFF3108064
:1023F000012181F3108811681F01B943116080F336
:102400001088EFF31080012181F3108821688A6819
:10241000520852008A6080F31088EFF31080012187
:1024200081F3108821688A684027BA438A6080F364
:1024300010882020286000202066EFF31080012102
:1024400081F3108821680A689A430A6080F3108833
:10245000606FFEF713FF02206066308B718B401AAD
:1024600081B234E0308B718B401A81B2708B0028BE
:102470009DD000299BD0EFF31080012686F31088B1
:102480001668FF272137BE43166080F31088EFF3EC
:102490001080012282F31088226896687608760000
:1024A000966080F310882020286000202066A066B7
:1024B00000E010E0EFF31080012282F31088226820
:1024C00015689D43156080F31088022060662046E1
:1024D000FFF7D8FEF8BDC50208D55B0206D501207E
:1024E000000510622046FFF7CEFEF8BD030606D5B4
:1024F0000B0604D5E16E002900D04CE7F8BD40067C
:10250000FCD54806FAD52046EFF31081012383F36A
:10251000108813684024A343136081F3108820219E
:10252000C1670021C16600F01DF9F8BD0F08000069
:1025300020010004992E000810B5040003D0E06FBC
:10254000002802D007E0012010BD002178200155AD
:10255000204600F027F82420E06720680168490839
:1025600049000160204600F0A9FD0128ECD0606A16
:10257000002802D0204600F0C8FB206841680922EC
:10258000D20291434160206881682A229143816090
:1025900020680168012211430160204600F01AFC06
:1025A00010BD000010B586B0044614216846FDF742
:1025B0005DFF15492068884223D11448816B0122B0
:1025C000520411438163C16A01221143C162C06A8E
:1025D0006946104005900C200090022001900020D8
:1025E0000290032003900420049005200007FEF7CA
:1025F0009FFE002211461C20FFF738FA1C20FFF72F
:1026000029FA06B010BD000000440040001002404E
:1026100070B580231B58202B01D0022070BD0029EB
:102620000BD0002A09D0012483682403A34206D1D9
:102630000369002B03D1CB0701D0012070BD00231B
:1026400003660B4B04689C420ED063681B020BD5DB
:10265000EFF31083012585F3108825680126B6065F
:102660003543256083F3108800F016FE70BD00002E
:102670000048004010B50A490068096888420ED138
:1026800007499831CB8808460A7908301A54C88817
:102690000122401CC8800248091DFFF7B9FF10BD88
:1026A00084000020FFB50446C06F83B017460D4676
:1026B000202802D0022007B0F0BD002D0BD0002F43
:1026C00009D00120A1680003814206D120690028B9
:1026D00003D1E80701D00120EDE70021842001515A
:1026E0002120E067FEF7F4FE26464036019037824F
:1026F00077820120A1680003814202D1206900286D
:1027000002D02F46002511E000270FE00022802193
:10271000204600F025FE002815D1002F17D0216893
:10272000387888627F1C708A401E7082708A019B94
:10273000002806980090E9D100224021204600F0B0
:102740000FFE00280AD02020E0670320B3E7288886
:102750002168C005C00D8862AD1CE4E72020E06759
:102760000020A8E770470000F7B582B0002564207C
:1027700016460F4600902C462B4601AA882101954B
:102780000298FFF767F8002806D026480178032949
:1027900042D2491C017041E03220FEF7B7FD7D2096
:1027A000C0000090042301AA88210298FEF7CAFF06
:1027B000050033D169468888C98840BA49BA80047F
:1027C0008908800C0091FEF732FB0022164BFEF7C1
:1027D000ABF80022154BFEF72DFBFEF7C9FA30804F
:1027E0000098FEF724FB00220F4BFEF79DF8002215
:1027F0000F4BFEF71FFB00220E4BFEF772F8002274
:102800000A4BFEF717FBFEF7B3FA3880054801784C
:10281000002903D0047001E03C803480284605B0D4
:10282000F0BD00000000002080FFCF4000005940B4
:1028300000A0644000004440FEE701688A69D2437A
:10284000920701D400228A6200688169C943C907DE
:1028500003D081690122114381617047F7B50446B5
:10286000006882B0816900262746C9064037354690
:102870000092002945DA1021C16132E00398401C22
:102880002FD0FEF725FE0099411A0398814201D806
:10289000002826D120684168012292031140BA78AD
:1028A0008369DB431B0417D401239B03994213D094
:1028B000202A11D0416819434160FEF709FE0090BB
:1028C0000AE0FEF705FE01460098081A192803D908
:1028D00020200543012604E020688069C04380066B
:1028E000EFD420688069C043800602D5002EC5D091
:1028F00004E0002E02D121682020C8610420054395
:10290000012621688869C20504D5012215431202F7
:10291000CA610126410508D508210D43CA01216875
:10292000CA610126800502D40AE0800506D502208E
:10293000054321680002C861012601E0002E0FD086
:102940002046FFF77AFF20684168074A114041603E
:10295000606C28436064202078700020B870387064
:10296000304605B0F0BD000000E800FE890510B556
:10297000890D12041143029C194302682143490046
:1029800050684908630D034C234398430843506043
:1029900010BD0000FF63FF03F8B51E4617460D4645
:1029A00004461EE0701C1CD0FEF792FD0699401AEA
:1029B000B04201D8002E14D120688169284688438E
:1029C0000DD00020B8420CD1616C2020014361641D
:1029D000403460700020A07020700120F8BD0120FC
:1029E000F0E7206881692846884304D00020B84277
:1029F000D8D00020F8BD0120F9E70000F7B5202667
:102A000000270546044640353DE02046029A0199DC
:102A1000FFF724FF002801D00120FEBD2068806957
:102A2000C04380061BD420688169C943490702D48A
:102A3000218D00292CD18169C943C90604D41021F4
:102A4000C1610420606400E067642068C66120689A
:102A50004168104A114041606E70AF7011E0FEF79E
:102A600037FD0299411A0198814201D800280AD104
:102A700020688069C043400705D5606C30436064BE
:102A80006E702F70C8E720688069C0434007BCD4CF
:102A90000020FEBD00E800FE70B516460D46044657
:102AA0001EE0324629462046FFF7D8FE002801D016
:102AB000012070BDFEF70CFD801BA84201D8002D3F
:102AC0000ED120688069C043800609D5616C202042
:102AD00001436164403460700020A0702070E7E71B
:102AE00020688069C0438006DBD4002070BD70B5CB
:102AF00016460D46044620E0324629462046FFF79A
:102B0000ADFE002801D0012070BD681C15D0FEF775
:102B1000DFFC801BA84201D8002D0ED120688069FF
:102B2000C043800709D5616C2020014361644034B3
:102B300060700020A0702070E5E720688069C043C5
:102B40008007D9D4002070BD10B513481149016029
:102B5000124941600021816001614161816101226E
:102B6000C161C2600162FEF703FD002801D072B6A8
:102B7000FEE700210848FEF7B1FC002801D072B63C
:102B8000FEE700210448FEF7CEFC002801D072B613
:102B9000FEE710BD00540040300000205B3D3000D7
:102BA00010B50C480A490160E12149024160002149
:102BB0008160C16001618161C1610C220162426179
:102BC0004162FFF7B9FC002801D072B6FEE710BDE4
:102BD000004400408400002070B5054609480022EA
:102BE000094C0BE0AB5C58400823C60702D04008F4
:102BF000604000E040085B1EF7D1521C8A42F1DBC6
:102C000070BD0000FFFF000001A00000F0B5044609
:102C10002568069F059E2970216800204A70226859
:102C2000190A91702168CB702268310A11712168EC
:102C300006254E7106E02268395C51556D1C401C1A
:102C4000ADB280B2B042F6D329462068FFF7C4FF88
:102C50000146206841556D1C2268A8B2090A11542A
:102C6000401CA080F0BDFEE7704710B504682170DD
:102C700001684A700068837010BD704710B5FEF798
:102C80009FFE10BD30B599B034216846FDF7EEFBCC
:102C900014210DA8FDF7EAFB182112A8FDF7E6FBA9
:102CA000184801680322D2029143C21489180160B6
:102CB000022000900024102009940125049003951F
:102CC0006846FFF7ADF8002801D072B6FEE70F2086
:102CD0000D900F94109400210E9511940DA8FEF7FD
:102CE00075FF002801D072B6FEE70A2012901494F6
:102CF000169412A8FEF7BEFE002801D072B6FEE7B9
:102D000019B030BD00700040704710B5818CC90704
:102D100007D001684A6801235B049A43836A1A4317
:102D20004A60818C890707D501684A6801231B0422
:102D30009A43C36A1A434A60818C490707D50168E0
:102D40004A6801239B049A43036B1A434A60818CAF
:102D5000090707D501684A680123DB039A43436BDF
:102D60001A434A60818CC90607D50268916801231D
:102D70001B039943836B19439160818C890607D5A6
:102D800001688A6801235B039A43C36B1A438A6014
:102D9000818C490612D503685A6801210905046C23
:102DA0008A4322435A60026C8A4207D10268516802
:102DB00003235B059943436C19435160818C0906D9
:102DC00007D501684A680123DB04806C9A430243FB
:102DD0004A6010BDFEB507460025803704467D6079
:102DE000FEF776FB019020680068264600076036F3
:102DF000002819DA274800900121002249052046C1
:102E0000019B00F0ADFA00280ED0EFF310800121F5
:102E100081F3108821680A6880239A430A6080F34E
:102E200010882020E06729E020680068400728D546
:102E3000184800900121002289052046019B00F0DE
:102E40008FFA00281DD0EFF31080012181F3108844
:102E500021680A68FF2321339A430A6080F31088AF
:102E6000EFF31080012181F3108821688A685208ED
:102E700052008A6080F31088202038603576032065
:102E8000FEBD2020E0673860256665663576002047
:102E9000FEBD0000FFFFFF0110B5806A0022014661
:102EA00040314A834A82FFF7EFF910BD10B5EFF3C6
:102EB0001081012282F3108802681368FF242134F4
:102EC000A343136081F31088EFF31081012282F392
:102ED0001088026893685B085B00936081F3108838
:102EE000016E01290BD1EFF31081012282F31088CA
:102EF000026813681024A343136081F31088202212
:102F000080210A5000210166816610BD70B501461E
:102F10004031034680338C8B1D680268222D04D01B
:102F2000906908210843906170BD526A456D224046
:102F30002A80426D921C42654A8B521E4A834A8BFC
:102F4000002AF1D1EFF31082012484F31088046881
:102F50002568FF262136B543256082F31088EFF3FC
:102F60001082012484F310880468A5686D086D0040
:102F7000A56082F3108820221A60002383664366CE
:102F8000174A046894420ED0626812020BD5EFF320
:102F90001082012585F3108825680126B606B54301
:102FA000256082F31088026E012A02D0FFF762FBCF
:102FB00070BD0366EFF31082012383F31088046869
:102FC000256810239D43256082F310880268D46928
:102FD000E443E40600D41362098BFFF753F970BD94
:102FE0000048004070B501464031034680338C8B69
:102FF0001D680268222D04D0906908210843906161
:1030000070BD526A2240446D2270426D521C42656E
:103010004A8B521E4A834A8B002AF1D1EFF3108269
:10302000012484F3108804682568FF262136B543FF
:10303000256082F31088EFF31082012484F3108856
:103040000468A5686D086D00A56082F310882022D1
:103050001A60002383664366174A046894420ED0C0
:10306000626812020BD5EFF31082012585F31088F8
:1030700025680126B606B543256082F31088026EE6
:10308000012A02D0FFF7F6FA70BD0366EFF3108253
:10309000012383F310880468256810239D4325606D
:1030A00082F310880268D469E443E40600D4136212
:1030B000098BFFF7E7F870BD00480040F8B50446FB
:1030C000016880682369E669184363690025334312
:1030D00018436A4A0B686A4E334003430B6020680A
:1030E000416803231B039943E36819434160216846
:1030F000A069914201D0236A18438B680B263602DF
:10310000B34303438B605F4923685F488B420AD116
:10311000C0680C21084027D0042829D0082825D0D1
:103120000C2811D10EE093420ED1C1680320800219
:10313000014019D001208002091A19D0091A15D0AE
:10314000814201D1082700E010274F494F484039FC
:103150008600934234D1002F0CD0022F0DD0042FC3
:1031600010D0082F7ED128E00027EEE70227ECE7F9
:103170000427EAE7FEF7F8FD06E00968C90605D46A
:10318000304603E0FEF710FE002872D0626851005E
:103190005118814266D81103814263D3010E0602A1
:1031A0005008002330185941FDF71EF80321090289
:1031B000374A411A91425AD954E00120C003E5E749
:1031C0000122E369D20393422AD13B0000F02EF999
:1031D0000906090C4A114A4A4A264A00FEF7C4FD6C
:1031E00009E0FEF7D1FD06E00968C90605D43046BE
:1031F00003E0FEF7D9FD00283BD0616840004A0893
:103200008018FDF735F90146224A1039914229D834
:10321000511C01400007400F084328E01046ECE72E
:103220003B0000F003F90906090C1F111F1F1F21A5
:103230001F00FEF799FD09E0FEF7A6FD06E009680C
:10324000C90605D4304603E0FEF7AEFD002810D0D5
:1032500061684A081018FDF70BF902460D49103A4B
:103260008A4203D9012504E01046F1E780B22168C3
:10327000C8600020A066E0662846F8BD004800400F
:10328000F369FFEF004400404010024000093D0098
:10329000FFFC0F00EFFF000070B5416501464031B3
:1032A0000A834A8300238366012284681203FF2570
:1032B000944204D10469002C13D1264C0AE07F26E5
:1032C000002C09D001252D07AC420CD10469002C3B
:1032D00005D03F248C8307E00469002C01D08E8345
:1032E00002E08D8300E08B83014680314B60222316
:1032F0000B60EFF31081012383F3108803689C684F
:1033000001252C439C6081F310888168914202D191
:10331000016900290ED010498166016900290BD08E
:10332000EFF31081012282F3108800680268FF2306
:10333000213309E009498166EFF31081012282F30C
:1033400010880068026820231A43026081F3108805
:10335000002070BDFF010000E52F00080D2F0008C0
:10336000FFB5064681B080360546044660350A9FA3
:103370002EE0781C2CD0FEF7ABF80499401AB84226
:1033800014D8002F12D020680168490720D5C169E0
:10339000C94309070CD4082707622046FFF786FDBA
:1033A000776000202876012005B0F0BD0320FBE700
:1033B000C069C04300050BD401202168C002086227
:1033C0002046FFF773FD2020706000202876EDE78F
:1033D0002068C1690298884305D000210398814282
:1033E000C7D00020E0E70121F8E7000010B502484F
:1033F000FEF74CFF10BD000084000020F8B5040C5F
:103400008BB2264682B25E430D0C1046370C5843F1
:10341000360480190021794116466E43370C360474
:103420008019794126466E438919F8BD30B4744637
:10343000641E2578641CAB4200D21D46635D5B00B0
:10344000E31830BC184700008307FF22DB0E9A40C8
:103450008907090E9940002808DB830809489B006A
:103460001B18186890430843186070470007000F46
:103470000838830804489B001B18D8699043084308
:10348000D861704700E400E000ED00E088B06A48D1
:10349000044698342060FEF79BFAFFF7F3FB1421F3
:1034A0006846FCF7E3FF6548C16A01263143C16203
:1034B000C06A052530402D070590002210212846BE
:1034C000FEF700F8102000900220002702900196DD
:1034D000694603972846FDF72BFFFFF735FBFFF7FB
:1034E0005FFB0122211D2068FFF792F8544E012551
:1034F0006804010C504805231A465438FEF792F828
:10350000002800D135706D1C802DF1DB7D26F60082
:10351000FDF7DEFF4A4DE968884200D2EF60FDF713
:10352000D7FFE968401AB0422DD9454A4248121DDA
:10353000911E5438FFF718F93F4804230222EB5E2E
:10354000AA5E40A18830FCF7D1FE3B488830FCF7EA
:103550004DFF394982B2334688313748FFF7A2F828
:10356000334601223BA13448FFF79CF86988344870
:103570000A12801D02704170801C07702979417009
:10358000FDF7A6FFE8602C489830FDF733FE0128D0
:10359000BED1207A66284AD104A802902648E18844
:1035A0009E30081842780078150205432248891E8B
:1035B000A030FFF711FB627AA84231D1032A36D13D
:1035C000608943BA012B1BD0022B1FD08322022318
:1035D000662102A8FFF749FB05252D0701221021CE
:1035E0002846FDF76FFF68468289334612480299E4
:1035F000FFF758F8002210212846FDF763FF16E078
:103600000F49891D02200191009004E00C48083008
:10361000022300930190662102A8FFF7F7FADBE787
:103620008032D2B20123662102A8FFF71EFB0248B6
:103630009830FDF711FE6BE7840000200010024077
:103640001000002054656D3A25642048756D693A74
:10365000256400000D0000000000000000000000D4
:103660000102030406070809030406080C101820C9
:1036700030000000000102030480807F7E7D7C7B9F
:103680007A7978777676757473727171706F6E6E01
:103690006D6C6C6B6A6A69686867666665646463AA
:1036A0006362616160605F5F5E5E5D5D5C5C5B5B31
:1036B0005A5A5959585857575656555555545453A0
:1036C0005352525251515050504F4F4F4E4E4D4DFC
:1036D0004D4C4C4C4B4B4B4A4A4A49494948484847
:1036E0004747474746464645454544444444434387
:1036F0004343424242424141410000001C3700081E
:103700000000002030000000040100084C370008D1
:1037100030000020600700002001000800000000C9
:103720000000000000000000000000000000000099
:103730000000000000000000000000000100000088
:0C37400004000000000000000000200059
:04000005080000C12E
:00000001FF
