:020000040800F2
:1000000098050020D5000008A527000871210008E8
:1000100000000000000000000000000000000000E0
:100020000000000000000000000000008F28000811
:10003000000000000000000065280008E528000816
:100040000501000805010008050100080501000878
:100050000501000805010008050100080501000868
:100060000000000005010008050100080501000866
:100070000501000805010008000000000501000856
:100080000000000000000000000000000000000070
:100090000501000800000000000000000501000844
:1000A0000000000005010008000000000000000042
:1000B0007531000805010008000000000000000084
:1000C0000348854600F0E8F9004800477932000807
:1000D000980500200C4880F308880C480168090E38
:1000E0000B4A914205D10B480B4901600B480C4962
:1000F00001600C4880470C480047FEE7FEE7FEE73A
:10010000FEE7FEE7FEE7000098050020040000007F
:100110001F000000341002400100000000000140F8
:100120000000000081290008C100000830B50B461E
:10013000014600202022012409E00D46D5409D42C1
:1001400005D31D469540491B254695404019154647
:10015000521E002DF1DC30BDF0B51FB40646002064
:1001600082B005464024019100901BE0019922468F
:100170000F46304600F03DF9049A059B801A9941DC
:1001800010D310461946224600F023F9361A8F4143
:100190000197224601200021009F00F01AF938182B
:1001A0004D4100902046641E0028DFDC019B009832
:1001B0002946324607B0F0BDD2B201E00270401CC1
:1001C000491EFBD270470022F6E710B513460A46D7
:1001D00004461946FFF7F0FF204610BD421C017887
:1001E000401C0029FBD1801A7047F8B502464A40EE
:1001F000D40F42004B0052085B089A4202D20246DA
:10020000084611464A0023D0C30D4A00DDB2120E43
:10021000AD1A202D35DA49020126490AF6058A1958
:10022000002C00D0524220214F1B1146B9402A41D8
:100230001018C20D9A4221D0002C17D0012D08DCD5
:10024000DA05801AD20F8019D207DBB200F0EAF883
:10025000F8BDDA05801A012340001B06C01880187B
:100260005A428018CA0F1043490007E04908C207E4
:100270001143DA05801A80194008801800F0CAF886
:10028000F8BD61000122511A001BF7E70122D207D5
:100290005140AAE70122D2075040A6E7024670B5B6
:1002A0004A40D30FDB0740002DD04A002AD0010E70
:1002B000140E000212020919400A520A8418E501BC
:1002C00004465443000A120A2E045043A41942194A
:1002D000200CC543AA18120C0125AD03521C52195B
:1002E00012047F39240400D0521C104301D4400072
:1002F000491EC2B20C06C0092018401C4008802AC2
:1003000002D003E0002070BD40084000002900DA60
:100310000020184370BD70B502464A40D50F40001A
:100320004A00ED0740085208002814D0002A12D0D5
:10033000C40DD30D41020120C0055202490A520AE0
:10034000E41A091812187D34914201D3641C00E0AC
:100350004900002C01DA002070BD0023914201D336
:10036000891A0343400849000028F7D100290AD020
:10037000914202D10121C90705E0914201D2012138
:1003800001E00121C943E005C018401900F042F81E
:1003900070BD10B500229623114600F043F810BD41
:1003A000C20F410040020123400ADB05D207090EBB
:1003B000C0187F2901DA00207047962903DC9623B4
:1003C000591AC84001E096398840002AF4D04042CA
:1003D000704710B5202A04DB0146203A91400020E6
:1003E00010BD914020239C1A0346E34019439040DE
:1003F00010BD10B5202A04DB0846203AD040002169
:1004000010BD0B46D340D0402024A21A914008438F
:10041000194610BD002904DA401C490001D14008EA
:100420004000704770B40024050C05D1102400046E
:1004300002D1002921D01124050E01D10002083477
:10044000050F01D10001241D850F01D18000A41CDE
:10045000002801DB4000641C002908D020252E1B49
:100460000D46F540A14000D0012129430843010673
:100470001B1B000ADB1D02D5002070BC7047DB058A
:10048000181880180029F8DA401C4900F5D170BC12
:100490004008400070470000064C0125064E05E06C
:1004A000E36807CC2B430C3C98471034B442F7D395
:1004B000FFF70AFE1434000834340008FFB589B091
:1004C00001206946129E0870087108721F46087361
:1004D000002B02DA784280B200E0B8B20590002E1C
:1004E00002DA704280B200E0B0B2049068460A9925
:1004F00000F020FB01A80B9900F01CFB02A8059955
:1005000000F018FB03A8049900F014FB504849219F
:100510000170462141703D21817069460978C91CEE
:10052000CDB2691ECCB20DE00A210A98FFF7FEFD9C
:10053000474A303111550A9006986946401E641E9C
:100540000870E4B26846007806900028ECD1404973
:100550002C204855684600792818401CC4B2601EFB
:10056000C5B207900DE00A210B98FFF7DFFD384A6E
:10057000303151550B9006986946401E6D1E08712A
:10058000EDB26846007906900028ECD12C20304965
:10059000002F085501DA2D2002E0002F03DD2B206B
:1005A0000A19507001E00798C4B26846007A201812
:1005B000801CC4B2601EC5B206900CE00A210598EA
:1005C000FFF7B4FD224A303151557F1E0590684631
:1005D0006D1E0772EDB26846077A002FEED12C200F
:1005E0001B4D002E285501DA2D2002E0002E03DDE0
:1005F0002B202919487001E00698C4B26846007B98
:100600002018801CC4B2601EC6B20BE00A210498F8
:10061000FFF78CFD3031A9557F1E04906846761E89
:100620000773F6B26846077B002FEFD12020152C08
:1006300003D22855641CE4B2F9E70549099802F091
:1006400027F90449099802F023F90DB0F0BD000024
:100650007C00002012000020FFB581B01F46164626
:10066000044602F08EF90546401C02D0012D05D04B
:1006700024E0AD49204602F00BF91FE002981A2150
:100680000170E1204002A8493060891D204602F037
:10069000FFF82046316802F075FD0122211D206817
:1006A00001F04AFC0A980021415E00910298002363
:1006B0000178FB5E3268A52000F008FAA81C02D081
:1006C000022D0DD05EE00A990020085E009002988D
:1006D00000230178FB5E32682046FFF7EFFE6CE0F6
:1006E0000620002106E0401C491C6279C0B2C9B254
:1006F000824204D022189279303A092AF3D9401E56
:10070000C2B2481E022839D80020012904D002298B
:1007100006D0032925D00DE0A0188079303808E0F4
:10072000A018817940790A22504321221201801AAF
:1007300022E080B2411EFE2920D8029908707A4931
:100740002046891D02F0A4F80A980021415E00911C
:10075000029800230178FB5E3268A52000F0B6F90C
:1007600010E0A018417982790A2359435118007981
:10077000642250436D4A80180818DAE76A49204617
:1007800002F086F8032D16D10620002106E0401C59
:10079000491C6279C0B2C9B2824204D0221892794F
:1007A000303A072AF3D9401EC0B2012908D05E4969
:1007B000204602F06DF8042D25D0281D23D077E0C7
:1007C00020188079584930380006800D10310858BB
:1007D00030600A39204602F05BF82046316802F0AA
:1007E000D1FC0122211D206801F0A6FB0A980021FE
:1007F000415E0091029800230178FB5E3268A520DB
:1008000000F064F9D7E70820002106E0401C491CED
:100810006279C0B2C9B2824204D022189279303AC9
:10082000092AF3D9401EC2B2481E02283CD8002033
:10083000012904D0022906D0032911D00DE0A01807
:100840008079303808E0A018817940790A22504335
:1008500021221201801A0EE080B2042D0DD00DE08D
:10086000A018417982790A235943511800796422EA
:1008700050432E4A80180818EEE73880291D01D110
:100880004042388028492046891D02F001F80A9824
:100890000021415E0091029800230178FB5E3268DE
:1008A000A52000F013F903E01F49204601F0F0FFF6
:1008B000052D01D0681D16D10820002106E0401C3E
:1008C000491C6279C0B2C9B2824204D0221892791E
:1008D000303A092AF3D9401EC0B2012905D0124985
:1008E000204601F0D5FF05B0F0BD201880793038E2
:1008F000C0B2052D01D10A9908806D1D02D1414277
:100900000A98018008492046891D01F0C1FF0A9814
:100910000021415E0091029800230178FB5E32685D
:10092000A52000F0D3F8DEE70C00002030EBFFFF3D
:1009300070B5044640790025114E002814D0708807
:1009400000280BD000F09AFA7168401A09286079E3
:1009500031880BD988420BD101250EE000F08EFAC8
:100960007060607930800120708006E0884204D099
:1009700000F084FA706060793080284670BD000015
:100980000400002000224271027111464318491CE4
:10099000C9B29A711429F9D37047000010B50849FB
:1009A00000234B6107494A684C1522434A604A6854
:1009B000082422434A60C009C001036010BD000042
:1009C00080010020002002400068704710B5214AD5
:1009D00000209169CB05204904D5486902231843BA
:1009E0004861901593699B0505D54B690124234304
:1009F0004B616302184393695B0505D54B69082475
:100A000023434B61E301184393691B0505D54B69EB
:100A1000042423434B616302184393699B0405D567
:100A20004B69102423434B616302184393699B0372
:100A300004D54C6920231C434C6118439369DB03A4
:100A400005D54B69402423434B61A10208439061C3
:100A500010BD0000002002408001002070B5044657
:100A600000F00CFA0546184E0AE0601C08D0002C75
:100A700004D000F003FA401BA04201D9032070BD4E
:100A8000B069C007F1D1B069800701D50220B0611B
:100A9000B069C00511D4B06980050ED4B0694005B5
:100AA0000BD4B069000508D4B069800405D4B069DE
:100AB000800302D4B069C00303D5FFF787FF01208C
:100AC00070BD002070BD000000200240FFB585B061
:100AD0000D4606460E9F00F0FDF800200821144C3C
:100AE000009002910390019403A9684600F08CF8ED
:100AF00032462146022000F0CFF82A46211D02206E
:100B000000F0CAF80A4902200831079A00F0C4F838
:100B1000074902200C31089A00F0BEF804493A4611
:100B20001031022000F0B8F800F0A8F809B0F0BDCC
:100B3000003C000810B50A46044607E020780A2168
:100B4000401C20701046FFF7F1FA02460A2AF5D23F
:100B500010BD30B5014620314A790023022A04D065
:100B60000422C2630B71012030BD026814680E2597
:100B7000AC43146002681468640864001460446C38
:100B80001C22144001252A46006CA24042604D718F
:100B90000B71184630BD70B50024014620314A79EA
:100BA000022A03D00421C163012418E002681368FB
:100BB0000E25AB431360026813685B085B0013608B
:100BC000436C1C22134001252A469A40036C5A604C
:100BD0004D7100220A71816B002900D088472046A0
:100BE00070BD000070B5044600F048F90546601C71
:100BF00002D004480078241800F040F9401BA042BD
:100C0000FAD370BD6C000020F8B5194F0546387C4A
:100C10000E46012807D0012038741648FFF71EFF42
:100C2000002802D020E00220F8BD0021C943316035
:100C30006C6813E02046FFF7B1FE0E48FFF70EFF89
:100C40000D494A6808239A434A604A684B159A43FB
:100C50004A60002801D0346006E08034A9686A68E0
:100C6000C9018918A142E5D800213974F8BD0000F6
:100C70008001002050C30000002002400548416868
:100C8000022211434160416801221143416000206A
:100C90007047000000200240F8B50C4C1646207C3E
:100CA0000F46012808D0012020740948FFF7D6FE1E
:100CB0000025002802D006E00220F8BD65613E60F4
:100CC0000348FFF7CBFE2574F8BD0000800100202B
:100CD00050C3000011484168C9070BD0EFF31081E1
:100CE00072B60F4AC2600F4AC26081F31088416831
:100CF000C9070ED1416889070DD5EFF3108172B68F
:100D0000094A0261094A026181F31088406880073C
:100D100001D50120704700207047000000200240EC
:100D2000EFCDAB8905040302BFAE9D8C16151413DD
:100D3000F0B500228CE0012797403B407ED00C7933
:100D4000A407A40F012C01D0022C10D185685400F7
:100D50000326A640B543CE68A6402E43866044686D
:100D60000D79BC43ED06ED0F9540254345600C79A8
:100D7000E443A40708D0C56854000326A640B54341
:100D80008E68A6402E43C6600C79A407A40F022CDF
:100D90000CD1D408A40027183D6A5407E40E0F268E
:100DA000A640B5430E69A6402E433E620568540036
:100DB0000326A640B5430E79B607B60FA6402E43CC
:100DC00006604C68A403A40F41D0244C666B012537
:100DD0002E4366639508224CAD002F19BD68940719
:100DE000240F0F26A640B54305263607B04201D191
:100DF00000260AE01B4EB04201D1012605E01A4E42
:100E0000B04201D1022600E00626A6402E43BE6075
:100E1000164DAC684E689C43F60200D51C43AC608E
:100E2000EC684E689C43B60200D51C43EC606C68CD
:100E30004E689C43B60300D51C4300E007E06C609D
:100E40002C684E689C43F60300D51C432C60521C52
:100E50000B681C46D44000D06DE7F0BD0010024086
:100E60000000014000040050000800500004014050
:100E7000002A01D081617047816270470148806813
:100E8000704700006C00002070B502464032537875
:100E9000202B1CD11378012B19D00124147024238A
:100EA000537003681D68A5431D6003681D68260311
:100EB000B5431D6003681D680D431D60006801682F
:100EC00021430160202050700020107070BD02206E
:100ED00070BD70B5024640325378202B1BD1137879
:100EE000012B18D0012515702423537003681C684A
:100EF000AC431C6003681C680F263602B443090229
:100F00002143196000680168294301602020507066
:100F10000020107070BD022070BD000070B504008C
:100F200006D02546403568780026002802D005E026
:100F3000012070BD2E70204600F05AF92420687000
:100F4000206801684908490001600F2160680906AE
:100F5000884321680861206882680121C9038A43A7
:100F60008260E0680128A06808D021229202104324
:100F700022689060E068022802D005E00843F7E7A5
:100F800001202268C0025060206842680F4B1A435B
:100F900042602068C2688A43C26061692069084370
:100FA000A169090208432168C860216AE069084311
:100FB00021680860206801680122114301606664AD
:100FC000202068702663AE70002070BD0080000293
:100FD000FFB5054604464035687881B0202878D1B1
:100FE0002878012875D001202870FFF747FF0746B1
:100FF000012200901923D103204601F065F9002851
:101000003CD1222068701020A870002666640398E6
:101010006062049860856663618D2F48FF2903D95B
:10102000FF22228500903BE0618D218500903DE00C
:101030002046029901F032F916E001F077F9002814
:101040001CD12068406A616A0870606A401C606256
:10105000208D401E80B22085618D491E6185618D85
:10106000002901D000280CD0608D0A9900283A464A
:101070002046E2D101F0AAF900281CD0012005B0D9
:10108000F0BD00970022802120460A9B01F01CF948
:101090000028F3D1608DFF2805D9FF222285009614
:1010A00001231B06C4E7608D20850096208D012357
:1010B000C2B25B06BCE720682022C261206841689A
:1010C000064B194041606A70AE702E700020D6E762
:1010D000FFE70220D3E700000024008000E800FEC4
:1010E000FFB5054604464035687881B0202878D1A0
:1010F0002878012875D001202870FFF7BFFE074629
:10110000012200901923D103204601F0DDF80028C8
:101110003CD1212068701020A870002666640398D6
:101120006062049860856663618D2F48FF2903D94A
:10113000FF22228500903BE0618D218500903DE0FB
:101140002046029901F0AAF816E001F06AF9002899
:101150001CD1606A216800788862606A401C606205
:10116000608D401E6085208D401E80B22085618D7F
:10117000002901D000280CD0608D0A9900283A4639
:101180002046E2D101F022F900281CD0012005B050
:10119000F0BD00970022802120460A9B01F094F8C0
:1011A0000028F3D1608DFF2805D9FF222285009603
:1011B00001231B06C4E7608D20850096208D012346
:1011C000C2B25B06BCE720682022C2612068416889
:1011D000064B194041606A70AE702E700020D6E751
:1011E000FFE70220D3E700000020008000E800FEB7
:1011F00010B586B0044614216846FEF7E4FF114995
:10120000206888421BD1104CE16A01200143E16251
:10121000E16A0490014005910321490200911221E5
:1012200001910021029103210391052069460007E5
:10123000FFF77EFDA06B012149050843A06306B0BE
:1012400010BD0000005400400010024070B50400C2
:101250000FD021681548086021681548086003CC44
:1012600041602068083C21688860FFF707FE05465A
:101270000CE0012070BDFFF701FE401B2A2805D9B4
:101280002068C068400701D0032070BD2068C06896
:101290004007F0D120680269E1688A4201D001610B
:1012A00001E004490160002070BD0000CCCC0000CA
:1012B00055550000AAAA00000068024901600020FC
:1012C00070470000AAAA00000248816802788918C5
:1012D000816070476C00002010B508480024016848
:1012E000402211430160204600F00AF8002801D096
:1012F000012401E000F026F8204610BD0020024045
:1013000070B504460D4D7D202978C000FEF70EFF14
:1013100001460B480068FEF709FF00F02BFC00288F
:1013200009D1042C07D200222146401E00F022F8E9
:1013300000206C6070BD012070BD00006C000020BA
:10134000780000200448416B012211434163816B06
:10135000020411438163704700100240002805DB3E
:10136000C106C90E0120884001490860704700008D
:1013700000E100E010B501F04DFF10BDF8B50446E6
:1013800000780026544D80067CD553484038806B49
:10139000C00006D450484038826B01040A4382637F
:1013A00001264E480168C90510D401688215114311
:1013B0000160FFF763FD074604E0FFF75FFDC01B18
:1013C00064283AD845480068C005F6D542484038F8
:1013D0000168032212056068114002408A420AD067
:1013E0008103890F032906D13B49403909688903E4
:1013F00001D50120F8BD2A69032109040A4021D042
:10140000084090421ED02078800633D528692A698A
:1014100088430121C9040A432A612A698A432A614F
:101420002861C0050ED5FFF729FD074607E0FFF745
:1014300025FDC11B2A48814201D90320F8BD286936
:101440008005F4D52078800614D560688103890F63
:10145000032908D1204B403B196803221205914310
:101460001040014319602869032261681204114089
:1014700008432861002E05D017484038826B0104CC
:101480008A4382632078800705D5E8680C21884369
:10149000A1680843E8602078400706D5E868032182
:1014A00089028843E1680843E8602078000706D590
:1014B000E86803210903884321690843E86020782C
:1014C000000606D5E868032189048843616908435A
:1014D000E8600020F8BD00004010024000700040AD
:1014E00088130000F8B50E46040038D05E48006846
:1014F000C007C00FB04214D25B4F386840084000AC
:1015000030433860FFF7BAFC054605E0FFF7B6FC4C
:10151000411B564881427AD83868C007C00FB04294
:10152000F4D12078524F800705D5F868F021884320
:10153000A1680843F8602078C00752D0606802288C
:1015400006D0032807D0396801280AD0890504E0AD
:101550003968890301E039688901002903DB01202A
:10156000F8BD4907F9E7F968890889000143F9607E
:10157000FFF784FC0546606802280AD0032814D0CF
:1015800001281ED029E0FFF779FC411B3748814232
:101590003DD8F8680007800F0228F4D121E0FFF75A
:1015A0006DFC411B3148814231D8F8680007800F3B
:1015B0000328F4D115E0FFF761FC411B2B48814261
:1015C00025D8F8680007800F0128F4D109E0FFF75B
:1015D00055FC411B2548814219D8F8680007800F47
:1015E000F5D121480168C907C90FB14217D901686F
:1015F0004908490031430160FFF740FC054608E017
:1016000005E0FFF73BFC411B1848814201D903204C
:10161000F8BD15480068C007C00FB042F1D120786E
:10162000400706D5F868072109028843E1680843A6
:10163000F8602078000707D5F8680721C9028843B9
:101640002169C9000843F86000F03AF8F968094ACE
:101650000906090F515CC84007490860074800683F
:10166000FFF74EFEF8BD0000002002408813000086
:1016700000100240F03300087800002070000020C5
:10168000044805490068C968044A4905490F515C86
:10169000C84070477800002000100240093400085C
:1016A000044805490068C968044A8904490F515C27
:1016B000C84070477800002000100240093400083C
:1016C00070B51B4EF2680C211046084019498B007A
:1016D00004280CD04D00082810D00C2810D07068B9
:1016E0000004410F0120C003491C884070BD3068D0
:1016F000C00601D5084670BD184670BD284670BDAD
:1017000090020D4C000F205C1202940FF268641CD2
:10171000D20301D5294603E03268D20600D4194627
:1017200001F052FD22460023FEF716FD70BD0000B9
:101730000010024000093D0000340008FEB504001E
:101740007ED0FE4DEE680C20EF68064001200004BC
:1017500007402078C00747D0082E05D00C2E0AD1AC
:1017600001200004874206D1286880033CD56068C8
:101770000028E5D038E0012061680004814203D1EF
:1017800029680143296011E0052301221B0492040A
:101790009942296802D111432960F1E78143296008
:1017A00029680140009128689043286060680028FB
:1017B0000DD0FFF763FB009005E0FFF75FFB00999A
:1017C000401A64287ED828688003F6D50CE0FFF71D
:1017D00055FB009005E0FFF751FB0099401A642883
:1017E000F0D828688003F6D4207880075ED5E068BA
:1017F000810604D52A6820210A432A6088430921EA
:10180000042E0DD00C2E01D1002F09D000283DD080
:101810002A688A4302432A60FFF730FB074629E023
:101820002A68520701D500288AD06A681F231B0244
:101830009A4323691B021A436A602A688A4300E0BC
:1018400092E102432A60FFF73BFF0146E868000689
:10185000020FBB48805CC140BA480160BA480068CA
:10186000FFF74EFD002873D120E0FFF707FBC01BF8
:101870000228A7D828684007F7D568681F21090201
:10188000884321690902084368600FE0286840081E
:1018900040002860FFF7F2FA074604E0FFF7EEFA8F
:1018A000C01B02288ED828684007F7D42078C006CD
:1018B0005DD5002E0CD0A06900282868A34948D027
:1018C000084300E0C3E02860FFF7D8FA07462DE0A0
:1018D0002868800502D5A0690028A5D0686807217E
:1018E00049038843216A084368606868217F0002D1
:1018F000000A090608436860206A410B0120C00302
:10190000491C8840E96809060A0F8D49895CC8406E
:101910008C4908608C480068FFF7F2FC002817D15A
:1019200025E0FFF7ABFAC01B0228A2D82868800583
:10193000F7D56868072149038843216A084368602E
:101940006868217F0002000A0906084368600EE00B
:10195000DFE088432860FFF791FA074604E0FFF7CD
:101960008DFAC01B022872D828688005F7D4207829
:10197000774F000724D560690028386910D001210D
:1019800008433861FFF77AFA009005E0FFF776FA2E
:101990000099401A02285AD838698007F6D50FE016
:1019A000400840003861FFF769FA009005E0FFF752
:1019B00065FA0099401A022849D838698007F6D498
:1019C0002078400766D500200190A86BC00006D49F
:1019D000A86B012109070843A863012001905D4815
:1019E0000168C90512D4014608688A1510430860C9
:1019F000FFF744FA009005E0FFF740FA0099401A1B
:101A0000642824D853480068C005F5D54F48A2681B
:101A1000824203D139690143396111E00121890210
:101A2000002A07D005231B029A4203D13A690A43D0
:101A30003A61EFE73A6982433A613869884338612D
:101A4000A068002810D0FFF719FA009008E05FE0C6
:101A5000FFF714FA01460098091A3F48814257D807
:101A600038698005F4D50DE0FFF708FA009006E02C
:101A7000FFF704FA0099411A3748814248D838697B
:101A80008005F5D40198002804D0A86B012109072E
:101A90008843A863606A002868D00C2E3ED00127D6
:101AA0003F060228286805D0B8432860FFF7E6F90A
:101AB00004462FE0B8432860FFF7E0F9064604E04B
:101AC000FFF7DCF9801B022822D828688001F7D4B0
:101AD000E16AA06AEA680843216BFD231B049A436C
:101AE00011430843E860286838432860FFF7C6F9C7
:101AF000044604E0FFF7C2F9001B022808D8286852
:101B00008001F7D532E0FFF7B9F9001B022801D9AF
:101B10000320FEBD28688001F5D427E00128F8D015
:101B2000E86801210904A26A014091421CD10F21F9
:101B30008904E26A0140914216D10FE00010024090
:101B4000F033000878000020700000200001000041
:101B500040100240007000408813000003218905F6
:101B60000840216B884201D00120FEBD0020FEBD4F
:101B700070470000094910B5401E884201D9012074
:101B800010BD074C60610321081F01F043FB0020DA
:101B9000A06107202061002010BD0000FFFFFF00B2
:101BA00000E000E010B5FFF7E3FF10BD704770479D
:101BB00070470000F8B502680446D0691168936860
:101BC000A44D06462E4025468035002E71D0A24FEA
:101BD000DE07F60F0F4037437ED0C70706D0CF058C
:101BE00004D5012717626A683A436A60820708D5FC
:101BF000DA0706D0276802223A626A6804273A4365
:101C00006A60420708D5DA0706D0236804221A6200
:101C10006A6802231A436A60020709D520220A4033
:101C2000324305D0236808221A626B6813436B6045
:101C3000020509D54A0107D501222368D2021A629A
:101C40006A6820231A436A606A68002A39D08006CD
:101C500006D5880604D5A16E002901D02046884704
:101C6000686821688968490602D4282108422DD075
:101C7000204600F0D7FF20688168490622D5EFF39F
:101C80001081012282F31088826840239A43826087
:101C900081F31088606F002814D070498163606FF1
:101CA000FEF779FF00280CD0606F816B08E000E040
:101CB00012E0860610D58E060ED5A16EAFE0204646
:101CC0008847F8BD2046FFF773FFF8BD2046FFF7B1
:101CD0006FFF00206860F8BD266E012E7ED1C6061B
:101CE0007CD5CE067AD510231362206881682646FB
:101CF00049064036002949DA626F116849680904CB
:101D0000090CE8D0378B8F42E5D9718311680968D7
:101D1000890634D4EFF31081012282F3108802681F
:101D20001F01BA43026081F31088EFF31081012094
:101D300080F310882068826852085200826081F324
:101D40001088EFF31081012080F3108820688268EA
:101D50004027BA43826081F3108820202860002049
:101D60002066EFF31081012080F31088206802685C
:101D70009A43026081F31088606FFEF7EAFE02204A
:101D80006066308B718B401A81B234E0318B728B7C
:101D9000891A728B89B2002A9DD000299BD0EFF35B
:101DA0001082012686F310880668FF272137BE437C
:101DB000066082F31088EFF31082012080F3108810
:101DC0002068866876087600866082F31088202076
:101DD000286000202066EFF3108200E00FE0A0668C
:101DE000012080F31088206805689D43056082F318
:101DF0001088022060662046FFF7D8FEF8BDC502B5
:101E000008D55B0206D50120000510622046FFF7C9
:101E1000CEFEF8BD030606D50B0604D5E16E0029FB
:101E200000D04CE7F8BD4006FCD54806FAD5204660
:101E3000EFF31081012383F3108813684024A34338
:101E4000136081F310882021C1670021C16600F072
:101E500029F9F8BD0F08000020010004112C00082A
:101E600010B5040003D0E06F002802D007E0012085
:101E700010BD002178200155204600F027F82420CD
:101E8000E06720680168490849000160204600F0C9
:101E9000D5FF0128ECD0606A002802D0204600F06F
:101EA000F0FD206841680922D20291434160206818
:101EB00081682A22914381602068016801221143D0
:101EC0000160204600F042FE10BD000010B586B053
:101ED000044614216846FEF776F9154920688842C1
:101EE00023D11448816B0122520411438163C16ADA
:101EF00001221143C162C06A6946104005900C205E
:101F00000090022001900020029003200390042002
:101F1000049005200007FEF70BFF002202211C2081
:101F2000FFF728FA1C20FFF719FA06B010BD0000D1
:101F3000004400400010024070B580231B58202B45
:101F400001D0022070BD00290BD0002A09D0012445
:101F500083682403A34206D10369002B03D1CB0776
:101F600001D0012070BD002303660B4C0368A3421F
:101F70000ED05C6824020BD5EFF31084012585F3A5
:101F800010881D680126B60635431D6084F310884D
:101F900001F046F870BD00000048004010B50F4940
:101FA00000680968884218D10D480D4C80781434B7
:101FB00003280DD12046FEF7BBFC002808D160792C
:101FC000142805D22279A11D42546079401C607109
:101FD0000122211D0148FFF7AFFF10BDF8000020CE
:101FE0003C000020FFB50446C06F83B015460E4686
:101FF000202802D0022007B0F0BD002E0BD0002D0B
:1020000009D00120A1680003814206D1206900287F
:1020100003D1F00701D00120EDE700218420015118
:102020002120E067FEF72AFF2746403701903D82D6
:102030007D820120A1680003814202D1206900282D
:1020400002D03546002611E000250FE00022802155
:10205000204601F049F8002815D1002D17D021683D
:10206000287888626D1C788A401E7882788A019B65
:10207000002806980090E9D100224021204601F076
:1020800033F800280AD02020E0670320B3E7308827
:102090002168C005C00D8862B61CE4E72020E06717
:1020A0000020A8E770470000FEB507460024642022
:1020B00015460E460090234601AA88210194384611
:1020C000FFF70EF8002806D02349087803283ED2EF
:1020D000401C08703EE02220FEF784FD7D20C000F9
:1020E0000090042301AA88213846FEF771FF0400FE
:1020F00030D16846808841BA6846C088890440BAB1
:10210000890C87080846FEF744F91449FEF703F9DD
:102110001349FEF7C3F8FEF743F928803846FEF767
:1021200038F90E49FEF7F7F80E49FEF7B7F80E49F1
:10213000FEF7ACF80A49FEF7B1F8FEF731F9308046
:1021400005480178002905D00021017002E0074808
:10215000308028802046FEBD0000002000FC7F4625
:102160000000C8420000254300002042FF7F00001D
:10217000FEE701688A69D243920701D400228A628D
:1021800000688169C943C90703D0816901221143ED
:1021900081617047F7B50446006882B08169002606
:1021A0002746C906403735460092002944DA1021F7
:1021B000C16131E00398401C2ED0FEF75FFE00990C
:1021C000411A0398814201D8002825D1206841682E
:1021D000012292031140BA788369DB431B0416D4B1
:1021E00001239B03994212D0202A10D04168194341
:1021F0004160FEF743FE009009E0FEF73FFE0099C4
:10220000401A192803D920200543012604E020683C
:102210008069C0438006F0D420688069C04380068E
:1022200002D5002EC6D004E0002E02D12168202065
:10223000C86104200543012621688869C20504D5C8
:10224000012215431202CA610126410505D5082164
:102250000D432268C901D1610126800506D50220FF
:10226000054321680002C861012601E0002E0FD05D
:102270002046FFF77EFF20684168074A1140416011
:10228000606C28436064202078700020B87038703B
:10229000304605B0F0BD000000E800FE10B589052D
:1022A000890D12041143029C19430068214349001F
:1022B00042684908630D034C23439A430A43426032
:1022C00010BD0000FF63FF03F8B51D4617460E461C
:1022D00004461EE0681C1CD0FEF7D0FD0699401A8B
:1022E000A84201D8002D14D1206881693046884366
:1022F0000DD00020B8420CD1616C202001436164F4
:10230000403460700020A07020700120F8BD0120D2
:10231000F0E7206881693046884304D00020B84245
:10232000D8D00020F8BD0120F9E70000F7B500275C
:1023300005460E46044640353EE031462046029AA8
:10234000FFF728FF002801D00120FEBD206880692A
:10235000C04380061CD420688169C943490702D460
:10236000218D00292DD18169C943C90604D41021CA
:10237000C1610420606400E0676420682022C261BB
:1023800020684168104B194041606A70AF7011E0DD
:10239000FEF774FD0299401AB04201D8002E0BD10D
:1023A00020688069C043400706D5616C2020014346
:1023B000616468702F70C7E720688069C043400778
:1023C000BBD40020FEBD000000E800FE70B516463C
:1023D0000D4604461EE0324629462046FFF7DAFE47
:1023E000002801D0012070BDFEF748FD801BA842E7
:1023F00001D8002D0ED120688069C043800609D520
:10240000616C202001436164403460700020A07042
:102410002070E7E720688069C0438006DBD4002095
:1024200070BD70B516460D46044620E0324629467A
:102430002046FFF7AFFE002801D0012070BD681CC8
:1024400015D0FEF71BFD801BA84201D8002D0ED130
:1024500020688069C043800709D5616C2020014352
:102460006164403460700020A0702070E5E720684F
:102470008069C0438007D9D4002070BD10B51348CF
:10248000114901601249416000218160016141618F
:1024900081610122C161C2600162FEF73FFD002837
:1024A00001D072B6FEE700210848FEF7EDFC0028D7
:1024B00001D072B6FEE700210448FEF70AFD0028AD
:1024C00001D072B6FEE710BD005400409400002019
:1024D0008266500010B50C480A490160E1214902AA
:1024E000416000218160C16001618161C1610C2294
:1024F000016242614162FFF7B3FC002801D072B66D
:10250000FEE710BD00440040F800002070B505460D
:1025100009480023094C0BE0EA5C50400822C6073A
:1025200002D04008604000E04008521EF7D15B1C1A
:102530008B42F1DB70BD0000FFFF000001A0000036
:1025400070B504462668049D059B31702168002003
:102550004A70690022680325917006E026681A5CBB
:1025600072556D1C401CADB280B28142F6D829462E
:102570002068FFF7CBFF216848556D1C2268A9B27F
:10258000000A5054491CA180012070BDF0B50446DA
:102590002568069F059E2970216800204A702568DD
:1025A000190AA97021680425CB707100062A02D08F
:1025B000102A16D10DE0012E08D00020F0BD2368AE
:1025C0003A5C5A556D1C401CADB280B28142F6D8BF
:1025D00007E02268300A10712068072546712068DC
:1025E000817129462068FFF791FF216848556D1CCD
:1025F0002268A9B2000A5054491CA1800120F0BDF4
:10260000FFB50C4605468079097891B088427DD1A6
:102610001C2109A8FDF7D7FD09A803906979281D99
:1026200008184278007816020643A81D891EFFF795
:102630006DFFEF79B0426AD1288946BA0020059033
:10264000069007900890032F06D0062F44D08037BD
:10265000FAB2217802232EE0504814998322814255
:1026600037D01A99814234D0072E28D8688940BAC9
:102670004004010C0820801B4006000E1091002928
:102680002FD081422DD813981A9A006814996B465E
:1026900007C32178324605A8109B00F085F81099F1
:1026A00005A8490801900091217833463A4603A8CD
:1026B000FFF746FF54E003A800F0D5F850E01646B7
:1026C0002178032303A800F0CEF8217803233246B3
:1026D000F1E721780423EEE78622002E02D0012EB6
:1026E0001AD053E0688940BA00B2411EFE294DD885
:1026F000C1B221701C98009013981B9B0268A52002
:10270000FEF7E4F905A90120019101E03CE040E079
:102710000090217833461FE0688940BA00B207284C
:1027200034D81F498000095813980160284600F0EA
:1027300029FD0122291D2868FFF7FEFB1C98009047
:10274000139821780268A5201B9BFEF7BFF905A806
:1027500001230093019021783A4603A8FFF716FF62
:1027600005242407012210212046FEF781FB68463C
:10277000028A7D230399DB002868FFF733FC0022DF
:1027800010212046FEF774FB15B0F0BD217803231D
:1027900091E78037FAB2217801238CE7FF7F0000B0
:1027A0001C000020FEE70000F0B500242546002AAA
:1027B00050D0012A10D89C420ED20021284E8F0002
:1027C000F759059EB74203D0491CC9B20829F5D371
:1027D0000555641C0155641C022A08D89C4206D287
:1027E000069909120155641C06990155641C032AB7
:1027F00006D89C4204D205550121641C0155641C75
:10280000042A08D89C4206D20555641CE1B2022471
:102810004454491CCCB2052A08D89C4206D205551E
:10282000641CE1B2079C4454491CCCB2062A08D867
:102830009C4206D20555641CE1B201244454491C53
:10284000CCB2072A05D89C4203D20555641CE1B2DC
:102850004554F0BD002BAED9057041700224AAE7A3
:102860001C000020704710B5044600680170206805
:1028700003214270206883702068FFF747FE2168BB
:10288000C8702168000A08710520A08010BD70473B
:10289000F8B505250F4604462D07012210212846CC
:1028A000FEF7E6FA7D26F600334602220CA12068E8
:1028B000FFF798FB3846FDF791FC82B23346394664
:1028C0002068FFF78FFB3346022205A12068FFF73F
:1028D00089FB002210212846FEF7CAFAF8BD000045
:1028E0000D0A000010B5FEF7EFFCFFF75BF910BD15
:1028F00030B599B034216846FDF765FC14210DA868
:10290000FDF761FC182112A8FDF75DFC1B4801686A
:102910000322D2029143C214891801600A250120C2
:102920000095059010210390049102200990002445
:1029300040050C900A940B946846FEF7FFFE0028B1
:1029400001D072B6FEE70F200D9003200E900F9479
:102950001094012111940DA8FEF7C4FD002801D0A8
:1029600072B6FEE7149412A812951694FEF706FDAF
:10297000002801D072B6FEE719B030BD00700040EB
:10298000704730B5817941295CD1C179542959D139
:10299000017A0022D2432B296CD1437A0321522B96
:1029A00006D0492B1FD0422B3CD0432B42D049E0CC
:1029B000837A452B46D1C37A532B43D1037B452BD6
:1029C00040D1437B542B3DD14379082B09D005E0FE
:1029D0004418E47A202C4DD8491CC9B24C1DA3429E
:1029E000F6D8012030BD837A442B02D0462B05D087
:1029F00028E0C07A3D283DD1022030BDC37A3F2B6C
:102A000020D143790125ED43062B09D005E0441878
:102A1000647A202C2ED8491CC9B2CC1CA342F6D80B
:102A2000284630BD817A52290CD1C07A3D2821D167
:102A3000032030BD817A4C2904D1C17A542903D0B6
:102A400048290FD0002030BD017B3D2912D1407BA9
:102A50002B2802D02D2802D00CE0042030BD03200A
:102A6000C04330BD017B3D2904D1407B2B2803D0DE
:102A70002D2803D0104630BD052030BD0420C043B2
:102A800030BD10B5818CC90707D001684A680123A1
:102A90005B049A43836A1A434A60818C890707D58D
:102AA00001684A6801231B049A43C36A1A434A60B7
:102AB000818C490707D501684A6801239B049A4322
:102AC000036B1A434A60818C090707D501684A687D
:102AD0000123DB039A43436B1A434A60818CC90686
:102AE00007D501688A6801231B039A43836B1A4345
:102AF0008A60818C890607D501688A6801235B0397
:102B00009A43C36B1A438A60818C490612D50168C7
:102B10004B6801221205046C934323434B60016C04
:102B2000914207D101684A6803235B059A43436CCD
:102B30001A434A60818C090607D501684A68012357
:102B4000DB04806C9A4302434A6010BDFEB5064622
:102B50000027803604467760FEF790F901902068E0
:102B60000068254600076035002819DA27480090DC
:102B70000121002249052046019B00F0B5FA0028FA
:102B80000ED0EFF31081012080F3108820680268D6
:102B900080239A43026081F310882020E06729E0B7
:102BA00020680068400728D51848009001210022BD
:102BB00089052046019B00F097FA00281DD0EFF30D
:102BC0001081012080F3108820680268FF232133E0
:102BD0009A43026081F31088EFF31081012080F3A3
:102BE00010882068826852085200826081F3108841
:102BF000202030602F760320FEBD2020E06730606B
:102C0000276667662F760020FEBD0000FFFFFF01EC
:102C100010B5806A0022014640314A834A82FEF79D
:102C2000C7FF10BD10B5EFF31082012181F31088AA
:102C300001680B68FF242134A3430B6082F31088E2
:102C4000EFF31082012181F3108801688B685B0823
:102C50005B008B6082F31088016E01290AD1EFF3CB
:102C6000108281F3108801680B681024A3430B6065
:102C700082F31088202280210A500021016681669B
:102C800010BD000070B501464031024680328B8B8A
:102C9000156814460268222D04D090690821084363
:102CA000906170BD526A456D1A402A80426D921C37
:102CB00042654A8B521E4A834A8B002AF1D1EFF3B8
:102CC0001083012282F3108802681568FF262136DE
:102CD000B543156083F31088EFF31083012282F36C
:102CE0001088026895686D086D00956083F3108800
:102CF00020222260002484664466184B02689A42AF
:102D00000ED053681B020BD5EFF31083012585F31A
:102D1000108815680126B606B543156083F3108840
:102D2000026E012A02D0FFF739F970BD0466EFF395
:102D30001083012282F31088026815681024A543CD
:102D4000156083F310880268D369DB43DB0600D487
:102D50001462098BFEF72AFF70BD00000048004096
:102D600070B501464031024680328B8B156814469F
:102D70000268222D04D0906908210843906170BD3B
:102D8000526A1A40436D1A70426D521C42654A8B5A
:102D9000521E4A834A8B002AF1D1EFF3108301229D
:102DA00082F3108802681568FF262136B543156046
:102DB00083F31088EFF31083012282F310880268F6
:102DC00095686D086D00956083F31088202222605D
:102DD000002484664466184B02689A420ED05368F9
:102DE0001B020BD5EFF31083012585F310881568BE
:102DF0000126B606B543156083F31088026E012ADA
:102E000002D0FFF7CBF870BD0466EFF31083012208
:102E100082F31088026815681024A543156083F3B7
:102E200010880268D369DB43DB0600D41462098B87
:102E3000FEF7BCFE70BD000000480040F8B5044637
:102E40002269A168E669114362690025006832437E
:102E500011436C4B02686C4E32400A43026020689A
:102E60004168032212039143E268114341602168E3
:102E7000A069994201D0226A10438A680B26360263
:102E8000B24302438A606149226861488A420AD19A
:102E9000C0680C21084027D0042829D0082825D054
:102EA0000C2811D10EE09A420ED1C068032189028C
:102EB000084019D001218902401A19D0401A15D0B2
:102EC000884201D1082700E0102751495148403974
:102ED00086009A4236D1002F0CD0022F0DD0042F3D
:102EE00010D0082F6FD12AE00027EEE70227ECE789
:102EF0000427EAE7FEF7C4FB06E00968C90605D423
:102F0000304603E0FEF7DCFB002871D06268510018
:102F1000511881426BD81103814268D3010E060219
:102F20005008002330185941FDF716F90321090212
:102F3000394A411A91425AD82168C86058E00120A4
:102F4000C003E3E70122E369D20393422CD13B00A3
:102F500000F052F90906090C4D114D4D4D284D0058
:102F6000FEF78EFB09E0FEF79BFB06E00968C90649
:102F700005D4304603E0FEF7A3FB002838D0616893
:102F800040004A088018FDF7D1F80146234A10395D
:102F900091422CD8511C01400007420F20680A437F
:102FA000C26025E01046EAE73B0000F025F909067B
:102FB000090D2012202020262000FEF761FB0AE0E8
:102FC000FEF76EFB07E012E00968C90605D430463B
:102FD00003E0FEF775FB00280AD061684A08101864
:102FE000FDF7A4F802460D49103A8A4207D9012597
:102FF0000020A066E0662846F8BD1046EDE780B2E6
:103000009AE7000000480040F369FFEF00440040E9
:103010004010024000093D00FFFC0F00EFFF0000E0
:1030200070B54165014640310A834A8300238366B7
:10303000012482682403FF25A24204D10269002AE8
:1030400013D1264A0AE07F26002A09D001252D0740
:10305000AA420CD10269002A05D03F228A8307E0E8
:103060000269002A01D08E8302E08D8300E08B8309
:10307000014680314B6022220A60EFF31082012169
:1030800081F3108801688B6801252B438B6082F3E4
:1030900010888168A14202D1016900290ED010492F
:1030A0008166016900290BD0EFF31081012282F3C0
:1030B000108800680268FF23213309E0094981660E
:1030C000EFF31081012282F3108800680268202348
:1030D0001A43026081F31088002070BDFF010000D8
:1030E000612D0008852C0008FFB5074681B08037A8
:1030F0000646044660360A9D2EE0681C2CD0FDF77B
:10310000BDFE0499401AA84214D8002D12D02068A0
:103110000168490720D5C169C94309070CD40825AE
:1031200005622046FFF77EFD7D600020307601209D
:1031300005B0F0BD0320FBE7C069C04300050BD418
:1031400001202168C00208622046FFF76BFD2020A5
:10315000786000203076EDE72068C16902988843E6
:1031600005D0002003998842C7D00020E0E7012065
:10317000F8E7000010B50248FEF71CFD10BD000086
:10318000F800002010B503680E4A1A60026851600A
:103190000268002191600268D160026811610368D1
:1031A0000C225A61026891610268D1610268116261
:1031B000026851620068FEF753FE002800D0FEE767
:1031C00010BD000000440040F8B5040C8BB2264648
:1031D00082B25E430D0C1046370C584336048019FA
:1031E0000021794116466E43370C36048019794127
:1031F00026466E438919F8BD30B47446641E25789E
:10320000641CAB4200D21D46635D5B00E31830BC1A
:10321000184700008307FF22DB0E9A408907090E3A
:103220009940002808DB830809489B0018180368A8
:1032300093430B43036070470007000F083883086F
:1032400004489B001818C36993430B43C36170473C
:1032500000E400E000ED00E002E008C8121F08C131
:10326000002AFAD170477047002001E001C1121F07
:10327000002AFBD17047000086B0FEF72DF8FFF75B
:1032800037FB14216846FCF79EFF5348C16A0124AE
:103290002143C162C06A052520402D070590002208
:1032A00010212846FDF7E4FD0220029010210020A5
:1032B00000910390019469462846FDF739FDFFF718
:1032C000DDF8FFF707F946484449016006214160EF
:1032D000FF213931C1608160FDF7B8FF002801D0BE
:1032E00072B6FEE73F48FDF76FFBC0B23E4CA52823
:1032F000207013D13B48001DFDF766FB6070394814
:103300000830FDF761FB206136480C30FDF75CFBAF
:10331000208134481030FDF757FB60813248216925
:103320001430FFF72FFF30490122143101C9FEF795
:1033300003FEFF25F535FDF7A1FDE168401AA8421F
:103340001ED9294A2648921D911E5438FEF7ACFE1C
:10335000012802D12548A080E080A088218940185A
:10336000A080E08861894018E080A078401CC0B24D
:10337000A070032801D30320A070FDF77FFDE0605B
:10338000A078032823D118481430FDF7D1FA01287A
:103390001DD115480A30831E821D0090D91F0A30A6
:1033A000FDF75AF906200A220821205EA25E615E1E
:1033B0006B4607C30C4A042310321146E35E0F39F3
:1033C000101DFFF71DF908481430FDF7DBFA04481B
:1033D000FDF772FFAFE70000001002400030004030
:1033E000E8000020003C00083C000020FF7F0000B7
:1033F00000000000000000000102030406070809A5
:10340000030406080C10182030000000000102031D
:103410000400000034340008000000207C0000009C
:1034200058320008B03400087C0000201C05000061
:1034300068320008000000000000000000000000EA
:103440004552524F520053554343455353000000D9
:10345000B004000060090000C012000080250000D8
:10346000004B00000096000000E1000000C20100D7
:10347000001A000000000000000000000000000032
:1034800000C20100F8000020000000000000000061
:10349000000000000000000000000000000000002C
:1034A00001000000040000000000000000002000F7
:04000005080000C12E
:00000001FF
